{
  "_format": "hh-sol-artifact-1",
  "contractName": "AllinToken",
  "sourceName": "contracts/AllinToken.sol",
  "abi": [
    {
      "inputs": [
        {
          "internalType": "uint256",
          "name": "initialSupply",
          "type": "uint256"
        }
      ],
      "stateMutability": "nonpayable",
      "type": "constructor"
    },
    {
      "anonymous": false,
      "inputs": [
        {
          "indexed": true,
          "internalType": "address",
          "name": "owner",
          "type": "address"
        },
        {
          "indexed": true,
          "internalType": "address",
          "name": "spender",
          "type": "address"
        },
        {
          "indexed": false,
          "internalType": "uint256",
          "name": "value",
          "type": "uint256"
        }
      ],
      "name": "Approval",
      "type": "event"
    },
    {
      "anonymous": false,
      "inputs": [
        {
          "indexed": true,
          "internalType": "address",
          "name": "previousRouter",
          "type": "address"
        },
        {
          "indexed": true,
          "internalType": "address",
          "name": "newRouter",
          "type": "address"
        }
      ],
      "name": "BurnRouterUpdated",
      "type": "event"
    },
    {
      "anonymous": false,
      "inputs": [
        {
          "indexed": true,
          "internalType": "address",
          "name": "from",
          "type": "address"
        },
        {
          "indexed": true,
          "internalType": "address",
          "name": "to",
          "type": "address"
        },
        {
          "indexed": false,
          "internalType": "uint256",
          "name": "value",
          "type": "uint256"
        }
      ],
      "name": "Transfer",
      "type": "event"
    },
    {
      "inputs": [
        {
          "internalType": "address",
          "name": "from",
          "type": "address"
        },
        {
          "internalType": "address",
          "name": "spender",
          "type": "address"
        }
      ],
      "name": "allowance",
      "outputs": [
        {
          "internalType": "uint256",
          "name": "",
          "type": "uint256"
        }
      ],
      "stateMutability": "view",
      "type": "function"
    },
    {
      "inputs": [
        {
          "internalType": "address",
          "name": "spender",
          "type": "address"
        },
        {
          "internalType": "uint256",
          "name": "amount",
          "type": "uint256"
        }
      ],
      "name": "approve",
      "outputs": [
        {
          "internalType": "bool",
          "name": "",
          "type": "bool"
        }
      ],
      "stateMutability": "nonpayable",
      "type": "function"
    },
    {
      "inputs": [
        {
          "internalType": "address",
          "name": "account",
          "type": "address"
        }
      ],
      "name": "balanceOf",
      "outputs": [
        {
          "internalType": "uint256",
          "name": "",
          "type": "uint256"
        }
      ],
      "stateMutability": "view",
      "type": "function"
    },
    {
      "inputs": [
        {
          "internalType": "uint256",
          "name": "amount",
          "type": "uint256"
        }
      ],
      "name": "burn",
      "outputs": [],
      "stateMutability": "nonpayable",
      "type": "function"
    },
    {
      "inputs": [
        {
          "internalType": "address",
          "name": "user",
          "type": "address"
        },
        {
          "internalType": "uint256",
          "name": "value",
          "type": "uint256"
        }
      ],
      "name": "burnFromUser",
      "outputs": [],
      "stateMutability": "nonpayable",
      "type": "function"
    },
    {
      "inputs": [
        {
          "internalType": "address",
          "name": "vaultAccount",
          "type": "address"
        },
        {
          "internalType": "uint256",
          "name": "value",
          "type": "uint256"
        }
      ],
      "name": "burnFromVault",
      "outputs": [],
      "stateMutability": "nonpayable",
      "type": "function"
    },
    {
      "inputs": [],
      "name": "burnRouter",
      "outputs": [
        {
          "internalType": "address",
          "name": "",
          "type": "address"
        }
      ],
      "stateMutability": "view",
      "type": "function"
    },
    {
      "inputs": [],
      "name": "decimals",
      "outputs": [
        {
          "internalType": "uint8",
          "name": "",
          "type": "uint8"
        }
      ],
      "stateMutability": "view",
      "type": "function"
    },
    {
      "inputs": [
        {
          "internalType": "address",
          "name": "to",
          "type": "address"
        },
        {
          "internalType": "uint256",
          "name": "amount",
          "type": "uint256"
        }
      ],
      "name": "mint",
      "outputs": [],
      "stateMutability": "nonpayable",
      "type": "function"
    },
    {
      "inputs": [],
      "name": "name",
      "outputs": [
        {
          "internalType": "string",
          "name": "",
          "type": "string"
        }
      ],
      "stateMutability": "view",
      "type": "function"
    },
    {
      "inputs": [],
      "name": "owner",
      "outputs": [
        {
          "internalType": "address",
          "name": "",
          "type": "address"
        }
      ],
      "stateMutability": "view",
      "type": "function"
    },
    {
      "inputs": [
        {
          "internalType": "address",
          "name": "newBurnRouter",
          "type": "address"
        }
      ],
      "name": "setBurnRouter",
      "outputs": [],
      "stateMutability": "nonpayable",
      "type": "function"
    },
    {
      "inputs": [],
      "name": "symbol",
      "outputs": [
        {
          "internalType": "string",
          "name": "",
          "type": "string"
        }
      ],
      "stateMutability": "view",
      "type": "function"
    },
    {
      "inputs": [],
      "name": "totalSupply",
      "outputs": [
        {
          "internalType": "uint256",
          "name": "",
          "type": "uint256"
        }
      ],
      "stateMutability": "view",
      "type": "function"
    },
    {
      "inputs": [
        {
          "internalType": "address",
          "name": "to",
          "type": "address"
        },
        {
          "internalType": "uint256",
          "name": "amount",
          "type": "uint256"
        }
      ],
      "name": "transfer",
      "outputs": [
        {
          "internalType": "bool",
          "name": "",
          "type": "bool"
        }
      ],
      "stateMutability": "nonpayable",
      "type": "function"
    },
    {
      "inputs": [
        {
          "internalType": "address",
          "name": "from",
          "type": "address"
        },
        {
          "internalType": "address",
          "name": "to",
          "type": "address"
        },
        {
          "internalType": "uint256",
          "name": "amount",
          "type": "uint256"
        }
      ],
      "name": "transferFrom",
      "outputs": [
        {
          "internalType": "bool",
          "name": "",
          "type": "bool"
        }
      ],
      "stateMutability": "nonpayable",
      "type": "function"
    }
  ],
  "bytecode": "0x60c0604052600a60809081526910531312538815195cdd60b21b60a0526000906200002b908262000244565b5060408051808201909152600581526420a62624a760d91b602082015260019062000057908262000244565b506002805460ff191660121790553480156200007257600080fd5b5060405162000f4a38038062000f4a833981016040819052620000959162000310565b60028054610100600160a81b03191633610100021790558015620000bf57620000bf3382620000c6565b5062000352565b6001600160a01b038216620001105760405162461bcd60e51b815260206004820152600c60248201526b4d494e545f544f5f5a45524f60a01b604482015260640160405180910390fd5b80600660008282546200012491906200032a565b90915550506001600160a01b03821660009081526004602052604081208054839290620001539084906200032a565b90915550506040518181526001600160a01b038316906000907fddf252ad1be2c89b69c2b068fc378daa952ba7f163c4a11628f55a4df523b3ef9060200160405180910390a35050565b634e487b7160e01b600052604160045260246000fd5b600181811c90821680620001c857607f821691505b602082108103620001e957634e487b7160e01b600052602260045260246000fd5b50919050565b601f8211156200023f576000816000526020600020601f850160051c810160208610156200021a5750805b601f850160051c820191505b818110156200023b5782815560010162000226565b5050505b505050565b81516001600160401b038111156200026057620002606200019d565b6200027881620002718454620001b3565b84620001ef565b602080601f831160018114620002b05760008415620002975750858301515b600019600386901b1c1916600185901b1785556200023b565b600085815260208120601f198616915b82811015620002e157888601518255948401946001909101908401620002c0565b5085821015620003005787850151600019600388901b60f8161c191681555b5050505050600190811b01905550565b6000602082840312156200032357600080fd5b5051919050565b808201808211156200034c57634e487b7160e01b600052601160045260246000fd5b92915050565b610be880620003626000396000f3fe608060405234801561001057600080fd5b50600436106101005760003560e01c806342966c681161009757806395d89b411161006657806395d89b4114610244578063a9059cbb1461024c578063c753e1261461025f578063dd62ed3e1461027257600080fd5b806342966c68146101c55780636c32b2ec146101d857806370a08231146102035780638da5cb5b1461022c57600080fd5b80631dc4b09c116100d35780631dc4b09c1461016d57806323b872dd14610180578063313ce5671461019357806340c10f19146101b257600080fd5b806306fdde0314610105578063095ea7b31461012357806318160ddd146101465780631c83ba4a14610158575b600080fd5b61010d6102ab565b60405161011a91906109fd565b60405180910390f35b610136610131366004610a68565b610339565b604051901515815260200161011a565b6006545b60405190815260200161011a565b61016b610166366004610a68565b6103a6565b005b61016b61017b366004610a92565b610406565b61013661018e366004610ab4565b6104a4565b6002546101a09060ff1681565b60405160ff909116815260200161011a565b61016b6101c0366004610a68565b61055b565b61016b6101d3366004610af0565b6105b1565b6003546101eb906001600160a01b031681565b6040516001600160a01b03909116815260200161011a565b61014a610211366004610a92565b6001600160a01b031660009081526004602052604090205490565b6002546101eb9061010090046001600160a01b031681565b61010d6105be565b61013661025a366004610a68565b6105cb565b61016b61026d366004610a68565b6105e1565b61014a610280366004610b09565b6001600160a01b03918216600090815260056020908152604080832093909416825291909152205490565b600080546102b890610b3c565b80601f01602080910402602001604051908101604052809291908181526020018280546102e490610b3c565b80156103315780601f1061030657610100808354040283529160200191610331565b820191906000526020600020905b81548152906001019060200180831161031457829003601f168201915b505050505081565b3360008181526005602090815260408083206001600160a01b038716808552925280832085905551919290917f8c5be1e5ebec7d5bd14f71427d1e84f3dd0314c0f7b2291e5b200ac8c7c3b925906103949086815260200190565b60405180910390a35060015b92915050565b6003546001600160a01b031633146103f85760405162461bcd60e51b815260206004820152601060248201526f27a7262cafa12aa9272fa927aaaa22a960811b60448201526064015b60405180910390fd5b6104028282610675565b5050565b60025461010090046001600160a01b031633146104525760405162461bcd60e51b815260206004820152600a60248201526927a7262cafa7aba722a960b11b60448201526064016103ef565b600380546001600160a01b038381166001600160a01b0319831681179093556040519116919082907f5b663d57fa8cf393f8c8019f514b25c1b3223c9324a2ce3efe28ce5aef0e62fe90600090a35050565b6001600160a01b0383166000908152600560209081526040808320338452909152812054600019811461054557828110156105165760405162461bcd60e51b815260206004820152601260248201527110531313d5d05390d157d15610d15151115160721b60448201526064016103ef565b6105208382610b8c565b6001600160a01b03861660009081526005602090815260408083203384529091529020555b6105508585856107a7565b506001949350505050565b60025461010090046001600160a01b031633146105a75760405162461bcd60e51b815260206004820152600a60248201526927a7262cafa7aba722a960b11b60448201526064016103ef565b6104028282610936565b6105bb3382610675565b50565b600180546102b890610b3c565b60006105d83384846107a7565b50600192915050565b6003546001600160a01b0316331461062e5760405162461bcd60e51b815260206004820152601060248201526f27a7262cafa12aa9272fa927aaaa22a960811b60448201526064016103ef565b6001600160a01b0382166103f85760405162461bcd60e51b815260206004820152600e60248201526d4255524e5f46524f4d5f5a45524f60901b60448201526064016103ef565b6001600160a01b0382166106bc5760405162461bcd60e51b815260206004820152600e60248201526d4255524e5f46524f4d5f5a45524f60901b60448201526064016103ef565b6001600160a01b03821660009081526004602052604090205481111561071b5760405162461bcd60e51b8152602060048201526014602482015273494e53554646494349454e545f42414c414e434560601b60448201526064016103ef565b6001600160a01b03821660009081526004602052604081208054839290610743908490610b8c565b92505081905550806006600082825461075c9190610b8c565b90915550506040518181526000906001600160a01b038416907fddf252ad1be2c89b69c2b068fc378daa952ba7f163c4a11628f55a4df523b3ef906020015b60405180910390a35050565b6001600160a01b0383166107e95760405162461bcd60e51b815260206004820152600960248201526846524f4d5f5a45524f60b81b60448201526064016103ef565b6001600160a01b0382166108295760405162461bcd60e51b8152602060048201526007602482015266544f5f5a45524f60c81b60448201526064016103ef565b6001600160a01b0383166000908152600460205260409020548111156108885760405162461bcd60e51b8152602060048201526014602482015273494e53554646494349454e545f42414c414e434560601b60448201526064016103ef565b6001600160a01b038316600090815260046020526040812080548392906108b0908490610b8c565b90915550506001600160a01b038216600090815260046020526040812080548392906108dd908490610b9f565b92505081905550816001600160a01b0316836001600160a01b03167fddf252ad1be2c89b69c2b068fc378daa952ba7f163c4a11628f55a4df523b3ef8360405161092991815260200190565b60405180910390a3505050565b6001600160a01b03821661097b5760405162461bcd60e51b815260206004820152600c60248201526b4d494e545f544f5f5a45524f60a01b60448201526064016103ef565b806006600082825461098d9190610b9f565b90915550506001600160a01b038216600090815260046020526040812080548392906109ba908490610b9f565b90915550506040518181526001600160a01b038316906000907fddf252ad1be2c89b69c2b068fc378daa952ba7f163c4a11628f55a4df523b3ef9060200161079b565b60006020808352835180602085015260005b81811015610a2b57858101830151858201604001528201610a0f565b506000604082860101526040601f19601f8301168501019250505092915050565b80356001600160a01b0381168114610a6357600080fd5b919050565b60008060408385031215610a7b57600080fd5b610a8483610a4c565b946020939093013593505050565b600060208284031215610aa457600080fd5b610aad82610a4c565b9392505050565b600080600060608486031215610ac957600080fd5b610ad284610a4c565b9250610ae060208501610a4c565b9150604084013590509250925092565b600060208284031215610b0257600080fd5b5035919050565b60008060408385031215610b1c57600080fd5b610b2583610a4c565b9150610b3360208401610a4c565b90509250929050565b600181811c90821680610b5057607f821691505b602082108103610b7057634e487b7160e01b600052602260045260246000fd5b50919050565b634e487b7160e01b600052601160045260246000fd5b818103818111156103a0576103a0610b76565b808201808211156103a0576103a0610b7656fea26469706673582212205c469e6299a336359e316b519f9c390ec40f8a87f6ac92c5c0f5769c42472ebf64736f6c63430008180033",
  "linkReferences": {},
  "deployedLinkReferences": {}
}