{"contracts/PrizePoolVault.sol":{"PrizePoolVault":{"abi":[{"inputs":[{"internalType":"address","name":"initialOwner","type":"address"}],"stateMutability":"nonpayable","type":"constructor"},{"anonymous":false,"inputs":[{"indexed":true,"internalType":"address","name":"recipient","type":"address"},{"indexed":false,"internalType":"uint256","name":"amount","type":"uint256"}],"name":"EmergencyNativeWithdrawn","type":"event"},{"anonymous":false,"inputs":[{"indexed":true,"internalType":"address","name":"token","type":"address"},{"indexed":true,"internalType":"address","name":"recipient","type":"address"},{"indexed":false,"internalType":"uint256","name":"amount","type":"uint256"}],"name":"EmergencyTokenWithdrawn","type":"event"},{"anonymous":false,"inputs":[{"indexed":true,"internalType":"address","name":"previousOwner","type":"address"},{"indexed":true,"internalType":"address","name":"newOwner","type":"address"}],"name":"OwnerUpdated","type":"event"},{"anonymous":false,"inputs":[{"indexed":true,"internalType":"address","name":"account","type":"address"}],"name":"Paused","type":"event"},{"anonymous":false,"inputs":[{"indexed":true,"internalType":"address","name":"account","type":"address"},{"indexed":false,"internalType":"bool","name":"allowed","type":"bool"}],"name":"PauserUpdated","type":"event"},{"anonymous":false,"inputs":[{"indexed":true,"internalType":"address","name":"account","type":"address"},{"indexed":false,"internalType":"bool","name":"allowed","type":"bool"}],"name":"PayoutOperatorUpdated","type":"event"},{"anonymous":false,"inputs":[{"indexed":true,"internalType":"address","name":"sender","type":"address"},{"indexed":false,"internalType":"uint256","name":"amount","type":"uint256"},{"indexed":false,"internalType":"uint256","name":"balanceAfter","type":"uint256"}],"name":"PrizeDeposited","type":"event"},{"anonymous":false,"inputs":[{"indexed":true,"internalType":"bytes32","name":"tournamentId","type":"bytes32"},{"indexed":true,"internalType":"bytes32","name":"payoutId","type":"bytes32"},{"indexed":true,"internalType":"address","name":"winner","type":"address"},{"indexed":false,"internalType":"uint256","name":"amount","type":"uint256"}],"name":"PrizePaid","type":"event"},{"anonymous":false,"inputs":[{"indexed":true,"internalType":"address","name":"account","type":"address"}],"name":"Unpaused","type":"event"},{"inputs":[{"internalType":"address payable","name":"recipient","type":"address"},{"internalType":"uint256","name":"amount","type":"uint256"}],"name":"emergencyWithdrawNative","outputs":[],"stateMutability":"nonpayable","type":"function"},{"inputs":[{"internalType":"address","name":"token","type":"address"},{"internalType":"address","name":"recipient","type":"address"},{"internalType":"uint256","name":"amount","type":"uint256"}],"name":"emergencyWithdrawUnexpectedToken","outputs":[],"stateMutability":"nonpayable","type":"function"},{"inputs":[],"name":"getPayoutCount","outputs":[{"internalType":"uint256","name":"","type":"uint256"}],"stateMutability":"view","type":"function"},{"inputs":[],"name":"owner","outputs":[{"internalType":"address","name":"","type":"address"}],"stateMutability":"view","type":"function"},{"inputs":[],"name":"pause","outputs":[],"stateMutability":"nonpayable","type":"function"},{"inputs":[],"name":"paused","outputs":[{"internalType":"bool","name":"","type":"bool"}],"stateMutability":"view","type":"function"},{"inputs":[{"internalType":"address","name":"","type":"address"}],"name":"pausers","outputs":[{"internalType":"bool","name":"","type":"bool"}],"stateMutability":"view","type":"function"},{"inputs":[{"internalType":"bytes32","name":"tournamentId","type":"bytes32"},{"internalType":"bytes32","name":"payoutId","type":"bytes32"},{"internalType":"address payable","name":"winner","type":"address"},{"internalType":"uint256","name":"amount","type":"uint256"}],"name":"payTournamentPrize","outputs":[],"stateMutability":"nonpayable","type":"function"},{"inputs":[{"internalType":"bytes32","name":"tournamentId","type":"bytes32"},{"internalType":"bytes32[]","name":"payoutIds","type":"bytes32[]"},{"internalType":"address payable[]","name":"winners","type":"address[]"},{"internalType":"uint256[]","name":"amounts","type":"uint256[]"}],"name":"payTournamentPrizes","outputs":[],"stateMutability":"nonpayable","type":"function"},{"inputs":[{"internalType":"address","name":"","type":"address"}],"name":"payoutOperators","outputs":[{"internalType":"bool","name":"","type":"bool"}],"stateMutability":"view","type":"function"},{"inputs":[{"internalType":"uint256","name":"","type":"uint256"}],"name":"payouts","outputs":[{"internalType":"bytes32","name":"payoutId","type":"bytes32"},{"internalType":"bytes32","name":"tournamentId","type":"bytes32"},{"internalType":"address","name":"winner","type":"address"},{"internalType":"uint256","name":"amount","type":"uint256"},{"internalType":"uint256","name":"paidAt","type":"uint256"}],"stateMutability":"view","type":"function"},{"inputs":[{"internalType":"address","name":"newOwner","type":"address"}],"name":"setOwner","outputs":[],"stateMutability":"nonpayable","type":"function"},{"inputs":[{"internalType":"address","name":"account","type":"address"},{"internalType":"bool","name":"allowed","type":"bool"}],"name":"setPauser","outputs":[],"stateMutability":"nonpayable","type":"function"},{"inputs":[{"internalType":"address","name":"account","type":"address"},{"internalType":"bool","name":"allowed","type":"bool"}],"name":"setPayoutOperator","outputs":[],"stateMutability":"nonpayable","type":"function"},{"inputs":[],"name":"totalPaid","outputs":[{"internalType":"uint256","name":"","type":"uint256"}],"stateMutability":"view","type":"function"},{"inputs":[],"name":"unpause","outputs":[],"stateMutability":"nonpayable","type":"function"},{"inputs":[{"internalType":"bytes32","name":"","type":"bytes32"}],"name":"usedPayoutIds","outputs":[{"internalType":"bool","name":"","type":"bool"}],"stateMutability":"view","type":"function"},{"stateMutability":"payable","type":"receive"}],"evm":{"bytecode":{"linkReferences":{},"object":"608060405234801561001057600080fd5b506040516115dd3803806115dd83398101604081905261002f9161013d565b6001600160a01b0381166100795760405162461bcd60e51b815260206004820152600d60248201526c24a72b20a624a22fa7aba722a960991b604482015260640160405180910390fd5b600080546001600160a01b0319166001600160a01b0383169081178255808252600360209081526040808420805460ff1990811660019081179092556004845294829020805490951681179094555192835290917f6f2cc06809482098e447156ab8d04276f74bc1ebe3215cddd548151ca0f8eba6910160405180910390a2604051600181526001600160a01b038216907f902923dcd4814f6cef7005a70e01d5cf2035ab02d4523ef3b865f1d7bab885af9060200160405180910390a25061016d565b60006020828403121561014f57600080fd5b81516001600160a01b038116811461016657600080fd5b9392505050565b6114618061017c6000396000f3fe6080604052600436106101025760003560e01c80637180c8ca116100955780638da5cb5b116100645780638da5cb5b1461031f5780639b78850414610357578063b980494314610377578063d1f90376146103a7578063e7b0f666146103c757600080fd5b80637180c8ca1461029a57806380f51c12146102ba5780638456cb59146102ea5780638823c3f6146102ff57600080fd5b80633d06711d116100d15780633d06711d146102255780633f4ba83a146102455780634083c32a1461025a5780635c975abb1461027957600080fd5b806313af4035146101485780631849d2a11461016a57806329652e86146101af578063341027141461020557600080fd5b36610143576040805134815247602082015233917f93e71a765d9dbd78bb81630ff384cea4889a4dd193703dd81f51584e20e71508910160405180910390a2005b600080fd5b34801561015457600080fd5b5061016861016336600461113c565b6103dd565b005b34801561017657600080fd5b5061019a610185366004611160565b60056020526000908152604090205460ff1681565b60405190151581526020015b60405180910390f35b3480156101bb57600080fd5b506101cf6101ca366004611160565b6104b1565b6040805195865260208601949094526001600160a01b03909216928401929092526060830191909152608082015260a0016101a6565b34801561021157600080fd5b506101686102203660046111c5565b6104fc565b34801561023157600080fd5b50610168610240366004611269565b610688565b34801561025157600080fd5b50610168610753565b34801561026657600080fd5b506002545b6040519081526020016101a6565b34801561028557600080fd5b5060005461019a90600160a01b900460ff1681565b3480156102a657600080fd5b506101686102b53660046112b6565b6107ec565b3480156102c657600080fd5b5061019a6102d536600461113c565b60046020526000908152604090205460ff1681565b3480156102f657600080fd5b50610168610876565b34801561030b57600080fd5b5061016861031a3660046112b6565b610915565b34801561032b57600080fd5b5060005461033f906001600160a01b031681565b6040516001600160a01b0390911681526020016101a6565b34801561036357600080fd5b506101686103723660046112ef565b610997565b34801561038357600080fd5b5061019a61039236600461113c565b60036020526000908152604090205460ff1681565b3480156103b357600080fd5b506101686103c236600461131b565b610b83565b3480156103d357600080fd5b5061026b60015481565b6000546001600160a01b031633146104105760405162461bcd60e51b81526004016104079061135c565b60405180910390fd5b6001600160a01b0381166104565760405162461bcd60e51b815260206004820152600d60248201526c24a72b20a624a22fa7aba722a960991b6044820152606401610407565b600080546040516001600160a01b03808516939216917f8292fce18fa69edf4db7b94ea2e58241df0ae57f97e0a6c9b29067028bf92d7691a3600080546001600160a01b0319166001600160a01b0392909216919091179055565b600281815481106104c157600080fd5b60009182526020909120600590910201805460018201546002830154600384015460049094015492945090926001600160a01b039091169185565b6000546001600160a01b031633148061052457503360009081526003602052604090205460ff165b6105675760405162461bcd60e51b815260206004820152601460248201527327a7262cafa820aca7aaaa2fa7a822a920aa27a960611b6044820152606401610407565b600054600160a01b900460ff16156105b55760405162461bcd60e51b8152602060048201526011602482015270141492569157d413d3d317d4105554d151607a1b6044820152606401610407565b8483811480156105c457508082145b6106085760405162461bcd60e51b8152602060048201526015602482015274082a4a482b2be988a9c8ea890be9a92a69a82a8869605b1b6044820152606401610407565b60005b8181101561067d576106758989898481811061062957610629611380565b9050602002013588888581811061064257610642611380565b9050602002016020810190610657919061113c565b87878681811061066957610669611380565b90506020020135610d97565b60010161060b565b505050505050505050565b6000546001600160a01b03163314806106b057503360009081526003602052604090205460ff165b6106f35760405162461bcd60e51b815260206004820152601460248201527327a7262cafa820aca7aaaa2fa7a822a920aa27a960611b6044820152606401610407565b600054600160a01b900460ff16156107415760405162461bcd60e51b8152602060048201526011602482015270141492569157d413d3d317d4105554d151607a1b6044820152606401610407565b61074d84848484610d97565b50505050565b6000546001600160a01b031633148061077b57503360009081526004602052604090205460ff165b6107b55760405162461bcd60e51b815260206004820152600b60248201526a27a7262cafa820aaa9a2a960a91b6044820152606401610407565b6000805460ff60a01b1916815560405133917f5db9ee0a495bf2e6ff9c91a7834c1ba4fdd244a5e8aa4e537bd38aeae4b073aa91a2565b6000546001600160a01b031633146108165760405162461bcd60e51b81526004016104079061135c565b6001600160a01b038216600081815260046020908152604091829020805460ff191685151590811790915591519182527f902923dcd4814f6cef7005a70e01d5cf2035ab02d4523ef3b865f1d7bab885af91015b60405180910390a25050565b6000546001600160a01b031633148061089e57503360009081526004602052604090205460ff165b6108d85760405162461bcd60e51b815260206004820152600b60248201526a27a7262cafa820aaa9a2a960a91b6044820152606401610407565b6000805460ff60a01b1916600160a01b17815560405133917f62e78cea01bee320cd4e420270b5ea74000d11b0c9f74754ebdbfc544b05a25891a2565b6000546001600160a01b0316331461093f5760405162461bcd60e51b81526004016104079061135c565b6001600160a01b038216600081815260036020908152604091829020805460ff191685151590811790915591519182527f6f2cc06809482098e447156ab8d04276f74bc1ebe3215cddd548151ca0f8eba6910161086a565b6000546001600160a01b031633146109c15760405162461bcd60e51b81526004016104079061135c565b600054600160a01b900460ff16610a125760405162461bcd60e51b8152602060048201526015602482015274141492569157d413d3d317d393d517d4105554d151605a1b6044820152606401610407565b6001600160a01b038216610a5c5760405162461bcd60e51b81526020600482015260116024820152701253959053125117d49150d25412515395607a1b6044820152606401610407565b60008111610a7c5760405162461bcd60e51b815260040161040790611396565b80471015610ac85760405162461bcd60e51b8152602060048201526019602482015278494e53554646494349454e545f504f4f4c5f42414c414e434560381b6044820152606401610407565b6000826001600160a01b03168260405160006040518083038185875af1925050503d8060008114610b15576040519150601f19603f3d011682016040523d82523d6000602084013e610b1a565b606091505b5050905080610b3b5760405162461bcd60e51b8152600401610407906113be565b826001600160a01b03167f667063edc301be4bbbe0123ca445e0ded1511a46a4cba624ae39dfcda8eddbc183604051610b7691815260200190565b60405180910390a2505050565b6000546001600160a01b03163314610bad5760405162461bcd60e51b81526004016104079061135c565b600054600160a01b900460ff16610bfe5760405162461bcd60e51b8152602060048201526015602482015274141492569157d413d3d317d393d517d4105554d151605a1b6044820152606401610407565b6001600160a01b038316610c445760405162461bcd60e51b815260206004820152600d60248201526c24a72b20a624a22faa27a5a2a760991b6044820152606401610407565b6001600160a01b038216610c8e5760405162461bcd60e51b81526020600482015260116024820152701253959053125117d49150d25412515395607a1b6044820152606401610407565b60008111610cae5760405162461bcd60e51b815260040161040790611396565b60405163a9059cbb60e01b81526001600160a01b038381166004830152602482018390526000919085169063a9059cbb906044016020604051808303816000875af1158015610d01573d6000803e3d6000fd5b505050506040513d601f19601f82011682018060405250810190610d2591906113e7565b905080610d445760405162461bcd60e51b8152600401610407906113be565b826001600160a01b0316846001600160a01b03167f8be7b37fba2e02786d661f3fa9ae0e02d548a6a5f7f47ecddefc5c9cb620606b84604051610d8991815260200190565b60405180910390a350505050565b83610dd95760405162461bcd60e51b81526020600482015260126024820152711253959053125117d513d55493905351539560721b6044820152606401610407565b82610e1a5760405162461bcd60e51b81526020600482015260116024820152701253959053125117d4105653d55517d251607a1b6044820152606401610407565b60008381526005602052604090205460ff1615610e6f5760405162461bcd60e51b815260206004820152601360248201527214105653d55517d053149150511657d554d151606a1b6044820152606401610407565b6001600160a01b038216610eb65760405162461bcd60e51b815260206004820152600e60248201526d24a72b20a624a22faba4a72722a960911b6044820152606401610407565b60008111610ed65760405162461bcd60e51b815260040161040790611396565b80471015610f225760405162461bcd60e51b8152602060048201526019602482015278494e53554646494349454e545f504f4f4c5f42414c414e434560381b6044820152606401610407565b6000838152600560205260408120805460ff191660019081179091558054839290610f4e908490611404565b90915550506040805160a081018252848152602081018681526001600160a01b0385811683850181815260608501878152426080870190815260028054600181018255600091825297517f405787fa12a823e0f2b7631cc41b3ba8828b3321ca811111fa75cd3aa3bb5ace60059099029889015595517f405787fa12a823e0f2b7631cc41b3ba8828b3321ca811111fa75cd3aa3bb5acf88015591517f405787fa12a823e0f2b7631cc41b3ba8828b3321ca811111fa75cd3aa3bb5ad0870180546001600160a01b031916919095161790935591517f405787fa12a823e0f2b7631cc41b3ba8828b3321ca811111fa75cd3aa3bb5ad185015590517f405787fa12a823e0f2b7631cc41b3ba8828b3321ca811111fa75cd3aa3bb5ad2909301929092559151839060006040518083038185875af1925050503d80600081146110b2576040519150601f19603f3d011682016040523d82523d6000602084013e6110b7565b606091505b50509050806110d85760405162461bcd60e51b8152600401610407906113be565b826001600160a01b031684867fd5fde774edacda90de4dd019267ea22db532d23128b5458311063666f1972def8560405161111591815260200190565b60405180910390a45050505050565b6001600160a01b038116811461113957600080fd5b50565b60006020828403121561114e57600080fd5b813561115981611124565b9392505050565b60006020828403121561117257600080fd5b5035919050565b60008083601f84011261118b57600080fd5b50813567ffffffffffffffff8111156111a357600080fd5b6020830191508360208260051b85010111156111be57600080fd5b9250929050565b60008060008060008060006080888a0312156111e057600080fd5b87359650602088013567ffffffffffffffff808211156111ff57600080fd5b61120b8b838c01611179565b909850965060408a013591508082111561122457600080fd5b6112308b838c01611179565b909650945060608a013591508082111561124957600080fd5b506112568a828b01611179565b989b979a50959850939692959293505050565b6000806000806080858703121561127f57600080fd5b8435935060208501359250604085013561129881611124565b9396929550929360600135925050565b801515811461113957600080fd5b600080604083850312156112c957600080fd5b82356112d481611124565b915060208301356112e4816112a8565b809150509250929050565b6000806040838503121561130257600080fd5b823561130d81611124565b946020939093013593505050565b60008060006060848603121561133057600080fd5b833561133b81611124565b9250602084013561134b81611124565b929592945050506040919091013590565b6020808252600a908201526927a7262cafa7aba722a960b11b604082015260600190565b634e487b7160e01b600052603260045260246000fd5b6020808252600e908201526d1253959053125117d05353d5539560921b604082015260600190565b6020808252600f908201526e1514905394d1915497d19052531151608a1b604082015260600190565b6000602082840312156113f957600080fd5b8151611159816112a8565b8082018082111561142557634e487b7160e01b600052601160045260246000fd5b9291505056fea26469706673582212208c1df9ff70e326216bba0b160cdfa8076b666360c0be15e63787087cfe941ecf64736f6c63430008180033","opcodes":"PUSH1 0x80 PUSH1 0x40 MSTORE CALLVALUE DUP1 ISZERO PUSH2 0x10 JUMPI PUSH1 0x0 DUP1 REVERT JUMPDEST POP PUSH1 0x40 MLOAD PUSH2 0x15DD CODESIZE SUB DUP1 PUSH2 0x15DD DUP4 CODECOPY DUP2 ADD PUSH1 0x40 DUP2 SWAP1 MSTORE PUSH2 0x2F SWAP2 PUSH2 0x13D JUMP JUMPDEST PUSH1 0x1 PUSH1 0x1 PUSH1 0xA0 SHL SUB DUP2 AND PUSH2 0x79 JUMPI PUSH1 0x40 MLOAD PUSH3 0x461BCD PUSH1 0xE5 SHL DUP2 MSTORE PUSH1 0x20 PUSH1 0x4 DUP3 ADD MSTORE PUSH1 0xD PUSH1 0x24 DUP3 ADD MSTORE PUSH13 0x24A72B20A624A22FA7ABA722A9 PUSH1 0x99 SHL PUSH1 0x44 DUP3 ADD MSTORE PUSH1 0x64 ADD PUSH1 0x40 MLOAD DUP1 SWAP2 SUB SWAP1 REVERT JUMPDEST PUSH1 0x0 DUP1 SLOAD PUSH1 0x1 PUSH1 0x1 PUSH1 0xA0 SHL SUB NOT AND PUSH1 0x1 PUSH1 0x1 PUSH1 0xA0 SHL SUB DUP4 AND SWAP1 DUP2 OR DUP3 SSTORE DUP1 DUP3 MSTORE PUSH1 0x3 PUSH1 0x20 SWAP1 DUP2 MSTORE PUSH1 0x40 DUP1 DUP5 KECCAK256 DUP1 SLOAD PUSH1 0xFF NOT SWAP1 DUP2 AND PUSH1 0x1 SWAP1 DUP2 OR SWAP1 SWAP3 SSTORE PUSH1 0x4 DUP5 MSTORE SWAP5 DUP3 SWAP1 KECCAK256 DUP1 SLOAD SWAP1 SWAP6 AND DUP2 OR SWAP1 SWAP5 SSTORE MLOAD SWAP3 DUP4 MSTORE SWAP1 SWAP2 PUSH32 0x6F2CC06809482098E447156AB8D04276F74BC1EBE3215CDDD548151CA0F8EBA6 SWAP2 ADD PUSH1 0x40 MLOAD DUP1 SWAP2 SUB SWAP1 LOG2 PUSH1 0x40 MLOAD PUSH1 0x1 DUP2 MSTORE PUSH1 0x1 PUSH1 0x1 PUSH1 0xA0 SHL SUB DUP3 AND SWAP1 PUSH32 0x902923DCD4814F6CEF7005A70E01D5CF2035AB02D4523EF3B865F1D7BAB885AF SWAP1 PUSH1 0x20 ADD PUSH1 0x40 MLOAD DUP1 SWAP2 SUB SWAP1 LOG2 POP PUSH2 0x16D JUMP JUMPDEST PUSH1 0x0 PUSH1 0x20 DUP3 DUP5 SUB SLT ISZERO PUSH2 0x14F JUMPI PUSH1 0x0 DUP1 REVERT JUMPDEST DUP2 MLOAD PUSH1 0x1 PUSH1 0x1 PUSH1 0xA0 SHL SUB DUP2 AND DUP2 EQ PUSH2 0x166 JUMPI PUSH1 0x0 DUP1 REVERT JUMPDEST SWAP4 SWAP3 POP POP POP JUMP JUMPDEST PUSH2 0x1461 DUP1 PUSH2 0x17C PUSH1 0x0 CODECOPY PUSH1 0x0 RETURN INVALID PUSH1 0x80 PUSH1 0x40 MSTORE PUSH1 0x4 CALLDATASIZE LT PUSH2 0x102 JUMPI PUSH1 0x0 CALLDATALOAD PUSH1 0xE0 SHR DUP1 PUSH4 0x7180C8CA GT PUSH2 0x95 JUMPI DUP1 PUSH4 0x8DA5CB5B GT PUSH2 0x64 JUMPI DUP1 PUSH4 0x8DA5CB5B EQ PUSH2 0x31F JUMPI DUP1 PUSH4 0x9B788504 EQ PUSH2 0x357 JUMPI DUP1 PUSH4 0xB9804943 EQ PUSH2 0x377 JUMPI DUP1 PUSH4 0xD1F90376 EQ PUSH2 0x3A7 JUMPI DUP1 PUSH4 0xE7B0F666 EQ PUSH2 0x3C7 JUMPI PUSH1 0x0 DUP1 REVERT JUMPDEST DUP1 PUSH4 0x7180C8CA EQ PUSH2 0x29A JUMPI DUP1 PUSH4 0x80F51C12 EQ PUSH2 0x2BA JUMPI DUP1 PUSH4 0x8456CB59 EQ PUSH2 0x2EA JUMPI DUP1 PUSH4 0x8823C3F6 EQ PUSH2 0x2FF JUMPI PUSH1 0x0 DUP1 REVERT JUMPDEST DUP1 PUSH4 0x3D06711D GT PUSH2 0xD1 JUMPI DUP1 PUSH4 0x3D06711D EQ PUSH2 0x225 JUMPI DUP1 PUSH4 0x3F4BA83A EQ PUSH2 0x245 JUMPI DUP1 PUSH4 0x4083C32A EQ PUSH2 0x25A JUMPI DUP1 PUSH4 0x5C975ABB EQ PUSH2 0x279 JUMPI PUSH1 0x0 DUP1 REVERT JUMPDEST DUP1 PUSH4 0x13AF4035 EQ PUSH2 0x148 JUMPI DUP1 PUSH4 0x1849D2A1 EQ PUSH2 0x16A JUMPI DUP1 PUSH4 0x29652E86 EQ PUSH2 0x1AF JUMPI DUP1 PUSH4 0x34102714 EQ PUSH2 0x205 JUMPI PUSH1 0x0 DUP1 REVERT JUMPDEST CALLDATASIZE PUSH2 0x143 JUMPI PUSH1 0x40 DUP1 MLOAD CALLVALUE DUP2 MSTORE SELFBALANCE PUSH1 0x20 DUP3 ADD MSTORE CALLER SWAP2 PUSH32 0x93E71A765D9DBD78BB81630FF384CEA4889A4DD193703DD81F51584E20E71508 SWAP2 ADD PUSH1 0x40 MLOAD DUP1 SWAP2 SUB SWAP1 LOG2 STOP JUMPDEST PUSH1 0x0 DUP1 REVERT JUMPDEST CALLVALUE DUP1 ISZERO PUSH2 0x154 JUMPI PUSH1 0x0 DUP1 REVERT JUMPDEST POP PUSH2 0x168 PUSH2 0x163 CALLDATASIZE PUSH1 0x4 PUSH2 0x113C JUMP JUMPDEST PUSH2 0x3DD JUMP JUMPDEST STOP JUMPDEST CALLVALUE DUP1 ISZERO PUSH2 0x176 JUMPI PUSH1 0x0 DUP1 REVERT JUMPDEST POP PUSH2 0x19A PUSH2 0x185 CALLDATASIZE PUSH1 0x4 PUSH2 0x1160 JUMP JUMPDEST PUSH1 0x5 PUSH1 0x20 MSTORE PUSH1 0x0 SWAP1 DUP2 MSTORE PUSH1 0x40 SWAP1 KECCAK256 SLOAD PUSH1 0xFF AND DUP2 JUMP JUMPDEST PUSH1 0x40 MLOAD SWAP1 ISZERO ISZERO DUP2 MSTORE PUSH1 0x20 ADD JUMPDEST PUSH1 0x40 MLOAD DUP1 SWAP2 SUB SWAP1 RETURN JUMPDEST CALLVALUE DUP1 ISZERO PUSH2 0x1BB JUMPI PUSH1 0x0 DUP1 REVERT JUMPDEST POP PUSH2 0x1CF PUSH2 0x1CA CALLDATASIZE PUSH1 0x4 PUSH2 0x1160 JUMP JUMPDEST PUSH2 0x4B1 JUMP JUMPDEST PUSH1 0x40 DUP1 MLOAD SWAP6 DUP7 MSTORE PUSH1 0x20 DUP7 ADD SWAP5 SWAP1 SWAP5 MSTORE PUSH1 0x1 PUSH1 0x1 PUSH1 0xA0 SHL SUB SWAP1 SWAP3 AND SWAP3 DUP5 ADD SWAP3 SWAP1 SWAP3 MSTORE PUSH1 0x60 DUP4 ADD SWAP2 SWAP1 SWAP2 MSTORE PUSH1 0x80 DUP3 ADD MSTORE PUSH1 0xA0 ADD PUSH2 0x1A6 JUMP JUMPDEST CALLVALUE DUP1 ISZERO PUSH2 0x211 JUMPI PUSH1 0x0 DUP1 REVERT JUMPDEST POP PUSH2 0x168 PUSH2 0x220 CALLDATASIZE PUSH1 0x4 PUSH2 0x11C5 JUMP JUMPDEST PUSH2 0x4FC JUMP JUMPDEST CALLVALUE DUP1 ISZERO PUSH2 0x231 JUMPI PUSH1 0x0 DUP1 REVERT JUMPDEST POP PUSH2 0x168 PUSH2 0x240 CALLDATASIZE PUSH1 0x4 PUSH2 0x1269 JUMP JUMPDEST PUSH2 0x688 JUMP JUMPDEST CALLVALUE DUP1 ISZERO PUSH2 0x251 JUMPI PUSH1 0x0 DUP1 REVERT JUMPDEST POP PUSH2 0x168 PUSH2 0x753 JUMP JUMPDEST CALLVALUE DUP1 ISZERO PUSH2 0x266 JUMPI PUSH1 0x0 DUP1 REVERT JUMPDEST POP PUSH1 0x2 SLOAD JUMPDEST PUSH1 0x40 MLOAD SWAP1 DUP2 MSTORE PUSH1 0x20 ADD PUSH2 0x1A6 JUMP JUMPDEST CALLVALUE DUP1 ISZERO PUSH2 0x285 JUMPI PUSH1 0x0 DUP1 REVERT JUMPDEST POP PUSH1 0x0 SLOAD PUSH2 0x19A SWAP1 PUSH1 0x1 PUSH1 0xA0 SHL SWAP1 DIV PUSH1 0xFF AND DUP2 JUMP JUMPDEST CALLVALUE DUP1 ISZERO PUSH2 0x2A6 JUMPI PUSH1 0x0 DUP1 REVERT JUMPDEST POP PUSH2 0x168 PUSH2 0x2B5 CALLDATASIZE PUSH1 0x4 PUSH2 0x12B6 JUMP JUMPDEST PUSH2 0x7EC JUMP JUMPDEST CALLVALUE DUP1 ISZERO PUSH2 0x2C6 JUMPI PUSH1 0x0 DUP1 REVERT JUMPDEST POP PUSH2 0x19A PUSH2 0x2D5 CALLDATASIZE PUSH1 0x4 PUSH2 0x113C JUMP JUMPDEST PUSH1 0x4 PUSH1 0x20 MSTORE PUSH1 0x0 SWAP1 DUP2 MSTORE PUSH1 0x40 SWAP1 KECCAK256 SLOAD PUSH1 0xFF AND DUP2 JUMP JUMPDEST CALLVALUE DUP1 ISZERO PUSH2 0x2F6 JUMPI PUSH1 0x0 DUP1 REVERT JUMPDEST POP PUSH2 0x168 PUSH2 0x876 JUMP JUMPDEST CALLVALUE DUP1 ISZERO PUSH2 0x30B JUMPI PUSH1 0x0 DUP1 REVERT JUMPDEST POP PUSH2 0x168 PUSH2 0x31A CALLDATASIZE PUSH1 0x4 PUSH2 0x12B6 JUMP JUMPDEST PUSH2 0x915 JUMP JUMPDEST CALLVALUE DUP1 ISZERO PUSH2 0x32B JUMPI PUSH1 0x0 DUP1 REVERT JUMPDEST POP PUSH1 0x0 SLOAD PUSH2 0x33F SWAP1 PUSH1 0x1 PUSH1 0x1 PUSH1 0xA0 SHL SUB AND DUP2 JUMP JUMPDEST PUSH1 0x40 MLOAD PUSH1 0x1 PUSH1 0x1 PUSH1 0xA0 SHL SUB SWAP1 SWAP2 AND DUP2 MSTORE PUSH1 0x20 ADD PUSH2 0x1A6 JUMP JUMPDEST CALLVALUE DUP1 ISZERO PUSH2 0x363 JUMPI PUSH1 0x0 DUP1 REVERT JUMPDEST POP PUSH2 0x168 PUSH2 0x372 CALLDATASIZE PUSH1 0x4 PUSH2 0x12EF JUMP JUMPDEST PUSH2 0x997 JUMP JUMPDEST CALLVALUE DUP1 ISZERO PUSH2 0x383 JUMPI PUSH1 0x0 DUP1 REVERT JUMPDEST POP PUSH2 0x19A PUSH2 0x392 CALLDATASIZE PUSH1 0x4 PUSH2 0x113C JUMP JUMPDEST PUSH1 0x3 PUSH1 0x20 MSTORE PUSH1 0x0 SWAP1 DUP2 MSTORE PUSH1 0x40 SWAP1 KECCAK256 SLOAD PUSH1 0xFF AND DUP2 JUMP JUMPDEST CALLVALUE DUP1 ISZERO PUSH2 0x3B3 JUMPI PUSH1 0x0 DUP1 REVERT JUMPDEST POP PUSH2 0x168 PUSH2 0x3C2 CALLDATASIZE PUSH1 0x4 PUSH2 0x131B JUMP JUMPDEST PUSH2 0xB83 JUMP JUMPDEST CALLVALUE DUP1 ISZERO PUSH2 0x3D3 JUMPI PUSH1 0x0 DUP1 REVERT JUMPDEST POP PUSH2 0x26B PUSH1 0x1 SLOAD DUP2 JUMP JUMPDEST PUSH1 0x0 SLOAD PUSH1 0x1 PUSH1 0x1 PUSH1 0xA0 SHL SUB AND CALLER EQ PUSH2 0x410 JUMPI PUSH1 0x40 MLOAD PUSH3 0x461BCD PUSH1 0xE5 SHL DUP2 MSTORE PUSH1 0x4 ADD PUSH2 0x407 SWAP1 PUSH2 0x135C JUMP JUMPDEST PUSH1 0x40 MLOAD DUP1 SWAP2 SUB SWAP1 REVERT JUMPDEST PUSH1 0x1 PUSH1 0x1 PUSH1 0xA0 SHL SUB DUP2 AND PUSH2 0x456 JUMPI PUSH1 0x40 MLOAD PUSH3 0x461BCD PUSH1 0xE5 SHL DUP2 MSTORE PUSH1 0x20 PUSH1 0x4 DUP3 ADD MSTORE PUSH1 0xD PUSH1 0x24 DUP3 ADD MSTORE PUSH13 0x24A72B20A624A22FA7ABA722A9 PUSH1 0x99 SHL PUSH1 0x44 DUP3 ADD MSTORE PUSH1 0x64 ADD PUSH2 0x407 JUMP JUMPDEST PUSH1 0x0 DUP1 SLOAD PUSH1 0x40 MLOAD PUSH1 0x1 PUSH1 0x1 PUSH1 0xA0 SHL SUB DUP1 DUP6 AND SWAP4 SWAP3 AND SWAP2 PUSH32 0x8292FCE18FA69EDF4DB7B94EA2E58241DF0AE57F97E0A6C9B29067028BF92D76 SWAP2 LOG3 PUSH1 0x0 DUP1 SLOAD PUSH1 0x1 PUSH1 0x1 PUSH1 0xA0 SHL SUB NOT AND PUSH1 0x1 PUSH1 0x1 PUSH1 0xA0 SHL SUB SWAP3 SWAP1 SWAP3 AND SWAP2 SWAP1 SWAP2 OR SWAP1 SSTORE JUMP JUMPDEST PUSH1 0x2 DUP2 DUP2 SLOAD DUP2 LT PUSH2 0x4C1 JUMPI PUSH1 0x0 DUP1 REVERT JUMPDEST PUSH1 0x0 SWAP2 DUP3 MSTORE PUSH1 0x20 SWAP1 SWAP2 KECCAK256 PUSH1 0x5 SWAP1 SWAP2 MUL ADD DUP1 SLOAD PUSH1 0x1 DUP3 ADD SLOAD PUSH1 0x2 DUP4 ADD SLOAD PUSH1 0x3 DUP5 ADD SLOAD PUSH1 0x4 SWAP1 SWAP5 ADD SLOAD SWAP3 SWAP5 POP SWAP1 SWAP3 PUSH1 0x1 PUSH1 0x1 PUSH1 0xA0 SHL SUB SWAP1 SWAP2 AND SWAP2 DUP6 JUMP JUMPDEST PUSH1 0x0 SLOAD PUSH1 0x1 PUSH1 0x1 PUSH1 0xA0 SHL SUB AND CALLER EQ DUP1 PUSH2 0x524 JUMPI POP CALLER PUSH1 0x0 SWAP1 DUP2 MSTORE PUSH1 0x3 PUSH1 0x20 MSTORE PUSH1 0x40 SWAP1 KECCAK256 SLOAD PUSH1 0xFF AND JUMPDEST PUSH2 0x567 JUMPI PUSH1 0x40 MLOAD PUSH3 0x461BCD PUSH1 0xE5 SHL DUP2 MSTORE PUSH1 0x20 PUSH1 0x4 DUP3 ADD MSTORE PUSH1 0x14 PUSH1 0x24 DUP3 ADD MSTORE PUSH20 0x27A7262CAFA820ACA7AAAA2FA7A822A920AA27A9 PUSH1 0x61 SHL PUSH1 0x44 DUP3 ADD MSTORE PUSH1 0x64 ADD PUSH2 0x407 JUMP JUMPDEST PUSH1 0x0 SLOAD PUSH1 0x1 PUSH1 0xA0 SHL SWAP1 DIV PUSH1 0xFF AND ISZERO PUSH2 0x5B5 JUMPI PUSH1 0x40 MLOAD PUSH3 0x461BCD PUSH1 0xE5 SHL DUP2 MSTORE PUSH1 0x20 PUSH1 0x4 DUP3 ADD MSTORE PUSH1 0x11 PUSH1 0x24 DUP3 ADD MSTORE PUSH17 0x141492569157D413D3D317D4105554D151 PUSH1 0x7A SHL PUSH1 0x44 DUP3 ADD MSTORE PUSH1 0x64 ADD PUSH2 0x407 JUMP JUMPDEST DUP5 DUP4 DUP2 EQ DUP1 ISZERO PUSH2 0x5C4 JUMPI POP DUP1 DUP3 EQ JUMPDEST PUSH2 0x608 JUMPI PUSH1 0x40 MLOAD PUSH3 0x461BCD PUSH1 0xE5 SHL DUP2 MSTORE PUSH1 0x20 PUSH1 0x4 DUP3 ADD MSTORE PUSH1 0x15 PUSH1 0x24 DUP3 ADD MSTORE PUSH21 0x82A4A482B2BE988A9C8EA890BE9A92A69A82A8869 PUSH1 0x5B SHL PUSH1 0x44 DUP3 ADD MSTORE PUSH1 0x64 ADD PUSH2 0x407 JUMP JUMPDEST PUSH1 0x0 JUMPDEST DUP2 DUP2 LT ISZERO PUSH2 0x67D JUMPI PUSH2 0x675 DUP10 DUP10 DUP10 DUP5 DUP2 DUP2 LT PUSH2 0x629 JUMPI PUSH2 0x629 PUSH2 0x1380 JUMP JUMPDEST SWAP1 POP PUSH1 0x20 MUL ADD CALLDATALOAD DUP9 DUP9 DUP6 DUP2 DUP2 LT PUSH2 0x642 JUMPI PUSH2 0x642 PUSH2 0x1380 JUMP JUMPDEST SWAP1 POP PUSH1 0x20 MUL ADD PUSH1 0x20 DUP2 ADD SWAP1 PUSH2 0x657 SWAP2 SWAP1 PUSH2 0x113C JUMP JUMPDEST DUP8 DUP8 DUP7 DUP2 DUP2 LT PUSH2 0x669 JUMPI PUSH2 0x669 PUSH2 0x1380 JUMP JUMPDEST SWAP1 POP PUSH1 0x20 MUL ADD CALLDATALOAD PUSH2 0xD97 JUMP JUMPDEST PUSH1 0x1 ADD PUSH2 0x60B JUMP JUMPDEST POP POP POP POP POP POP POP POP POP JUMP JUMPDEST PUSH1 0x0 SLOAD PUSH1 0x1 PUSH1 0x1 PUSH1 0xA0 SHL SUB AND CALLER EQ DUP1 PUSH2 0x6B0 JUMPI POP CALLER PUSH1 0x0 SWAP1 DUP2 MSTORE PUSH1 0x3 PUSH1 0x20 MSTORE PUSH1 0x40 SWAP1 KECCAK256 SLOAD PUSH1 0xFF AND JUMPDEST PUSH2 0x6F3 JUMPI PUSH1 0x40 MLOAD PUSH3 0x461BCD PUSH1 0xE5 SHL DUP2 MSTORE PUSH1 0x20 PUSH1 0x4 DUP3 ADD MSTORE PUSH1 0x14 PUSH1 0x24 DUP3 ADD MSTORE PUSH20 0x27A7262CAFA820ACA7AAAA2FA7A822A920AA27A9 PUSH1 0x61 SHL PUSH1 0x44 DUP3 ADD MSTORE PUSH1 0x64 ADD PUSH2 0x407 JUMP JUMPDEST PUSH1 0x0 SLOAD PUSH1 0x1 PUSH1 0xA0 SHL SWAP1 DIV PUSH1 0xFF AND ISZERO PUSH2 0x741 JUMPI PUSH1 0x40 MLOAD PUSH3 0x461BCD PUSH1 0xE5 SHL DUP2 MSTORE PUSH1 0x20 PUSH1 0x4 DUP3 ADD MSTORE PUSH1 0x11 PUSH1 0x24 DUP3 ADD MSTORE PUSH17 0x141492569157D413D3D317D4105554D151 PUSH1 0x7A SHL PUSH1 0x44 DUP3 ADD MSTORE PUSH1 0x64 ADD PUSH2 0x407 JUMP JUMPDEST PUSH2 0x74D DUP5 DUP5 DUP5 DUP5 PUSH2 0xD97 JUMP JUMPDEST POP POP POP POP JUMP JUMPDEST PUSH1 0x0 SLOAD PUSH1 0x1 PUSH1 0x1 PUSH1 0xA0 SHL SUB AND CALLER EQ DUP1 PUSH2 0x77B JUMPI POP CALLER PUSH1 0x0 SWAP1 DUP2 MSTORE PUSH1 0x4 PUSH1 0x20 MSTORE PUSH1 0x40 SWAP1 KECCAK256 SLOAD PUSH1 0xFF AND JUMPDEST PUSH2 0x7B5 JUMPI PUSH1 0x40 MLOAD PUSH3 0x461BCD PUSH1 0xE5 SHL DUP2 MSTORE PUSH1 0x20 PUSH1 0x4 DUP3 ADD MSTORE PUSH1 0xB PUSH1 0x24 DUP3 ADD MSTORE PUSH11 0x27A7262CAFA820AAA9A2A9 PUSH1 0xA9 SHL PUSH1 0x44 DUP3 ADD MSTORE PUSH1 0x64 ADD PUSH2 0x407 JUMP JUMPDEST PUSH1 0x0 DUP1 SLOAD PUSH1 0xFF PUSH1 0xA0 SHL NOT AND DUP2 SSTORE PUSH1 0x40 MLOAD CALLER SWAP2 PUSH32 0x5DB9EE0A495BF2E6FF9C91A7834C1BA4FDD244A5E8AA4E537BD38AEAE4B073AA SWAP2 LOG2 JUMP JUMPDEST PUSH1 0x0 SLOAD PUSH1 0x1 PUSH1 0x1 PUSH1 0xA0 SHL SUB AND CALLER EQ PUSH2 0x816 JUMPI PUSH1 0x40 MLOAD PUSH3 0x461BCD PUSH1 0xE5 SHL DUP2 MSTORE PUSH1 0x4 ADD PUSH2 0x407 SWAP1 PUSH2 0x135C JUMP JUMPDEST PUSH1 0x1 PUSH1 0x1 PUSH1 0xA0 SHL SUB DUP3 AND PUSH1 0x0 DUP2 DUP2 MSTORE PUSH1 0x4 PUSH1 0x20 SWAP1 DUP2 MSTORE PUSH1 0x40 SWAP2 DUP3 SWAP1 KECCAK256 DUP1 SLOAD PUSH1 0xFF NOT AND DUP6 ISZERO ISZERO SWAP1 DUP2 OR SWAP1 SWAP2 SSTORE SWAP2 MLOAD SWAP2 DUP3 MSTORE PUSH32 0x902923DCD4814F6CEF7005A70E01D5CF2035AB02D4523EF3B865F1D7BAB885AF SWAP2 ADD JUMPDEST PUSH1 0x40 MLOAD DUP1 SWAP2 SUB SWAP1 LOG2 POP POP JUMP JUMPDEST PUSH1 0x0 SLOAD PUSH1 0x1 PUSH1 0x1 PUSH1 0xA0 SHL SUB AND CALLER EQ DUP1 PUSH2 0x89E JUMPI POP CALLER PUSH1 0x0 SWAP1 DUP2 MSTORE PUSH1 0x4 PUSH1 0x20 MSTORE PUSH1 0x40 SWAP1 KECCAK256 SLOAD PUSH1 0xFF AND JUMPDEST PUSH2 0x8D8 JUMPI PUSH1 0x40 MLOAD PUSH3 0x461BCD PUSH1 0xE5 SHL DUP2 MSTORE PUSH1 0x20 PUSH1 0x4 DUP3 ADD MSTORE PUSH1 0xB PUSH1 0x24 DUP3 ADD MSTORE PUSH11 0x27A7262CAFA820AAA9A2A9 PUSH1 0xA9 SHL PUSH1 0x44 DUP3 ADD MSTORE PUSH1 0x64 ADD PUSH2 0x407 JUMP JUMPDEST PUSH1 0x0 DUP1 SLOAD PUSH1 0xFF PUSH1 0xA0 SHL NOT AND PUSH1 0x1 PUSH1 0xA0 SHL OR DUP2 SSTORE PUSH1 0x40 MLOAD CALLER SWAP2 PUSH32 0x62E78CEA01BEE320CD4E420270B5EA74000D11B0C9F74754EBDBFC544B05A258 SWAP2 LOG2 JUMP JUMPDEST PUSH1 0x0 SLOAD PUSH1 0x1 PUSH1 0x1 PUSH1 0xA0 SHL SUB AND CALLER EQ PUSH2 0x93F JUMPI PUSH1 0x40 MLOAD PUSH3 0x461BCD PUSH1 0xE5 SHL DUP2 MSTORE PUSH1 0x4 ADD PUSH2 0x407 SWAP1 PUSH2 0x135C JUMP JUMPDEST PUSH1 0x1 PUSH1 0x1 PUSH1 0xA0 SHL SUB DUP3 AND PUSH1 0x0 DUP2 DUP2 MSTORE PUSH1 0x3 PUSH1 0x20 SWAP1 DUP2 MSTORE PUSH1 0x40 SWAP2 DUP3 SWAP1 KECCAK256 DUP1 SLOAD PUSH1 0xFF NOT AND DUP6 ISZERO ISZERO SWAP1 DUP2 OR SWAP1 SWAP2 SSTORE SWAP2 MLOAD SWAP2 DUP3 MSTORE PUSH32 0x6F2CC06809482098E447156AB8D04276F74BC1EBE3215CDDD548151CA0F8EBA6 SWAP2 ADD PUSH2 0x86A JUMP JUMPDEST PUSH1 0x0 SLOAD PUSH1 0x1 PUSH1 0x1 PUSH1 0xA0 SHL SUB AND CALLER EQ PUSH2 0x9C1 JUMPI PUSH1 0x40 MLOAD PUSH3 0x461BCD PUSH1 0xE5 SHL DUP2 MSTORE PUSH1 0x4 ADD PUSH2 0x407 SWAP1 PUSH2 0x135C JUMP JUMPDEST PUSH1 0x0 SLOAD PUSH1 0x1 PUSH1 0xA0 SHL SWAP1 DIV PUSH1 0xFF AND PUSH2 0xA12 JUMPI PUSH1 0x40 MLOAD PUSH3 0x461BCD PUSH1 0xE5 SHL DUP2 MSTORE PUSH1 0x20 PUSH1 0x4 DUP3 ADD MSTORE PUSH1 0x15 PUSH1 0x24 DUP3 ADD MSTORE PUSH21 0x141492569157D413D3D317D393D517D4105554D151 PUSH1 0x5A SHL PUSH1 0x44 DUP3 ADD MSTORE PUSH1 0x64 ADD PUSH2 0x407 JUMP JUMPDEST PUSH1 0x1 PUSH1 0x1 PUSH1 0xA0 SHL SUB DUP3 AND PUSH2 0xA5C JUMPI PUSH1 0x40 MLOAD PUSH3 0x461BCD PUSH1 0xE5 SHL DUP2 MSTORE PUSH1 0x20 PUSH1 0x4 DUP3 ADD MSTORE PUSH1 0x11 PUSH1 0x24 DUP3 ADD MSTORE PUSH17 0x1253959053125117D49150D25412515395 PUSH1 0x7A SHL PUSH1 0x44 DUP3 ADD MSTORE PUSH1 0x64 ADD PUSH2 0x407 JUMP JUMPDEST PUSH1 0x0 DUP2 GT PUSH2 0xA7C JUMPI PUSH1 0x40 MLOAD PUSH3 0x461BCD PUSH1 0xE5 SHL DUP2 MSTORE PUSH1 0x4 ADD PUSH2 0x407 SWAP1 PUSH2 0x1396 JUMP JUMPDEST DUP1 SELFBALANCE LT ISZERO PUSH2 0xAC8 JUMPI PUSH1 0x40 MLOAD PUSH3 0x461BCD PUSH1 0xE5 SHL DUP2 MSTORE PUSH1 0x20 PUSH1 0x4 DUP3 ADD MSTORE PUSH1 0x19 PUSH1 0x24 DUP3 ADD MSTORE PUSH25 0x494E53554646494349454E545F504F4F4C5F42414C414E4345 PUSH1 0x38 SHL PUSH1 0x44 DUP3 ADD MSTORE PUSH1 0x64 ADD PUSH2 0x407 JUMP JUMPDEST PUSH1 0x0 DUP3 PUSH1 0x1 PUSH1 0x1 PUSH1 0xA0 SHL SUB AND DUP3 PUSH1 0x40 MLOAD PUSH1 0x0 PUSH1 0x40 MLOAD DUP1 DUP4 SUB DUP2 DUP6 DUP8 GAS CALL SWAP3 POP POP POP RETURNDATASIZE DUP1 PUSH1 0x0 DUP2 EQ PUSH2 0xB15 JUMPI PUSH1 0x40 MLOAD SWAP2 POP PUSH1 0x1F NOT PUSH1 0x3F RETURNDATASIZE ADD AND DUP3 ADD PUSH1 0x40 MSTORE RETURNDATASIZE DUP3 MSTORE RETURNDATASIZE PUSH1 0x0 PUSH1 0x20 DUP5 ADD RETURNDATACOPY PUSH2 0xB1A JUMP JUMPDEST PUSH1 0x60 SWAP2 POP JUMPDEST POP POP SWAP1 POP DUP1 PUSH2 0xB3B JUMPI PUSH1 0x40 MLOAD PUSH3 0x461BCD PUSH1 0xE5 SHL DUP2 MSTORE PUSH1 0x4 ADD PUSH2 0x407 SWAP1 PUSH2 0x13BE JUMP JUMPDEST DUP3 PUSH1 0x1 PUSH1 0x1 PUSH1 0xA0 SHL SUB AND PUSH32 0x667063EDC301BE4BBBE0123CA445E0DED1511A46A4CBA624AE39DFCDA8EDDBC1 DUP4 PUSH1 0x40 MLOAD PUSH2 0xB76 SWAP2 DUP2 MSTORE PUSH1 0x20 ADD SWAP1 JUMP JUMPDEST PUSH1 0x40 MLOAD DUP1 SWAP2 SUB SWAP1 LOG2 POP POP POP JUMP JUMPDEST PUSH1 0x0 SLOAD PUSH1 0x1 PUSH1 0x1 PUSH1 0xA0 SHL SUB AND CALLER EQ PUSH2 0xBAD JUMPI PUSH1 0x40 MLOAD PUSH3 0x461BCD PUSH1 0xE5 SHL DUP2 MSTORE PUSH1 0x4 ADD PUSH2 0x407 SWAP1 PUSH2 0x135C JUMP JUMPDEST PUSH1 0x0 SLOAD PUSH1 0x1 PUSH1 0xA0 SHL SWAP1 DIV PUSH1 0xFF AND PUSH2 0xBFE JUMPI PUSH1 0x40 MLOAD PUSH3 0x461BCD PUSH1 0xE5 SHL DUP2 MSTORE PUSH1 0x20 PUSH1 0x4 DUP3 ADD MSTORE PUSH1 0x15 PUSH1 0x24 DUP3 ADD MSTORE PUSH21 0x141492569157D413D3D317D393D517D4105554D151 PUSH1 0x5A SHL PUSH1 0x44 DUP3 ADD MSTORE PUSH1 0x64 ADD PUSH2 0x407 JUMP JUMPDEST PUSH1 0x1 PUSH1 0x1 PUSH1 0xA0 SHL SUB DUP4 AND PUSH2 0xC44 JUMPI PUSH1 0x40 MLOAD PUSH3 0x461BCD PUSH1 0xE5 SHL DUP2 MSTORE PUSH1 0x20 PUSH1 0x4 DUP3 ADD MSTORE PUSH1 0xD PUSH1 0x24 DUP3 ADD MSTORE PUSH13 0x24A72B20A624A22FAA27A5A2A7 PUSH1 0x99 SHL PUSH1 0x44 DUP3 ADD MSTORE PUSH1 0x64 ADD PUSH2 0x407 JUMP JUMPDEST PUSH1 0x1 PUSH1 0x1 PUSH1 0xA0 SHL SUB DUP3 AND PUSH2 0xC8E JUMPI PUSH1 0x40 MLOAD PUSH3 0x461BCD PUSH1 0xE5 SHL DUP2 MSTORE PUSH1 0x20 PUSH1 0x4 DUP3 ADD MSTORE PUSH1 0x11 PUSH1 0x24 DUP3 ADD MSTORE PUSH17 0x1253959053125117D49150D25412515395 PUSH1 0x7A SHL PUSH1 0x44 DUP3 ADD MSTORE PUSH1 0x64 ADD PUSH2 0x407 JUMP JUMPDEST PUSH1 0x0 DUP2 GT PUSH2 0xCAE JUMPI PUSH1 0x40 MLOAD PUSH3 0x461BCD PUSH1 0xE5 SHL DUP2 MSTORE PUSH1 0x4 ADD PUSH2 0x407 SWAP1 PUSH2 0x1396 JUMP JUMPDEST PUSH1 0x40 MLOAD PUSH4 0xA9059CBB PUSH1 0xE0 SHL DUP2 MSTORE PUSH1 0x1 PUSH1 0x1 PUSH1 0xA0 SHL SUB DUP4 DUP2 AND PUSH1 0x4 DUP4 ADD MSTORE PUSH1 0x24 DUP3 ADD DUP4 SWAP1 MSTORE PUSH1 0x0 SWAP2 SWAP1 DUP6 AND SWAP1 PUSH4 0xA9059CBB SWAP1 PUSH1 0x44 ADD PUSH1 0x20 PUSH1 0x40 MLOAD DUP1 DUP4 SUB DUP2 PUSH1 0x0 DUP8 GAS CALL ISZERO DUP1 ISZERO PUSH2 0xD01 JUMPI RETURNDATASIZE PUSH1 0x0 DUP1 RETURNDATACOPY RETURNDATASIZE PUSH1 0x0 REVERT JUMPDEST POP POP POP POP PUSH1 0x40 MLOAD RETURNDATASIZE PUSH1 0x1F NOT PUSH1 0x1F DUP3 ADD AND DUP3 ADD DUP1 PUSH1 0x40 MSTORE POP DUP2 ADD SWAP1 PUSH2 0xD25 SWAP2 SWAP1 PUSH2 0x13E7 JUMP JUMPDEST SWAP1 POP DUP1 PUSH2 0xD44 JUMPI PUSH1 0x40 MLOAD PUSH3 0x461BCD PUSH1 0xE5 SHL DUP2 MSTORE PUSH1 0x4 ADD PUSH2 0x407 SWAP1 PUSH2 0x13BE JUMP JUMPDEST DUP3 PUSH1 0x1 PUSH1 0x1 PUSH1 0xA0 SHL SUB AND DUP5 PUSH1 0x1 PUSH1 0x1 PUSH1 0xA0 SHL SUB AND PUSH32 0x8BE7B37FBA2E02786D661F3FA9AE0E02D548A6A5F7F47ECDDEFC5C9CB620606B DUP5 PUSH1 0x40 MLOAD PUSH2 0xD89 SWAP2 DUP2 MSTORE PUSH1 0x20 ADD SWAP1 JUMP JUMPDEST PUSH1 0x40 MLOAD DUP1 SWAP2 SUB SWAP1 LOG3 POP POP POP POP JUMP JUMPDEST DUP4 PUSH2 0xDD9 JUMPI PUSH1 0x40 MLOAD PUSH3 0x461BCD PUSH1 0xE5 SHL DUP2 MSTORE PUSH1 0x20 PUSH1 0x4 DUP3 ADD MSTORE PUSH1 0x12 PUSH1 0x24 DUP3 ADD MSTORE PUSH18 0x1253959053125117D513D554939053515395 PUSH1 0x72 SHL PUSH1 0x44 DUP3 ADD MSTORE PUSH1 0x64 ADD PUSH2 0x407 JUMP JUMPDEST DUP3 PUSH2 0xE1A JUMPI PUSH1 0x40 MLOAD PUSH3 0x461BCD PUSH1 0xE5 SHL DUP2 MSTORE PUSH1 0x20 PUSH1 0x4 DUP3 ADD MSTORE PUSH1 0x11 PUSH1 0x24 DUP3 ADD MSTORE PUSH17 0x1253959053125117D4105653D55517D251 PUSH1 0x7A SHL PUSH1 0x44 DUP3 ADD MSTORE PUSH1 0x64 ADD PUSH2 0x407 JUMP JUMPDEST PUSH1 0x0 DUP4 DUP2 MSTORE PUSH1 0x5 PUSH1 0x20 MSTORE PUSH1 0x40 SWAP1 KECCAK256 SLOAD PUSH1 0xFF AND ISZERO PUSH2 0xE6F JUMPI PUSH1 0x40 MLOAD PUSH3 0x461BCD PUSH1 0xE5 SHL DUP2 MSTORE PUSH1 0x20 PUSH1 0x4 DUP3 ADD MSTORE PUSH1 0x13 PUSH1 0x24 DUP3 ADD MSTORE PUSH19 0x14105653D55517D053149150511657D554D151 PUSH1 0x6A SHL PUSH1 0x44 DUP3 ADD MSTORE PUSH1 0x64 ADD PUSH2 0x407 JUMP JUMPDEST PUSH1 0x1 PUSH1 0x1 PUSH1 0xA0 SHL SUB DUP3 AND PUSH2 0xEB6 JUMPI PUSH1 0x40 MLOAD PUSH3 0x461BCD PUSH1 0xE5 SHL DUP2 MSTORE PUSH1 0x20 PUSH1 0x4 DUP3 ADD MSTORE PUSH1 0xE PUSH1 0x24 DUP3 ADD MSTORE PUSH14 0x24A72B20A624A22FABA4A72722A9 PUSH1 0x91 SHL PUSH1 0x44 DUP3 ADD MSTORE PUSH1 0x64 ADD PUSH2 0x407 JUMP JUMPDEST PUSH1 0x0 DUP2 GT PUSH2 0xED6 JUMPI PUSH1 0x40 MLOAD PUSH3 0x461BCD PUSH1 0xE5 SHL DUP2 MSTORE PUSH1 0x4 ADD PUSH2 0x407 SWAP1 PUSH2 0x1396 JUMP JUMPDEST DUP1 SELFBALANCE LT ISZERO PUSH2 0xF22 JUMPI PUSH1 0x40 MLOAD PUSH3 0x461BCD PUSH1 0xE5 SHL DUP2 MSTORE PUSH1 0x20 PUSH1 0x4 DUP3 ADD MSTORE PUSH1 0x19 PUSH1 0x24 DUP3 ADD MSTORE PUSH25 0x494E53554646494349454E545F504F4F4C5F42414C414E4345 PUSH1 0x38 SHL PUSH1 0x44 DUP3 ADD MSTORE PUSH1 0x64 ADD PUSH2 0x407 JUMP JUMPDEST PUSH1 0x0 DUP4 DUP2 MSTORE PUSH1 0x5 PUSH1 0x20 MSTORE PUSH1 0x40 DUP2 KECCAK256 DUP1 SLOAD PUSH1 0xFF NOT AND PUSH1 0x1 SWAP1 DUP2 OR SWAP1 SWAP2 SSTORE DUP1 SLOAD DUP4 SWAP3 SWAP1 PUSH2 0xF4E SWAP1 DUP5 SWAP1 PUSH2 0x1404 JUMP JUMPDEST SWAP1 SWAP2 SSTORE POP POP PUSH1 0x40 DUP1 MLOAD PUSH1 0xA0 DUP2 ADD DUP3 MSTORE DUP5 DUP2 MSTORE PUSH1 0x20 DUP2 ADD DUP7 DUP2 MSTORE PUSH1 0x1 PUSH1 0x1 PUSH1 0xA0 SHL SUB DUP6 DUP2 AND DUP4 DUP6 ADD DUP2 DUP2 MSTORE PUSH1 0x60 DUP6 ADD DUP8 DUP2 MSTORE TIMESTAMP PUSH1 0x80 DUP8 ADD SWAP1 DUP2 MSTORE PUSH1 0x2 DUP1 SLOAD PUSH1 0x1 DUP2 ADD DUP3 SSTORE PUSH1 0x0 SWAP2 DUP3 MSTORE SWAP8 MLOAD PUSH32 0x405787FA12A823E0F2B7631CC41B3BA8828B3321CA811111FA75CD3AA3BB5ACE PUSH1 0x5 SWAP1 SWAP10 MUL SWAP9 DUP10 ADD SSTORE SWAP6 MLOAD PUSH32 0x405787FA12A823E0F2B7631CC41B3BA8828B3321CA811111FA75CD3AA3BB5ACF DUP9 ADD SSTORE SWAP2 MLOAD PUSH32 0x405787FA12A823E0F2B7631CC41B3BA8828B3321CA811111FA75CD3AA3BB5AD0 DUP8 ADD DUP1 SLOAD PUSH1 0x1 PUSH1 0x1 PUSH1 0xA0 SHL SUB NOT AND SWAP2 SWAP1 SWAP6 AND OR SWAP1 SWAP4 SSTORE SWAP2 MLOAD PUSH32 0x405787FA12A823E0F2B7631CC41B3BA8828B3321CA811111FA75CD3AA3BB5AD1 DUP6 ADD SSTORE SWAP1 MLOAD PUSH32 0x405787FA12A823E0F2B7631CC41B3BA8828B3321CA811111FA75CD3AA3BB5AD2 SWAP1 SWAP4 ADD SWAP3 SWAP1 SWAP3 SSTORE SWAP2 MLOAD DUP4 SWAP1 PUSH1 0x0 PUSH1 0x40 MLOAD DUP1 DUP4 SUB DUP2 DUP6 DUP8 GAS CALL SWAP3 POP POP POP RETURNDATASIZE DUP1 PUSH1 0x0 DUP2 EQ PUSH2 0x10B2 JUMPI PUSH1 0x40 MLOAD SWAP2 POP PUSH1 0x1F NOT PUSH1 0x3F RETURNDATASIZE ADD AND DUP3 ADD PUSH1 0x40 MSTORE RETURNDATASIZE DUP3 MSTORE RETURNDATASIZE PUSH1 0x0 PUSH1 0x20 DUP5 ADD RETURNDATACOPY PUSH2 0x10B7 JUMP JUMPDEST PUSH1 0x60 SWAP2 POP JUMPDEST POP POP SWAP1 POP DUP1 PUSH2 0x10D8 JUMPI PUSH1 0x40 MLOAD PUSH3 0x461BCD PUSH1 0xE5 SHL DUP2 MSTORE PUSH1 0x4 ADD PUSH2 0x407 SWAP1 PUSH2 0x13BE JUMP JUMPDEST DUP3 PUSH1 0x1 PUSH1 0x1 PUSH1 0xA0 SHL SUB AND DUP5 DUP7 PUSH32 0xD5FDE774EDACDA90DE4DD019267EA22DB532D23128B5458311063666F1972DEF DUP6 PUSH1 0x40 MLOAD PUSH2 0x1115 SWAP2 DUP2 MSTORE PUSH1 0x20 ADD SWAP1 JUMP JUMPDEST PUSH1 0x40 MLOAD DUP1 SWAP2 SUB SWAP1 LOG4 POP POP POP POP POP JUMP JUMPDEST PUSH1 0x1 PUSH1 0x1 PUSH1 0xA0 SHL SUB DUP2 AND DUP2 EQ PUSH2 0x1139 JUMPI PUSH1 0x0 DUP1 REVERT JUMPDEST POP JUMP JUMPDEST PUSH1 0x0 PUSH1 0x20 DUP3 DUP5 SUB SLT ISZERO PUSH2 0x114E JUMPI PUSH1 0x0 DUP1 REVERT JUMPDEST DUP2 CALLDATALOAD PUSH2 0x1159 DUP2 PUSH2 0x1124 JUMP JUMPDEST SWAP4 SWAP3 POP POP POP JUMP JUMPDEST PUSH1 0x0 PUSH1 0x20 DUP3 DUP5 SUB SLT ISZERO PUSH2 0x1172 JUMPI PUSH1 0x0 DUP1 REVERT JUMPDEST POP CALLDATALOAD SWAP2 SWAP1 POP JUMP JUMPDEST PUSH1 0x0 DUP1 DUP4 PUSH1 0x1F DUP5 ADD SLT PUSH2 0x118B JUMPI PUSH1 0x0 DUP1 REVERT JUMPDEST POP DUP2 CALLDATALOAD PUSH8 0xFFFFFFFFFFFFFFFF DUP2 GT ISZERO PUSH2 0x11A3 JUMPI PUSH1 0x0 DUP1 REVERT JUMPDEST PUSH1 0x20 DUP4 ADD SWAP2 POP DUP4 PUSH1 0x20 DUP3 PUSH1 0x5 SHL DUP6 ADD ADD GT ISZERO PUSH2 0x11BE JUMPI PUSH1 0x0 DUP1 REVERT JUMPDEST SWAP3 POP SWAP3 SWAP1 POP JUMP JUMPDEST PUSH1 0x0 DUP1 PUSH1 0x0 DUP1 PUSH1 0x0 DUP1 PUSH1 0x0 PUSH1 0x80 DUP9 DUP11 SUB SLT ISZERO PUSH2 0x11E0 JUMPI PUSH1 0x0 DUP1 REVERT JUMPDEST DUP8 CALLDATALOAD SWAP7 POP PUSH1 0x20 DUP9 ADD CALLDATALOAD PUSH8 0xFFFFFFFFFFFFFFFF DUP1 DUP3 GT ISZERO PUSH2 0x11FF JUMPI PUSH1 0x0 DUP1 REVERT JUMPDEST PUSH2 0x120B DUP12 DUP4 DUP13 ADD PUSH2 0x1179 JUMP JUMPDEST SWAP1 SWAP9 POP SWAP7 POP PUSH1 0x40 DUP11 ADD CALLDATALOAD SWAP2 POP DUP1 DUP3 GT ISZERO PUSH2 0x1224 JUMPI PUSH1 0x0 DUP1 REVERT JUMPDEST PUSH2 0x1230 DUP12 DUP4 DUP13 ADD PUSH2 0x1179 JUMP JUMPDEST SWAP1 SWAP7 POP SWAP5 POP PUSH1 0x60 DUP11 ADD CALLDATALOAD SWAP2 POP DUP1 DUP3 GT ISZERO PUSH2 0x1249 JUMPI PUSH1 0x0 DUP1 REVERT JUMPDEST POP PUSH2 0x1256 DUP11 DUP3 DUP12 ADD PUSH2 0x1179 JUMP JUMPDEST SWAP9 SWAP12 SWAP8 SWAP11 POP SWAP6 SWAP9 POP SWAP4 SWAP7 SWAP3 SWAP6 SWAP3 SWAP4 POP POP POP JUMP JUMPDEST PUSH1 0x0 DUP1 PUSH1 0x0 DUP1 PUSH1 0x80 DUP6 DUP8 SUB SLT ISZERO PUSH2 0x127F JUMPI PUSH1 0x0 DUP1 REVERT JUMPDEST DUP5 CALLDATALOAD SWAP4 POP PUSH1 0x20 DUP6 ADD CALLDATALOAD SWAP3 POP PUSH1 0x40 DUP6 ADD CALLDATALOAD PUSH2 0x1298 DUP2 PUSH2 0x1124 JUMP JUMPDEST SWAP4 SWAP7 SWAP3 SWAP6 POP SWAP3 SWAP4 PUSH1 0x60 ADD CALLDATALOAD SWAP3 POP POP JUMP JUMPDEST DUP1 ISZERO ISZERO DUP2 EQ PUSH2 0x1139 JUMPI PUSH1 0x0 DUP1 REVERT JUMPDEST PUSH1 0x0 DUP1 PUSH1 0x40 DUP4 DUP6 SUB SLT ISZERO PUSH2 0x12C9 JUMPI PUSH1 0x0 DUP1 REVERT JUMPDEST DUP3 CALLDATALOAD PUSH2 0x12D4 DUP2 PUSH2 0x1124 JUMP JUMPDEST SWAP2 POP PUSH1 0x20 DUP4 ADD CALLDATALOAD PUSH2 0x12E4 DUP2 PUSH2 0x12A8 JUMP JUMPDEST DUP1 SWAP2 POP POP SWAP3 POP SWAP3 SWAP1 POP JUMP JUMPDEST PUSH1 0x0 DUP1 PUSH1 0x40 DUP4 DUP6 SUB SLT ISZERO PUSH2 0x1302 JUMPI PUSH1 0x0 DUP1 REVERT JUMPDEST DUP3 CALLDATALOAD PUSH2 0x130D DUP2 PUSH2 0x1124 JUMP JUMPDEST SWAP5 PUSH1 0x20 SWAP4 SWAP1 SWAP4 ADD CALLDATALOAD SWAP4 POP POP POP JUMP JUMPDEST PUSH1 0x0 DUP1 PUSH1 0x0 PUSH1 0x60 DUP5 DUP7 SUB SLT ISZERO PUSH2 0x1330 JUMPI PUSH1 0x0 DUP1 REVERT JUMPDEST DUP4 CALLDATALOAD PUSH2 0x133B DUP2 PUSH2 0x1124 JUMP JUMPDEST SWAP3 POP PUSH1 0x20 DUP5 ADD CALLDATALOAD PUSH2 0x134B DUP2 PUSH2 0x1124 JUMP JUMPDEST SWAP3 SWAP6 SWAP3 SWAP5 POP POP POP PUSH1 0x40 SWAP2 SWAP1 SWAP2 ADD CALLDATALOAD SWAP1 JUMP JUMPDEST PUSH1 0x20 DUP1 DUP3 MSTORE PUSH1 0xA SWAP1 DUP3 ADD MSTORE PUSH10 0x27A7262CAFA7ABA722A9 PUSH1 0xB1 SHL PUSH1 0x40 DUP3 ADD MSTORE PUSH1 0x60 ADD SWAP1 JUMP JUMPDEST PUSH4 0x4E487B71 PUSH1 0xE0 SHL PUSH1 0x0 MSTORE PUSH1 0x32 PUSH1 0x4 MSTORE PUSH1 0x24 PUSH1 0x0 REVERT JUMPDEST PUSH1 0x20 DUP1 DUP3 MSTORE PUSH1 0xE SWAP1 DUP3 ADD MSTORE PUSH14 0x1253959053125117D05353D55395 PUSH1 0x92 SHL PUSH1 0x40 DUP3 ADD MSTORE PUSH1 0x60 ADD SWAP1 JUMP JUMPDEST PUSH1 0x20 DUP1 DUP3 MSTORE PUSH1 0xF SWAP1 DUP3 ADD MSTORE PUSH15 0x1514905394D1915497D19052531151 PUSH1 0x8A SHL PUSH1 0x40 DUP3 ADD MSTORE PUSH1 0x60 ADD SWAP1 JUMP JUMPDEST PUSH1 0x0 PUSH1 0x20 DUP3 DUP5 SUB SLT ISZERO PUSH2 0x13F9 JUMPI PUSH1 0x0 DUP1 REVERT JUMPDEST DUP2 MLOAD PUSH2 0x1159 DUP2 PUSH2 0x12A8 JUMP JUMPDEST DUP1 DUP3 ADD DUP1 DUP3 GT ISZERO PUSH2 0x1425 JUMPI PUSH4 0x4E487B71 PUSH1 0xE0 SHL PUSH1 0x0 MSTORE PUSH1 0x11 PUSH1 0x4 MSTORE PUSH1 0x24 PUSH1 0x0 REVERT JUMPDEST SWAP3 SWAP2 POP POP JUMP INVALID LOG2 PUSH5 0x6970667358 0x22 SLT KECCAK256 DUP13 SAR 0xF9 SELFDESTRUCT PUSH17 0xE326216BBA0B160CDFA8076B666360C0BE ISZERO 0xE6 CALLDATACOPY DUP8 ADDMOD PUSH29 0xFE941ECF64736F6C634300081800330000000000000000000000000000 "},"methodIdentifiers":{"emergencyWithdrawNative(address,uint256)":"9b788504","emergencyWithdrawUnexpectedToken(address,address,uint256)":"d1f90376","getPayoutCount()":"4083c32a","owner()":"8da5cb5b","pause()":"8456cb59","paused()":"5c975abb","pausers(address)":"80f51c12","payTournamentPrize(bytes32,bytes32,address,uint256)":"3d06711d","payTournamentPrizes(bytes32,bytes32[],address[],uint256[])":"34102714","payoutOperators(address)":"b9804943","payouts(uint256)":"29652e86","setOwner(address)":"13af4035","setPauser(address,bool)":"7180c8ca","setPayoutOperator(address,bool)":"8823c3f6","totalPaid()":"e7b0f666","unpause()":"3f4ba83a","usedPayoutIds(bytes32)":"1849d2a1"}}}}}