{"contracts/BurnRouter.sol":{"BurnRouter":{"abi":[{"inputs":[{"internalType":"address","name":"initialOwner","type":"address"},{"internalType":"address","name":"tokenAddress","type":"address"},{"internalType":"address","name":"initialTreasuryAccount","type":"address"}],"stateMutability":"nonpayable","type":"constructor"},{"anonymous":false,"inputs":[{"indexed":true,"internalType":"bytes32","name":"actionId","type":"bytes32"},{"indexed":true,"internalType":"uint8","name":"actionType","type":"uint8"},{"indexed":true,"internalType":"address","name":"user","type":"address"},{"indexed":false,"internalType":"address","name":"treasuryAccount","type":"address"},{"indexed":false,"internalType":"uint256","name":"amount","type":"uint256"},{"indexed":false,"internalType":"string","name":"referenceId","type":"string"},{"indexed":false,"internalType":"bytes32","name":"metadataHash","type":"bytes32"}],"name":"BurnExecuted","type":"event"},{"anonymous":false,"inputs":[{"indexed":true,"internalType":"address","name":"account","type":"address"},{"indexed":false,"internalType":"bool","name":"allowed","type":"bool"}],"name":"OperatorUpdated","type":"event"},{"anonymous":false,"inputs":[{"indexed":true,"internalType":"address","name":"previousOwner","type":"address"},{"indexed":true,"internalType":"address","name":"newOwner","type":"address"}],"name":"OwnerUpdated","type":"event"},{"anonymous":false,"inputs":[{"indexed":true,"internalType":"address","name":"account","type":"address"}],"name":"Paused","type":"event"},{"anonymous":false,"inputs":[{"indexed":true,"internalType":"address","name":"account","type":"address"},{"indexed":false,"internalType":"bool","name":"allowed","type":"bool"}],"name":"PauserUpdated","type":"event"},{"anonymous":false,"inputs":[{"indexed":true,"internalType":"address","name":"previousTreasuryAccount","type":"address"},{"indexed":true,"internalType":"address","name":"newTreasuryAccount","type":"address"}],"name":"TreasuryAccountUpdated","type":"event"},{"anonymous":false,"inputs":[{"indexed":true,"internalType":"address","name":"account","type":"address"}],"name":"Unpaused","type":"event"},{"inputs":[{"internalType":"uint256","name":"","type":"uint256"}],"name":"burnActions","outputs":[{"internalType":"bytes32","name":"actionId","type":"bytes32"},{"internalType":"enum BurnRouter.ActionType","name":"actionType","type":"uint8"},{"internalType":"address","name":"user","type":"address"},{"internalType":"address","name":"treasuryAccount","type":"address"},{"internalType":"uint256","name":"amount","type":"uint256"},{"internalType":"string","name":"referenceId","type":"string"},{"internalType":"bytes32","name":"metadataHash","type":"bytes32"},{"internalType":"uint256","name":"burnedAt","type":"uint256"}],"stateMutability":"view","type":"function"},{"inputs":[{"internalType":"bytes32","name":"actionId","type":"bytes32"},{"internalType":"address","name":"user","type":"address"},{"internalType":"uint256","name":"amount","type":"uint256"},{"internalType":"string","name":"referenceId","type":"string"},{"internalType":"bytes32","name":"metadataHash","type":"bytes32"}],"name":"burnForCashGameRake","outputs":[],"stateMutability":"nonpayable","type":"function"},{"inputs":[{"internalType":"bytes32","name":"actionId","type":"bytes32"},{"internalType":"address","name":"user","type":"address"},{"internalType":"uint256","name":"amount","type":"uint256"},{"internalType":"string","name":"referenceId","type":"string"},{"internalType":"bytes32","name":"metadataHash","type":"bytes32"}],"name":"burnForRoomCreation","outputs":[],"stateMutability":"nonpayable","type":"function"},{"inputs":[{"internalType":"bytes32","name":"actionId","type":"bytes32"},{"internalType":"address","name":"user","type":"address"},{"internalType":"uint256","name":"amount","type":"uint256"},{"internalType":"string","name":"referenceId","type":"string"},{"internalType":"bytes32","name":"metadataHash","type":"bytes32"}],"name":"burnForTournament","outputs":[],"stateMutability":"nonpayable","type":"function"},{"inputs":[{"internalType":"bytes32","name":"actionId","type":"bytes32"},{"internalType":"address","name":"user","type":"address"},{"internalType":"uint256","name":"amount","type":"uint256"},{"internalType":"string","name":"referenceId","type":"string"},{"internalType":"bytes32","name":"metadataHash","type":"bytes32"}],"name":"burnManual","outputs":[],"stateMutability":"nonpayable","type":"function"},{"inputs":[],"name":"getBurnActionCount","outputs":[{"internalType":"uint256","name":"","type":"uint256"}],"stateMutability":"view","type":"function"},{"inputs":[{"internalType":"address","name":"","type":"address"}],"name":"operators","outputs":[{"internalType":"bool","name":"","type":"bool"}],"stateMutability":"view","type":"function"},{"inputs":[],"name":"owner","outputs":[{"internalType":"address","name":"","type":"address"}],"stateMutability":"view","type":"function"},{"inputs":[],"name":"pause","outputs":[],"stateMutability":"nonpayable","type":"function"},{"inputs":[],"name":"paused","outputs":[{"internalType":"bool","name":"","type":"bool"}],"stateMutability":"view","type":"function"},{"inputs":[{"internalType":"address","name":"","type":"address"}],"name":"pausers","outputs":[{"internalType":"bool","name":"","type":"bool"}],"stateMutability":"view","type":"function"},{"inputs":[{"internalType":"bytes32","name":"","type":"bytes32"}],"name":"processedActionIds","outputs":[{"internalType":"bool","name":"","type":"bool"}],"stateMutability":"view","type":"function"},{"inputs":[{"internalType":"address","name":"account","type":"address"},{"internalType":"bool","name":"allowed","type":"bool"}],"name":"setOperator","outputs":[],"stateMutability":"nonpayable","type":"function"},{"inputs":[{"internalType":"address","name":"newOwner","type":"address"}],"name":"setOwner","outputs":[],"stateMutability":"nonpayable","type":"function"},{"inputs":[{"internalType":"address","name":"account","type":"address"},{"internalType":"bool","name":"allowed","type":"bool"}],"name":"setPauser","outputs":[],"stateMutability":"nonpayable","type":"function"},{"inputs":[{"internalType":"address","name":"newTreasuryAccount","type":"address"}],"name":"setTreasuryAccount","outputs":[],"stateMutability":"nonpayable","type":"function"},{"inputs":[],"name":"token","outputs":[{"internalType":"contract IAllinBurnRouterToken","name":"","type":"address"}],"stateMutability":"view","type":"function"},{"inputs":[],"name":"treasuryAccount","outputs":[{"internalType":"address","name":"","type":"address"}],"stateMutability":"view","type":"function"},{"inputs":[],"name":"unpause","outputs":[],"stateMutability":"nonpayable","type":"function"}],"evm":{"bytecode":{"linkReferences":{},"object":"60a06040523480156200001157600080fd5b506040516200145a3803806200145a83398101604081905262000034916200020a565b6001600160a01b038316620000805760405162461bcd60e51b815260206004820152600d60248201526c24a72b20a624a22fa7aba722a960991b60448201526064015b60405180910390fd5b6001600160a01b038216620000c85760405162461bcd60e51b815260206004820152600d60248201526c24a72b20a624a22faa27a5a2a760991b604482015260640162000077565b6001600160a01b038116620001135760405162461bcd60e51b815260206004820152601060248201526f494e56414c49445f545245415355525960801b604482015260640162000077565b600080546001600160a01b03199081166001600160a01b03868116918217845585811660805260018054909316908516178255808352600360209081526040808520805460ff1990811686179091556004835294819020805490951684179094559251918252917f966c160e1c4dbc7df8d69af4ace01e9297c3cf016397b7914971f2fbfa32672d910160405180910390a2604051600181526001600160a01b038416907f902923dcd4814f6cef7005a70e01d5cf2035ab02d4523ef3b865f1d7bab885af9060200160405180910390a250505062000254565b80516001600160a01b03811681146200020557600080fd5b919050565b6000806000606084860312156200022057600080fd5b6200022b84620001ed565b92506200023b60208501620001ed565b91506200024b60408501620001ed565b90509250925092565b6080516111e362000277600039600081816102dd0152610b4401526111e36000f3fe608060405234801561001057600080fd5b50600436106101215760003560e01c80637180c8ca116100ad578063b9161d5c11610071578063b9161d5c1461028e578063bd7b60f81461029f578063c3e9964e146102b2578063d886f8a2146102c5578063fc0c546a146102d857600080fd5b80637180c8ca1461021657806380f51c12146102295780638456cb591461024c5780638da5cb5b14610254578063b1f279e61461026757600080fd5b8063441964d1116100f4578063441964d1146101a6578063558a7297146101b9578063560f225c146101cc5780635c975abb146101ef5780635dedb22d1461020357600080fd5b806313af40351461012657806313e7c9d81461013b578063339b2cff146101735780633f4ba83a1461019e575b600080fd5b610139610134366004610da6565b6102ff565b005b61015e610149366004610da6565b60036020526000908152604090205460ff1681565b60405190151581526020015b60405180910390f35b600154610186906001600160a01b031681565b6040516001600160a01b03909116815260200161016a565b6101396103d3565b6101396101b4366004610dc8565b61046f565b6101396101c7366004610e67565b6104f5565b61015e6101da366004610ea3565b60056020526000908152604090205460ff1681565b60015461015e90600160a01b900460ff1681565b610139610211366004610dc8565b61057f565b610139610224366004610e67565b6105fd565b61015e610237366004610da6565b60046020526000908152604090205460ff1681565b61013961067f565b600054610186906001600160a01b031681565b61027a610275366004610ea3565b610721565b60405161016a989796959493929190610ed2565b60025460405190815260200161016a565b6101396102ad366004610dc8565b61080f565b6101396102c0366004610dc8565b61088d565b6101396102d3366004610da6565b61090b565b6101867f000000000000000000000000000000000000000000000000000000000000000081565b6000546001600160a01b031633146103325760405162461bcd60e51b815260040161032990610f87565b60405180910390fd5b6001600160a01b0381166103785760405162461bcd60e51b815260206004820152600d60248201526c24a72b20a624a22fa7aba722a960991b6044820152606401610329565b600080546040516001600160a01b03808516939216917f8292fce18fa69edf4db7b94ea2e58241df0ae57f97e0a6c9b29067028bf92d7691a3600080546001600160a01b0319166001600160a01b0392909216919091179055565b6000546001600160a01b03163314806103fb57503360009081526004602052604090205460ff165b6104355760405162461bcd60e51b815260206004820152600b60248201526a27a7262cafa820aaa9a2a960a91b6044820152606401610329565b6001805460ff60a01b1916905560405133907f5db9ee0a495bf2e6ff9c91a7834c1ba4fdd244a5e8aa4e537bd38aeae4b073aa90600090a2565b6000546001600160a01b031633148061049757503360009081526003602052604090205460ff165b6104b35760405162461bcd60e51b815260040161032990610fab565b600154600160a01b900460ff16156104dd5760405162461bcd60e51b815260040161032990610fd2565b6104ed86600487878787876109da565b505050505050565b6000546001600160a01b0316331461051f5760405162461bcd60e51b815260040161032990610f87565b6001600160a01b038216600081815260036020908152604091829020805460ff191685151590811790915591519182527f966c160e1c4dbc7df8d69af4ace01e9297c3cf016397b7914971f2fbfa32672d91015b60405180910390a25050565b6000546001600160a01b03163314806105a757503360009081526003602052604090205460ff165b6105c35760405162461bcd60e51b815260040161032990610fab565b600154600160a01b900460ff16156105ed5760405162461bcd60e51b815260040161032990610fd2565b6104ed86600287878787876109da565b6000546001600160a01b031633146106275760405162461bcd60e51b815260040161032990610f87565b6001600160a01b038216600081815260046020908152604091829020805460ff191685151590811790915591519182527f902923dcd4814f6cef7005a70e01d5cf2035ab02d4523ef3b865f1d7bab885af9101610573565b6000546001600160a01b03163314806106a757503360009081526004602052604090205460ff165b6106e15760405162461bcd60e51b815260206004820152600b60248201526a27a7262cafa820aaa9a2a960a91b6044820152606401610329565b6001805460ff60a01b1916600160a01b17905560405133907f62e78cea01bee320cd4e420270b5ea74000d11b0c9f74754ebdbfc544b05a25890600090a2565b6002818154811061073157600080fd5b60009182526020909120600790910201805460018201546002830154600384015460048501805494965060ff8416956101009094046001600160a01b0390811695931693919261078090610ffe565b80601f01602080910402602001604051908101604052809291908181526020018280546107ac90610ffe565b80156107f95780601f106107ce576101008083540402835291602001916107f9565b820191906000526020600020905b8154815290600101906020018083116107dc57829003601f168201915b5050505050908060050154908060060154905088565b6000546001600160a01b031633148061083757503360009081526003602052604090205460ff165b6108535760405162461bcd60e51b815260040161032990610fab565b600154600160a01b900460ff161561087d5760405162461bcd60e51b815260040161032990610fd2565b6104ed86600187878787876109da565b6000546001600160a01b03163314806108b557503360009081526003602052604090205460ff165b6108d15760405162461bcd60e51b815260040161032990610fab565b600154600160a01b900460ff16156108fb5760405162461bcd60e51b815260040161032990610fd2565b6104ed86600387878787876109da565b6000546001600160a01b031633146109355760405162461bcd60e51b815260040161032990610f87565b6001600160a01b03811661097e5760405162461bcd60e51b815260206004820152601060248201526f494e56414c49445f545245415355525960801b6044820152606401610329565b6001546040516001600160a01b038084169216907f9a68ef8689693fdd2712b4606b85dbb4b618147eeca950a2fc5dd731a7f8ae9490600090a3600180546001600160a01b0319166001600160a01b0392909216919091179055565b86610a1b5760405162461bcd60e51b81526020600482015260116024820152701253959053125117d050d51253d397d251607a1b6044820152606401610329565b60008781526005602052604090205460ff1615610a7a5760405162461bcd60e51b815260206004820152601860248201527f414354494f4e5f414c52454144595f50524f43455353454400000000000000006044820152606401610329565b6001600160a01b038516610abf5760405162461bcd60e51b815260206004820152600c60248201526b24a72b20a624a22faaa9a2a960a11b6044820152606401610329565b60008411610b005760405162461bcd60e51b815260206004820152600e60248201526d1253959053125117d05353d5539560921b6044820152606401610329565b60008781526005602052604090819020805460ff19166001908117909155549051630e41dd2560e11b81526001600160a01b039182166004820152602481018690527f000000000000000000000000000000000000000000000000000000000000000090911690631c83ba4a90604401600060405180830381600087803b158015610b8a57600080fd5b505af1158015610b9e573d6000803e3d6000fd5b505050506002604051806101000160405280898152602001886004811115610bc857610bc8610ebc565b8152602001876001600160a01b03168152602001600160009054906101000a90046001600160a01b03166001600160a01b0316815260200186815260200185858080601f0160208091040260200160405190810160405280939291908181526020018383808284376000920182905250938552505050602080830186905242604090930192909252835460018181018655948252908290208351600790920201908155908201518184018054939492939192909160ff191690836004811115610c9357610c93610ebc565b02179055506040820151600182018054610100600160a81b0319166101006001600160a01b039384160217905560608301516002830180546001600160a01b031916919092161790556080820151600382015560a08201516004820190610cfa908261109b565b5060c0820151816005015560e082015181600601555050846001600160a01b0316866004811115610d2d57610d2d610ebc565b60015460405160ff92909216918a917f9103e6b776b05dbe20c7e0b4a448db549274f10b83e9defc391daad25704846a91610d79916001600160a01b0316908a908a908a908a9061115b565b60405180910390a450505050505050565b80356001600160a01b0381168114610da157600080fd5b919050565b600060208284031215610db857600080fd5b610dc182610d8a565b9392505050565b60008060008060008060a08789031215610de157600080fd5b86359550610df160208801610d8a565b945060408701359350606087013567ffffffffffffffff80821115610e1557600080fd5b818901915089601f830112610e2957600080fd5b813581811115610e3857600080fd5b8a6020828501011115610e4a57600080fd5b602083019550809450505050608087013590509295509295509295565b60008060408385031215610e7a57600080fd5b610e8383610d8a565b915060208301358015158114610e9857600080fd5b809150509250929050565b600060208284031215610eb557600080fd5b5035919050565b634e487b7160e01b600052602160045260246000fd5b60006101008a8352602060058b10610efa57634e487b7160e01b600052602160045260246000fd5b602084018b90526001600160a01b038a81166040860152891660608501526080840188905260a0840182905286519184018290526000915b80831015610f5157878301820151858401610120015291810191610f32565b600061012082870181019190915260c086019790975260e0850195909552505050601f909101601f191601019695505050505050565b6020808252600a908201526927a7262cafa7aba722a960b11b604082015260600190565b6020808252600d908201526c27a7262cafa7a822a920aa27a960991b604082015260600190565b6020808252601290820152711095549397d493d555115497d4105554d15160721b604082015260600190565b600181811c9082168061101257607f821691505b60208210810361103257634e487b7160e01b600052602260045260246000fd5b50919050565b634e487b7160e01b600052604160045260246000fd5b601f821115611096576000816000526020600020601f850160051c810160208610156110775750805b601f850160051c820191505b818110156104ed57828155600101611083565b505050565b815167ffffffffffffffff8111156110b5576110b5611038565b6110c9816110c38454610ffe565b8461104e565b602080601f8311600181146110fe57600084156110e65750858301515b600019600386901b1c1916600185901b1785556104ed565b600085815260208120601f198616915b8281101561112d5788860151825594840194600190910190840161110e565b508582101561114b5787850151600019600388901b60f8161c191681555b5050505050600190811b01905550565b6001600160a01b0386168152602081018590526080604082018190528101839052828460a0830137600060a08483010152600060a0601f19601f8601168301019050826060830152969550505050505056fea264697066735822122024071b92fcb71a6e48e631bd223d9aab0183a9a6fdf967248c21f8509f1c23c464736f6c63430008180033","opcodes":"PUSH1 0xA0 PUSH1 0x40 MSTORE CALLVALUE DUP1 ISZERO PUSH3 0x11 JUMPI PUSH1 0x0 DUP1 REVERT JUMPDEST POP PUSH1 0x40 MLOAD PUSH3 0x145A CODESIZE SUB DUP1 PUSH3 0x145A DUP4 CODECOPY DUP2 ADD PUSH1 0x40 DUP2 SWAP1 MSTORE PUSH3 0x34 SWAP2 PUSH3 0x20A JUMP JUMPDEST PUSH1 0x1 PUSH1 0x1 PUSH1 0xA0 SHL SUB DUP4 AND PUSH3 0x80 JUMPI PUSH1 0x40 MLOAD PUSH3 0x461BCD PUSH1 0xE5 SHL DUP2 MSTORE PUSH1 0x20 PUSH1 0x4 DUP3 ADD MSTORE PUSH1 0xD PUSH1 0x24 DUP3 ADD MSTORE PUSH13 0x24A72B20A624A22FA7ABA722A9 PUSH1 0x99 SHL PUSH1 0x44 DUP3 ADD MSTORE PUSH1 0x64 ADD JUMPDEST PUSH1 0x40 MLOAD DUP1 SWAP2 SUB SWAP1 REVERT JUMPDEST PUSH1 0x1 PUSH1 0x1 PUSH1 0xA0 SHL SUB DUP3 AND PUSH3 0xC8 JUMPI PUSH1 0x40 MLOAD PUSH3 0x461BCD PUSH1 0xE5 SHL DUP2 MSTORE PUSH1 0x20 PUSH1 0x4 DUP3 ADD MSTORE PUSH1 0xD PUSH1 0x24 DUP3 ADD MSTORE PUSH13 0x24A72B20A624A22FAA27A5A2A7 PUSH1 0x99 SHL PUSH1 0x44 DUP3 ADD MSTORE PUSH1 0x64 ADD PUSH3 0x77 JUMP JUMPDEST PUSH1 0x1 PUSH1 0x1 PUSH1 0xA0 SHL SUB DUP2 AND PUSH3 0x113 JUMPI PUSH1 0x40 MLOAD PUSH3 0x461BCD PUSH1 0xE5 SHL DUP2 MSTORE PUSH1 0x20 PUSH1 0x4 DUP3 ADD MSTORE PUSH1 0x10 PUSH1 0x24 DUP3 ADD MSTORE PUSH16 0x494E56414C49445F5452454153555259 PUSH1 0x80 SHL PUSH1 0x44 DUP3 ADD MSTORE PUSH1 0x64 ADD PUSH3 0x77 JUMP JUMPDEST PUSH1 0x0 DUP1 SLOAD PUSH1 0x1 PUSH1 0x1 PUSH1 0xA0 SHL SUB NOT SWAP1 DUP2 AND PUSH1 0x1 PUSH1 0x1 PUSH1 0xA0 SHL SUB DUP7 DUP2 AND SWAP2 DUP3 OR DUP5 SSTORE DUP6 DUP2 AND PUSH1 0x80 MSTORE PUSH1 0x1 DUP1 SLOAD SWAP1 SWAP4 AND SWAP1 DUP6 AND OR DUP3 SSTORE DUP1 DUP4 MSTORE PUSH1 0x3 PUSH1 0x20 SWAP1 DUP2 MSTORE PUSH1 0x40 DUP1 DUP6 KECCAK256 DUP1 SLOAD PUSH1 0xFF NOT SWAP1 DUP2 AND DUP7 OR SWAP1 SWAP2 SSTORE PUSH1 0x4 DUP4 MSTORE SWAP5 DUP2 SWAP1 KECCAK256 DUP1 SLOAD SWAP1 SWAP6 AND DUP5 OR SWAP1 SWAP5 SSTORE SWAP3 MLOAD SWAP2 DUP3 MSTORE SWAP2 PUSH32 0x966C160E1C4DBC7DF8D69AF4ACE01E9297C3CF016397B7914971F2FBFA32672D SWAP2 ADD PUSH1 0x40 MLOAD DUP1 SWAP2 SUB SWAP1 LOG2 PUSH1 0x40 MLOAD PUSH1 0x1 DUP2 MSTORE PUSH1 0x1 PUSH1 0x1 PUSH1 0xA0 SHL SUB DUP5 AND SWAP1 PUSH32 0x902923DCD4814F6CEF7005A70E01D5CF2035AB02D4523EF3B865F1D7BAB885AF SWAP1 PUSH1 0x20 ADD PUSH1 0x40 MLOAD DUP1 SWAP2 SUB SWAP1 LOG2 POP POP POP PUSH3 0x254 JUMP JUMPDEST DUP1 MLOAD PUSH1 0x1 PUSH1 0x1 PUSH1 0xA0 SHL SUB DUP2 AND DUP2 EQ PUSH3 0x205 JUMPI PUSH1 0x0 DUP1 REVERT JUMPDEST SWAP2 SWAP1 POP JUMP JUMPDEST PUSH1 0x0 DUP1 PUSH1 0x0 PUSH1 0x60 DUP5 DUP7 SUB SLT ISZERO PUSH3 0x220 JUMPI PUSH1 0x0 DUP1 REVERT JUMPDEST PUSH3 0x22B DUP5 PUSH3 0x1ED JUMP JUMPDEST SWAP3 POP PUSH3 0x23B PUSH1 0x20 DUP6 ADD PUSH3 0x1ED JUMP JUMPDEST SWAP2 POP PUSH3 0x24B PUSH1 0x40 DUP6 ADD PUSH3 0x1ED JUMP JUMPDEST SWAP1 POP SWAP3 POP SWAP3 POP SWAP3 JUMP JUMPDEST PUSH1 0x80 MLOAD PUSH2 0x11E3 PUSH3 0x277 PUSH1 0x0 CODECOPY PUSH1 0x0 DUP2 DUP2 PUSH2 0x2DD ADD MSTORE PUSH2 0xB44 ADD MSTORE PUSH2 0x11E3 PUSH1 0x0 RETURN INVALID PUSH1 0x80 PUSH1 0x40 MSTORE CALLVALUE DUP1 ISZERO PUSH2 0x10 JUMPI PUSH1 0x0 DUP1 REVERT JUMPDEST POP PUSH1 0x4 CALLDATASIZE LT PUSH2 0x121 JUMPI PUSH1 0x0 CALLDATALOAD PUSH1 0xE0 SHR DUP1 PUSH4 0x7180C8CA GT PUSH2 0xAD JUMPI DUP1 PUSH4 0xB9161D5C GT PUSH2 0x71 JUMPI DUP1 PUSH4 0xB9161D5C EQ PUSH2 0x28E JUMPI DUP1 PUSH4 0xBD7B60F8 EQ PUSH2 0x29F JUMPI DUP1 PUSH4 0xC3E9964E EQ PUSH2 0x2B2 JUMPI DUP1 PUSH4 0xD886F8A2 EQ PUSH2 0x2C5 JUMPI DUP1 PUSH4 0xFC0C546A EQ PUSH2 0x2D8 JUMPI PUSH1 0x0 DUP1 REVERT JUMPDEST DUP1 PUSH4 0x7180C8CA EQ PUSH2 0x216 JUMPI DUP1 PUSH4 0x80F51C12 EQ PUSH2 0x229 JUMPI DUP1 PUSH4 0x8456CB59 EQ PUSH2 0x24C JUMPI DUP1 PUSH4 0x8DA5CB5B EQ PUSH2 0x254 JUMPI DUP1 PUSH4 0xB1F279E6 EQ PUSH2 0x267 JUMPI PUSH1 0x0 DUP1 REVERT JUMPDEST DUP1 PUSH4 0x441964D1 GT PUSH2 0xF4 JUMPI DUP1 PUSH4 0x441964D1 EQ PUSH2 0x1A6 JUMPI DUP1 PUSH4 0x558A7297 EQ PUSH2 0x1B9 JUMPI DUP1 PUSH4 0x560F225C EQ PUSH2 0x1CC JUMPI DUP1 PUSH4 0x5C975ABB EQ PUSH2 0x1EF JUMPI DUP1 PUSH4 0x5DEDB22D EQ PUSH2 0x203 JUMPI PUSH1 0x0 DUP1 REVERT JUMPDEST DUP1 PUSH4 0x13AF4035 EQ PUSH2 0x126 JUMPI DUP1 PUSH4 0x13E7C9D8 EQ PUSH2 0x13B JUMPI DUP1 PUSH4 0x339B2CFF EQ PUSH2 0x173 JUMPI DUP1 PUSH4 0x3F4BA83A EQ PUSH2 0x19E JUMPI JUMPDEST PUSH1 0x0 DUP1 REVERT JUMPDEST PUSH2 0x139 PUSH2 0x134 CALLDATASIZE PUSH1 0x4 PUSH2 0xDA6 JUMP JUMPDEST PUSH2 0x2FF JUMP JUMPDEST STOP JUMPDEST PUSH2 0x15E PUSH2 0x149 CALLDATASIZE PUSH1 0x4 PUSH2 0xDA6 JUMP JUMPDEST PUSH1 0x3 PUSH1 0x20 MSTORE PUSH1 0x0 SWAP1 DUP2 MSTORE PUSH1 0x40 SWAP1 KECCAK256 SLOAD PUSH1 0xFF AND DUP2 JUMP JUMPDEST PUSH1 0x40 MLOAD SWAP1 ISZERO ISZERO DUP2 MSTORE PUSH1 0x20 ADD JUMPDEST PUSH1 0x40 MLOAD DUP1 SWAP2 SUB SWAP1 RETURN JUMPDEST PUSH1 0x1 SLOAD PUSH2 0x186 SWAP1 PUSH1 0x1 PUSH1 0x1 PUSH1 0xA0 SHL SUB AND DUP2 JUMP JUMPDEST PUSH1 0x40 MLOAD PUSH1 0x1 PUSH1 0x1 PUSH1 0xA0 SHL SUB SWAP1 SWAP2 AND DUP2 MSTORE PUSH1 0x20 ADD PUSH2 0x16A JUMP JUMPDEST PUSH2 0x139 PUSH2 0x3D3 JUMP JUMPDEST PUSH2 0x139 PUSH2 0x1B4 CALLDATASIZE PUSH1 0x4 PUSH2 0xDC8 JUMP JUMPDEST PUSH2 0x46F JUMP JUMPDEST PUSH2 0x139 PUSH2 0x1C7 CALLDATASIZE PUSH1 0x4 PUSH2 0xE67 JUMP JUMPDEST PUSH2 0x4F5 JUMP JUMPDEST PUSH2 0x15E PUSH2 0x1DA CALLDATASIZE PUSH1 0x4 PUSH2 0xEA3 JUMP JUMPDEST PUSH1 0x5 PUSH1 0x20 MSTORE PUSH1 0x0 SWAP1 DUP2 MSTORE PUSH1 0x40 SWAP1 KECCAK256 SLOAD PUSH1 0xFF AND DUP2 JUMP JUMPDEST PUSH1 0x1 SLOAD PUSH2 0x15E SWAP1 PUSH1 0x1 PUSH1 0xA0 SHL SWAP1 DIV PUSH1 0xFF AND DUP2 JUMP JUMPDEST PUSH2 0x139 PUSH2 0x211 CALLDATASIZE PUSH1 0x4 PUSH2 0xDC8 JUMP JUMPDEST PUSH2 0x57F JUMP JUMPDEST PUSH2 0x139 PUSH2 0x224 CALLDATASIZE PUSH1 0x4 PUSH2 0xE67 JUMP JUMPDEST PUSH2 0x5FD JUMP JUMPDEST PUSH2 0x15E PUSH2 0x237 CALLDATASIZE PUSH1 0x4 PUSH2 0xDA6 JUMP JUMPDEST PUSH1 0x4 PUSH1 0x20 MSTORE PUSH1 0x0 SWAP1 DUP2 MSTORE PUSH1 0x40 SWAP1 KECCAK256 SLOAD PUSH1 0xFF AND DUP2 JUMP JUMPDEST PUSH2 0x139 PUSH2 0x67F JUMP JUMPDEST PUSH1 0x0 SLOAD PUSH2 0x186 SWAP1 PUSH1 0x1 PUSH1 0x1 PUSH1 0xA0 SHL SUB AND DUP2 JUMP JUMPDEST PUSH2 0x27A PUSH2 0x275 CALLDATASIZE PUSH1 0x4 PUSH2 0xEA3 JUMP JUMPDEST PUSH2 0x721 JUMP JUMPDEST PUSH1 0x40 MLOAD PUSH2 0x16A SWAP9 SWAP8 SWAP7 SWAP6 SWAP5 SWAP4 SWAP3 SWAP2 SWAP1 PUSH2 0xED2 JUMP JUMPDEST PUSH1 0x2 SLOAD PUSH1 0x40 MLOAD SWAP1 DUP2 MSTORE PUSH1 0x20 ADD PUSH2 0x16A JUMP JUMPDEST PUSH2 0x139 PUSH2 0x2AD CALLDATASIZE PUSH1 0x4 PUSH2 0xDC8 JUMP JUMPDEST PUSH2 0x80F JUMP JUMPDEST PUSH2 0x139 PUSH2 0x2C0 CALLDATASIZE PUSH1 0x4 PUSH2 0xDC8 JUMP JUMPDEST PUSH2 0x88D JUMP JUMPDEST PUSH2 0x139 PUSH2 0x2D3 CALLDATASIZE PUSH1 0x4 PUSH2 0xDA6 JUMP JUMPDEST PUSH2 0x90B JUMP JUMPDEST PUSH2 0x186 PUSH32 0x0 DUP2 JUMP JUMPDEST PUSH1 0x0 SLOAD PUSH1 0x1 PUSH1 0x1 PUSH1 0xA0 SHL SUB AND CALLER EQ PUSH2 0x332 JUMPI PUSH1 0x40 MLOAD PUSH3 0x461BCD PUSH1 0xE5 SHL DUP2 MSTORE PUSH1 0x4 ADD PUSH2 0x329 SWAP1 PUSH2 0xF87 JUMP JUMPDEST PUSH1 0x40 MLOAD DUP1 SWAP2 SUB SWAP1 REVERT JUMPDEST PUSH1 0x1 PUSH1 0x1 PUSH1 0xA0 SHL SUB DUP2 AND PUSH2 0x378 JUMPI PUSH1 0x40 MLOAD PUSH3 0x461BCD PUSH1 0xE5 SHL DUP2 MSTORE PUSH1 0x20 PUSH1 0x4 DUP3 ADD MSTORE PUSH1 0xD PUSH1 0x24 DUP3 ADD MSTORE PUSH13 0x24A72B20A624A22FA7ABA722A9 PUSH1 0x99 SHL PUSH1 0x44 DUP3 ADD MSTORE PUSH1 0x64 ADD PUSH2 0x329 JUMP JUMPDEST PUSH1 0x0 DUP1 SLOAD PUSH1 0x40 MLOAD PUSH1 0x1 PUSH1 0x1 PUSH1 0xA0 SHL SUB DUP1 DUP6 AND SWAP4 SWAP3 AND SWAP2 PUSH32 0x8292FCE18FA69EDF4DB7B94EA2E58241DF0AE57F97E0A6C9B29067028BF92D76 SWAP2 LOG3 PUSH1 0x0 DUP1 SLOAD PUSH1 0x1 PUSH1 0x1 PUSH1 0xA0 SHL SUB NOT AND PUSH1 0x1 PUSH1 0x1 PUSH1 0xA0 SHL SUB SWAP3 SWAP1 SWAP3 AND SWAP2 SWAP1 SWAP2 OR SWAP1 SSTORE JUMP JUMPDEST PUSH1 0x0 SLOAD PUSH1 0x1 PUSH1 0x1 PUSH1 0xA0 SHL SUB AND CALLER EQ DUP1 PUSH2 0x3FB JUMPI POP CALLER PUSH1 0x0 SWAP1 DUP2 MSTORE PUSH1 0x4 PUSH1 0x20 MSTORE PUSH1 0x40 SWAP1 KECCAK256 SLOAD PUSH1 0xFF AND JUMPDEST PUSH2 0x435 JUMPI PUSH1 0x40 MLOAD PUSH3 0x461BCD PUSH1 0xE5 SHL DUP2 MSTORE PUSH1 0x20 PUSH1 0x4 DUP3 ADD MSTORE PUSH1 0xB PUSH1 0x24 DUP3 ADD MSTORE PUSH11 0x27A7262CAFA820AAA9A2A9 PUSH1 0xA9 SHL PUSH1 0x44 DUP3 ADD MSTORE PUSH1 0x64 ADD PUSH2 0x329 JUMP JUMPDEST PUSH1 0x1 DUP1 SLOAD PUSH1 0xFF PUSH1 0xA0 SHL NOT AND SWAP1 SSTORE PUSH1 0x40 MLOAD CALLER SWAP1 PUSH32 0x5DB9EE0A495BF2E6FF9C91A7834C1BA4FDD244A5E8AA4E537BD38AEAE4B073AA SWAP1 PUSH1 0x0 SWAP1 LOG2 JUMP JUMPDEST PUSH1 0x0 SLOAD PUSH1 0x1 PUSH1 0x1 PUSH1 0xA0 SHL SUB AND CALLER EQ DUP1 PUSH2 0x497 JUMPI POP CALLER PUSH1 0x0 SWAP1 DUP2 MSTORE PUSH1 0x3 PUSH1 0x20 MSTORE PUSH1 0x40 SWAP1 KECCAK256 SLOAD PUSH1 0xFF AND JUMPDEST PUSH2 0x4B3 JUMPI PUSH1 0x40 MLOAD PUSH3 0x461BCD PUSH1 0xE5 SHL DUP2 MSTORE PUSH1 0x4 ADD PUSH2 0x329 SWAP1 PUSH2 0xFAB JUMP JUMPDEST PUSH1 0x1 SLOAD PUSH1 0x1 PUSH1 0xA0 SHL SWAP1 DIV PUSH1 0xFF AND ISZERO PUSH2 0x4DD JUMPI PUSH1 0x40 MLOAD PUSH3 0x461BCD PUSH1 0xE5 SHL DUP2 MSTORE PUSH1 0x4 ADD PUSH2 0x329 SWAP1 PUSH2 0xFD2 JUMP JUMPDEST PUSH2 0x4ED DUP7 PUSH1 0x4 DUP8 DUP8 DUP8 DUP8 DUP8 PUSH2 0x9DA JUMP JUMPDEST POP POP POP POP POP POP JUMP JUMPDEST PUSH1 0x0 SLOAD PUSH1 0x1 PUSH1 0x1 PUSH1 0xA0 SHL SUB AND CALLER EQ PUSH2 0x51F JUMPI PUSH1 0x40 MLOAD PUSH3 0x461BCD PUSH1 0xE5 SHL DUP2 MSTORE PUSH1 0x4 ADD PUSH2 0x329 SWAP1 PUSH2 0xF87 JUMP JUMPDEST PUSH1 0x1 PUSH1 0x1 PUSH1 0xA0 SHL SUB DUP3 AND PUSH1 0x0 DUP2 DUP2 MSTORE PUSH1 0x3 PUSH1 0x20 SWAP1 DUP2 MSTORE PUSH1 0x40 SWAP2 DUP3 SWAP1 KECCAK256 DUP1 SLOAD PUSH1 0xFF NOT AND DUP6 ISZERO ISZERO SWAP1 DUP2 OR SWAP1 SWAP2 SSTORE SWAP2 MLOAD SWAP2 DUP3 MSTORE PUSH32 0x966C160E1C4DBC7DF8D69AF4ACE01E9297C3CF016397B7914971F2FBFA32672D SWAP2 ADD JUMPDEST PUSH1 0x40 MLOAD DUP1 SWAP2 SUB SWAP1 LOG2 POP POP JUMP JUMPDEST PUSH1 0x0 SLOAD PUSH1 0x1 PUSH1 0x1 PUSH1 0xA0 SHL SUB AND CALLER EQ DUP1 PUSH2 0x5A7 JUMPI POP CALLER PUSH1 0x0 SWAP1 DUP2 MSTORE PUSH1 0x3 PUSH1 0x20 MSTORE PUSH1 0x40 SWAP1 KECCAK256 SLOAD PUSH1 0xFF AND JUMPDEST PUSH2 0x5C3 JUMPI PUSH1 0x40 MLOAD PUSH3 0x461BCD PUSH1 0xE5 SHL DUP2 MSTORE PUSH1 0x4 ADD PUSH2 0x329 SWAP1 PUSH2 0xFAB JUMP JUMPDEST PUSH1 0x1 SLOAD PUSH1 0x1 PUSH1 0xA0 SHL SWAP1 DIV PUSH1 0xFF AND ISZERO PUSH2 0x5ED JUMPI PUSH1 0x40 MLOAD PUSH3 0x461BCD PUSH1 0xE5 SHL DUP2 MSTORE PUSH1 0x4 ADD PUSH2 0x329 SWAP1 PUSH2 0xFD2 JUMP JUMPDEST PUSH2 0x4ED DUP7 PUSH1 0x2 DUP8 DUP8 DUP8 DUP8 DUP8 PUSH2 0x9DA JUMP JUMPDEST PUSH1 0x0 SLOAD PUSH1 0x1 PUSH1 0x1 PUSH1 0xA0 SHL SUB AND CALLER EQ PUSH2 0x627 JUMPI PUSH1 0x40 MLOAD PUSH3 0x461BCD PUSH1 0xE5 SHL DUP2 MSTORE PUSH1 0x4 ADD PUSH2 0x329 SWAP1 PUSH2 0xF87 JUMP JUMPDEST PUSH1 0x1 PUSH1 0x1 PUSH1 0xA0 SHL SUB DUP3 AND PUSH1 0x0 DUP2 DUP2 MSTORE PUSH1 0x4 PUSH1 0x20 SWAP1 DUP2 MSTORE PUSH1 0x40 SWAP2 DUP3 SWAP1 KECCAK256 DUP1 SLOAD PUSH1 0xFF NOT AND DUP6 ISZERO ISZERO SWAP1 DUP2 OR SWAP1 SWAP2 SSTORE SWAP2 MLOAD SWAP2 DUP3 MSTORE PUSH32 0x902923DCD4814F6CEF7005A70E01D5CF2035AB02D4523EF3B865F1D7BAB885AF SWAP2 ADD PUSH2 0x573 JUMP JUMPDEST PUSH1 0x0 SLOAD PUSH1 0x1 PUSH1 0x1 PUSH1 0xA0 SHL SUB AND CALLER EQ DUP1 PUSH2 0x6A7 JUMPI POP CALLER PUSH1 0x0 SWAP1 DUP2 MSTORE PUSH1 0x4 PUSH1 0x20 MSTORE PUSH1 0x40 SWAP1 KECCAK256 SLOAD PUSH1 0xFF AND JUMPDEST PUSH2 0x6E1 JUMPI PUSH1 0x40 MLOAD PUSH3 0x461BCD PUSH1 0xE5 SHL DUP2 MSTORE PUSH1 0x20 PUSH1 0x4 DUP3 ADD MSTORE PUSH1 0xB PUSH1 0x24 DUP3 ADD MSTORE PUSH11 0x27A7262CAFA820AAA9A2A9 PUSH1 0xA9 SHL PUSH1 0x44 DUP3 ADD MSTORE PUSH1 0x64 ADD PUSH2 0x329 JUMP JUMPDEST PUSH1 0x1 DUP1 SLOAD PUSH1 0xFF PUSH1 0xA0 SHL NOT AND PUSH1 0x1 PUSH1 0xA0 SHL OR SWAP1 SSTORE PUSH1 0x40 MLOAD CALLER SWAP1 PUSH32 0x62E78CEA01BEE320CD4E420270B5EA74000D11B0C9F74754EBDBFC544B05A258 SWAP1 PUSH1 0x0 SWAP1 LOG2 JUMP JUMPDEST PUSH1 0x2 DUP2 DUP2 SLOAD DUP2 LT PUSH2 0x731 JUMPI PUSH1 0x0 DUP1 REVERT JUMPDEST PUSH1 0x0 SWAP2 DUP3 MSTORE PUSH1 0x20 SWAP1 SWAP2 KECCAK256 PUSH1 0x7 SWAP1 SWAP2 MUL ADD DUP1 SLOAD PUSH1 0x1 DUP3 ADD SLOAD PUSH1 0x2 DUP4 ADD SLOAD PUSH1 0x3 DUP5 ADD SLOAD PUSH1 0x4 DUP6 ADD DUP1 SLOAD SWAP5 SWAP7 POP PUSH1 0xFF DUP5 AND SWAP6 PUSH2 0x100 SWAP1 SWAP5 DIV PUSH1 0x1 PUSH1 0x1 PUSH1 0xA0 SHL SUB SWAP1 DUP2 AND SWAP6 SWAP4 AND SWAP4 SWAP2 SWAP3 PUSH2 0x780 SWAP1 PUSH2 0xFFE JUMP JUMPDEST DUP1 PUSH1 0x1F ADD PUSH1 0x20 DUP1 SWAP2 DIV MUL PUSH1 0x20 ADD PUSH1 0x40 MLOAD SWAP1 DUP2 ADD PUSH1 0x40 MSTORE DUP1 SWAP3 SWAP2 SWAP1 DUP2 DUP2 MSTORE PUSH1 0x20 ADD DUP3 DUP1 SLOAD PUSH2 0x7AC SWAP1 PUSH2 0xFFE JUMP JUMPDEST DUP1 ISZERO PUSH2 0x7F9 JUMPI DUP1 PUSH1 0x1F LT PUSH2 0x7CE JUMPI PUSH2 0x100 DUP1 DUP4 SLOAD DIV MUL DUP4 MSTORE SWAP2 PUSH1 0x20 ADD SWAP2 PUSH2 0x7F9 JUMP JUMPDEST DUP3 ADD SWAP2 SWAP1 PUSH1 0x0 MSTORE PUSH1 0x20 PUSH1 0x0 KECCAK256 SWAP1 JUMPDEST DUP2 SLOAD DUP2 MSTORE SWAP1 PUSH1 0x1 ADD SWAP1 PUSH1 0x20 ADD DUP1 DUP4 GT PUSH2 0x7DC JUMPI DUP3 SWAP1 SUB PUSH1 0x1F AND DUP3 ADD SWAP2 JUMPDEST POP POP POP POP POP SWAP1 DUP1 PUSH1 0x5 ADD SLOAD SWAP1 DUP1 PUSH1 0x6 ADD SLOAD SWAP1 POP DUP9 JUMP JUMPDEST PUSH1 0x0 SLOAD PUSH1 0x1 PUSH1 0x1 PUSH1 0xA0 SHL SUB AND CALLER EQ DUP1 PUSH2 0x837 JUMPI POP CALLER PUSH1 0x0 SWAP1 DUP2 MSTORE PUSH1 0x3 PUSH1 0x20 MSTORE PUSH1 0x40 SWAP1 KECCAK256 SLOAD PUSH1 0xFF AND JUMPDEST PUSH2 0x853 JUMPI PUSH1 0x40 MLOAD PUSH3 0x461BCD PUSH1 0xE5 SHL DUP2 MSTORE PUSH1 0x4 ADD PUSH2 0x329 SWAP1 PUSH2 0xFAB JUMP JUMPDEST PUSH1 0x1 SLOAD PUSH1 0x1 PUSH1 0xA0 SHL SWAP1 DIV PUSH1 0xFF AND ISZERO PUSH2 0x87D JUMPI PUSH1 0x40 MLOAD PUSH3 0x461BCD PUSH1 0xE5 SHL DUP2 MSTORE PUSH1 0x4 ADD PUSH2 0x329 SWAP1 PUSH2 0xFD2 JUMP JUMPDEST PUSH2 0x4ED DUP7 PUSH1 0x1 DUP8 DUP8 DUP8 DUP8 DUP8 PUSH2 0x9DA JUMP JUMPDEST PUSH1 0x0 SLOAD PUSH1 0x1 PUSH1 0x1 PUSH1 0xA0 SHL SUB AND CALLER EQ DUP1 PUSH2 0x8B5 JUMPI POP CALLER PUSH1 0x0 SWAP1 DUP2 MSTORE PUSH1 0x3 PUSH1 0x20 MSTORE PUSH1 0x40 SWAP1 KECCAK256 SLOAD PUSH1 0xFF AND JUMPDEST PUSH2 0x8D1 JUMPI PUSH1 0x40 MLOAD PUSH3 0x461BCD PUSH1 0xE5 SHL DUP2 MSTORE PUSH1 0x4 ADD PUSH2 0x329 SWAP1 PUSH2 0xFAB JUMP JUMPDEST PUSH1 0x1 SLOAD PUSH1 0x1 PUSH1 0xA0 SHL SWAP1 DIV PUSH1 0xFF AND ISZERO PUSH2 0x8FB JUMPI PUSH1 0x40 MLOAD PUSH3 0x461BCD PUSH1 0xE5 SHL DUP2 MSTORE PUSH1 0x4 ADD PUSH2 0x329 SWAP1 PUSH2 0xFD2 JUMP JUMPDEST PUSH2 0x4ED DUP7 PUSH1 0x3 DUP8 DUP8 DUP8 DUP8 DUP8 PUSH2 0x9DA JUMP JUMPDEST PUSH1 0x0 SLOAD PUSH1 0x1 PUSH1 0x1 PUSH1 0xA0 SHL SUB AND CALLER EQ PUSH2 0x935 JUMPI PUSH1 0x40 MLOAD PUSH3 0x461BCD PUSH1 0xE5 SHL DUP2 MSTORE PUSH1 0x4 ADD PUSH2 0x329 SWAP1 PUSH2 0xF87 JUMP JUMPDEST PUSH1 0x1 PUSH1 0x1 PUSH1 0xA0 SHL SUB DUP2 AND PUSH2 0x97E JUMPI PUSH1 0x40 MLOAD PUSH3 0x461BCD PUSH1 0xE5 SHL DUP2 MSTORE PUSH1 0x20 PUSH1 0x4 DUP3 ADD MSTORE PUSH1 0x10 PUSH1 0x24 DUP3 ADD MSTORE PUSH16 0x494E56414C49445F5452454153555259 PUSH1 0x80 SHL PUSH1 0x44 DUP3 ADD MSTORE PUSH1 0x64 ADD PUSH2 0x329 JUMP JUMPDEST PUSH1 0x1 SLOAD PUSH1 0x40 MLOAD PUSH1 0x1 PUSH1 0x1 PUSH1 0xA0 SHL SUB DUP1 DUP5 AND SWAP3 AND SWAP1 PUSH32 0x9A68EF8689693FDD2712B4606B85DBB4B618147EECA950A2FC5DD731A7F8AE94 SWAP1 PUSH1 0x0 SWAP1 LOG3 PUSH1 0x1 DUP1 SLOAD PUSH1 0x1 PUSH1 0x1 PUSH1 0xA0 SHL SUB NOT AND PUSH1 0x1 PUSH1 0x1 PUSH1 0xA0 SHL SUB SWAP3 SWAP1 SWAP3 AND SWAP2 SWAP1 SWAP2 OR SWAP1 SSTORE JUMP JUMPDEST DUP7 PUSH2 0xA1B JUMPI PUSH1 0x40 MLOAD PUSH3 0x461BCD PUSH1 0xE5 SHL DUP2 MSTORE PUSH1 0x20 PUSH1 0x4 DUP3 ADD MSTORE PUSH1 0x11 PUSH1 0x24 DUP3 ADD MSTORE PUSH17 0x1253959053125117D050D51253D397D251 PUSH1 0x7A SHL PUSH1 0x44 DUP3 ADD MSTORE PUSH1 0x64 ADD PUSH2 0x329 JUMP JUMPDEST PUSH1 0x0 DUP8 DUP2 MSTORE PUSH1 0x5 PUSH1 0x20 MSTORE PUSH1 0x40 SWAP1 KECCAK256 SLOAD PUSH1 0xFF AND ISZERO PUSH2 0xA7A JUMPI PUSH1 0x40 MLOAD PUSH3 0x461BCD PUSH1 0xE5 SHL DUP2 MSTORE PUSH1 0x20 PUSH1 0x4 DUP3 ADD MSTORE PUSH1 0x18 PUSH1 0x24 DUP3 ADD MSTORE PUSH32 0x414354494F4E5F414C52454144595F50524F4345535345440000000000000000 PUSH1 0x44 DUP3 ADD MSTORE PUSH1 0x64 ADD PUSH2 0x329 JUMP JUMPDEST PUSH1 0x1 PUSH1 0x1 PUSH1 0xA0 SHL SUB DUP6 AND PUSH2 0xABF JUMPI PUSH1 0x40 MLOAD PUSH3 0x461BCD PUSH1 0xE5 SHL DUP2 MSTORE PUSH1 0x20 PUSH1 0x4 DUP3 ADD MSTORE PUSH1 0xC PUSH1 0x24 DUP3 ADD MSTORE PUSH12 0x24A72B20A624A22FAAA9A2A9 PUSH1 0xA1 SHL PUSH1 0x44 DUP3 ADD MSTORE PUSH1 0x64 ADD PUSH2 0x329 JUMP JUMPDEST PUSH1 0x0 DUP5 GT PUSH2 0xB00 JUMPI PUSH1 0x40 MLOAD PUSH3 0x461BCD PUSH1 0xE5 SHL DUP2 MSTORE PUSH1 0x20 PUSH1 0x4 DUP3 ADD MSTORE PUSH1 0xE PUSH1 0x24 DUP3 ADD MSTORE PUSH14 0x1253959053125117D05353D55395 PUSH1 0x92 SHL PUSH1 0x44 DUP3 ADD MSTORE PUSH1 0x64 ADD PUSH2 0x329 JUMP JUMPDEST PUSH1 0x0 DUP8 DUP2 MSTORE PUSH1 0x5 PUSH1 0x20 MSTORE PUSH1 0x40 SWAP1 DUP2 SWAP1 KECCAK256 DUP1 SLOAD PUSH1 0xFF NOT AND PUSH1 0x1 SWAP1 DUP2 OR SWAP1 SWAP2 SSTORE SLOAD SWAP1 MLOAD PUSH4 0xE41DD25 PUSH1 0xE1 SHL DUP2 MSTORE PUSH1 0x1 PUSH1 0x1 PUSH1 0xA0 SHL SUB SWAP2 DUP3 AND PUSH1 0x4 DUP3 ADD MSTORE PUSH1 0x24 DUP2 ADD DUP7 SWAP1 MSTORE PUSH32 0x0 SWAP1 SWAP2 AND SWAP1 PUSH4 0x1C83BA4A SWAP1 PUSH1 0x44 ADD PUSH1 0x0 PUSH1 0x40 MLOAD DUP1 DUP4 SUB DUP2 PUSH1 0x0 DUP8 DUP1 EXTCODESIZE ISZERO DUP1 ISZERO PUSH2 0xB8A JUMPI PUSH1 0x0 DUP1 REVERT JUMPDEST POP GAS CALL ISZERO DUP1 ISZERO PUSH2 0xB9E JUMPI RETURNDATASIZE PUSH1 0x0 DUP1 RETURNDATACOPY RETURNDATASIZE PUSH1 0x0 REVERT JUMPDEST POP POP POP POP PUSH1 0x2 PUSH1 0x40 MLOAD DUP1 PUSH2 0x100 ADD PUSH1 0x40 MSTORE DUP1 DUP10 DUP2 MSTORE PUSH1 0x20 ADD DUP9 PUSH1 0x4 DUP2 GT ISZERO PUSH2 0xBC8 JUMPI PUSH2 0xBC8 PUSH2 0xEBC JUMP JUMPDEST DUP2 MSTORE PUSH1 0x20 ADD DUP8 PUSH1 0x1 PUSH1 0x1 PUSH1 0xA0 SHL SUB AND DUP2 MSTORE PUSH1 0x20 ADD PUSH1 0x1 PUSH1 0x0 SWAP1 SLOAD SWAP1 PUSH2 0x100 EXP SWAP1 DIV PUSH1 0x1 PUSH1 0x1 PUSH1 0xA0 SHL SUB AND PUSH1 0x1 PUSH1 0x1 PUSH1 0xA0 SHL SUB AND DUP2 MSTORE PUSH1 0x20 ADD DUP7 DUP2 MSTORE PUSH1 0x20 ADD DUP6 DUP6 DUP1 DUP1 PUSH1 0x1F ADD PUSH1 0x20 DUP1 SWAP2 DIV MUL PUSH1 0x20 ADD PUSH1 0x40 MLOAD SWAP1 DUP2 ADD PUSH1 0x40 MSTORE DUP1 SWAP4 SWAP3 SWAP2 SWAP1 DUP2 DUP2 MSTORE PUSH1 0x20 ADD DUP4 DUP4 DUP1 DUP3 DUP5 CALLDATACOPY PUSH1 0x0 SWAP3 ADD DUP3 SWAP1 MSTORE POP SWAP4 DUP6 MSTORE POP POP POP PUSH1 0x20 DUP1 DUP4 ADD DUP7 SWAP1 MSTORE TIMESTAMP PUSH1 0x40 SWAP1 SWAP4 ADD SWAP3 SWAP1 SWAP3 MSTORE DUP4 SLOAD PUSH1 0x1 DUP2 DUP2 ADD DUP7 SSTORE SWAP5 DUP3 MSTORE SWAP1 DUP3 SWAP1 KECCAK256 DUP4 MLOAD PUSH1 0x7 SWAP1 SWAP3 MUL ADD SWAP1 DUP2 SSTORE SWAP1 DUP3 ADD MLOAD DUP2 DUP5 ADD DUP1 SLOAD SWAP4 SWAP5 SWAP3 SWAP4 SWAP2 SWAP3 SWAP1 SWAP2 PUSH1 0xFF NOT AND SWAP1 DUP4 PUSH1 0x4 DUP2 GT ISZERO PUSH2 0xC93 JUMPI PUSH2 0xC93 PUSH2 0xEBC JUMP JUMPDEST MUL OR SWAP1 SSTORE POP PUSH1 0x40 DUP3 ADD MLOAD PUSH1 0x1 DUP3 ADD DUP1 SLOAD PUSH2 0x100 PUSH1 0x1 PUSH1 0xA8 SHL SUB NOT AND PUSH2 0x100 PUSH1 0x1 PUSH1 0x1 PUSH1 0xA0 SHL SUB SWAP4 DUP5 AND MUL OR SWAP1 SSTORE PUSH1 0x60 DUP4 ADD MLOAD PUSH1 0x2 DUP4 ADD DUP1 SLOAD PUSH1 0x1 PUSH1 0x1 PUSH1 0xA0 SHL SUB NOT AND SWAP2 SWAP1 SWAP3 AND OR SWAP1 SSTORE PUSH1 0x80 DUP3 ADD MLOAD PUSH1 0x3 DUP3 ADD SSTORE PUSH1 0xA0 DUP3 ADD MLOAD PUSH1 0x4 DUP3 ADD SWAP1 PUSH2 0xCFA SWAP1 DUP3 PUSH2 0x109B JUMP JUMPDEST POP PUSH1 0xC0 DUP3 ADD MLOAD DUP2 PUSH1 0x5 ADD SSTORE PUSH1 0xE0 DUP3 ADD MLOAD DUP2 PUSH1 0x6 ADD SSTORE POP POP DUP5 PUSH1 0x1 PUSH1 0x1 PUSH1 0xA0 SHL SUB AND DUP7 PUSH1 0x4 DUP2 GT ISZERO PUSH2 0xD2D JUMPI PUSH2 0xD2D PUSH2 0xEBC JUMP JUMPDEST PUSH1 0x1 SLOAD PUSH1 0x40 MLOAD PUSH1 0xFF SWAP3 SWAP1 SWAP3 AND SWAP2 DUP11 SWAP2 PUSH32 0x9103E6B776B05DBE20C7E0B4A448DB549274F10B83E9DEFC391DAAD25704846A SWAP2 PUSH2 0xD79 SWAP2 PUSH1 0x1 PUSH1 0x1 PUSH1 0xA0 SHL SUB AND SWAP1 DUP11 SWAP1 DUP11 SWAP1 DUP11 SWAP1 DUP11 SWAP1 PUSH2 0x115B JUMP JUMPDEST PUSH1 0x40 MLOAD DUP1 SWAP2 SUB SWAP1 LOG4 POP POP POP POP POP POP POP JUMP JUMPDEST DUP1 CALLDATALOAD PUSH1 0x1 PUSH1 0x1 PUSH1 0xA0 SHL SUB DUP2 AND DUP2 EQ PUSH2 0xDA1 JUMPI PUSH1 0x0 DUP1 REVERT JUMPDEST SWAP2 SWAP1 POP JUMP JUMPDEST PUSH1 0x0 PUSH1 0x20 DUP3 DUP5 SUB SLT ISZERO PUSH2 0xDB8 JUMPI PUSH1 0x0 DUP1 REVERT JUMPDEST PUSH2 0xDC1 DUP3 PUSH2 0xD8A JUMP JUMPDEST SWAP4 SWAP3 POP POP POP JUMP JUMPDEST PUSH1 0x0 DUP1 PUSH1 0x0 DUP1 PUSH1 0x0 DUP1 PUSH1 0xA0 DUP8 DUP10 SUB SLT ISZERO PUSH2 0xDE1 JUMPI PUSH1 0x0 DUP1 REVERT JUMPDEST DUP7 CALLDATALOAD SWAP6 POP PUSH2 0xDF1 PUSH1 0x20 DUP9 ADD PUSH2 0xD8A JUMP JUMPDEST SWAP5 POP PUSH1 0x40 DUP8 ADD CALLDATALOAD SWAP4 POP PUSH1 0x60 DUP8 ADD CALLDATALOAD PUSH8 0xFFFFFFFFFFFFFFFF DUP1 DUP3 GT ISZERO PUSH2 0xE15 JUMPI PUSH1 0x0 DUP1 REVERT JUMPDEST DUP2 DUP10 ADD SWAP2 POP DUP10 PUSH1 0x1F DUP4 ADD SLT PUSH2 0xE29 JUMPI PUSH1 0x0 DUP1 REVERT JUMPDEST DUP2 CALLDATALOAD DUP2 DUP2 GT ISZERO PUSH2 0xE38 JUMPI PUSH1 0x0 DUP1 REVERT JUMPDEST DUP11 PUSH1 0x20 DUP3 DUP6 ADD ADD GT ISZERO PUSH2 0xE4A JUMPI PUSH1 0x0 DUP1 REVERT JUMPDEST PUSH1 0x20 DUP4 ADD SWAP6 POP DUP1 SWAP5 POP POP POP POP PUSH1 0x80 DUP8 ADD CALLDATALOAD SWAP1 POP SWAP3 SWAP6 POP SWAP3 SWAP6 POP SWAP3 SWAP6 JUMP JUMPDEST PUSH1 0x0 DUP1 PUSH1 0x40 DUP4 DUP6 SUB SLT ISZERO PUSH2 0xE7A JUMPI PUSH1 0x0 DUP1 REVERT JUMPDEST PUSH2 0xE83 DUP4 PUSH2 0xD8A JUMP JUMPDEST SWAP2 POP PUSH1 0x20 DUP4 ADD CALLDATALOAD DUP1 ISZERO ISZERO DUP2 EQ PUSH2 0xE98 JUMPI PUSH1 0x0 DUP1 REVERT JUMPDEST DUP1 SWAP2 POP POP SWAP3 POP SWAP3 SWAP1 POP JUMP JUMPDEST PUSH1 0x0 PUSH1 0x20 DUP3 DUP5 SUB SLT ISZERO PUSH2 0xEB5 JUMPI PUSH1 0x0 DUP1 REVERT JUMPDEST POP CALLDATALOAD SWAP2 SWAP1 POP JUMP JUMPDEST PUSH4 0x4E487B71 PUSH1 0xE0 SHL PUSH1 0x0 MSTORE PUSH1 0x21 PUSH1 0x4 MSTORE PUSH1 0x24 PUSH1 0x0 REVERT JUMPDEST PUSH1 0x0 PUSH2 0x100 DUP11 DUP4 MSTORE PUSH1 0x20 PUSH1 0x5 DUP12 LT PUSH2 0xEFA JUMPI PUSH4 0x4E487B71 PUSH1 0xE0 SHL PUSH1 0x0 MSTORE PUSH1 0x21 PUSH1 0x4 MSTORE PUSH1 0x24 PUSH1 0x0 REVERT JUMPDEST PUSH1 0x20 DUP5 ADD DUP12 SWAP1 MSTORE PUSH1 0x1 PUSH1 0x1 PUSH1 0xA0 SHL SUB DUP11 DUP2 AND PUSH1 0x40 DUP7 ADD MSTORE DUP10 AND PUSH1 0x60 DUP6 ADD MSTORE PUSH1 0x80 DUP5 ADD DUP9 SWAP1 MSTORE PUSH1 0xA0 DUP5 ADD DUP3 SWAP1 MSTORE DUP7 MLOAD SWAP2 DUP5 ADD DUP3 SWAP1 MSTORE PUSH1 0x0 SWAP2 JUMPDEST DUP1 DUP4 LT ISZERO PUSH2 0xF51 JUMPI DUP8 DUP4 ADD DUP3 ADD MLOAD DUP6 DUP5 ADD PUSH2 0x120 ADD MSTORE SWAP2 DUP2 ADD SWAP2 PUSH2 0xF32 JUMP JUMPDEST PUSH1 0x0 PUSH2 0x120 DUP3 DUP8 ADD DUP2 ADD SWAP2 SWAP1 SWAP2 MSTORE PUSH1 0xC0 DUP7 ADD SWAP8 SWAP1 SWAP8 MSTORE PUSH1 0xE0 DUP6 ADD SWAP6 SWAP1 SWAP6 MSTORE POP POP POP PUSH1 0x1F SWAP1 SWAP2 ADD PUSH1 0x1F NOT AND ADD ADD SWAP7 SWAP6 POP POP POP POP POP POP JUMP JUMPDEST PUSH1 0x20 DUP1 DUP3 MSTORE PUSH1 0xA SWAP1 DUP3 ADD MSTORE PUSH10 0x27A7262CAFA7ABA722A9 PUSH1 0xB1 SHL PUSH1 0x40 DUP3 ADD MSTORE PUSH1 0x60 ADD SWAP1 JUMP JUMPDEST PUSH1 0x20 DUP1 DUP3 MSTORE PUSH1 0xD SWAP1 DUP3 ADD MSTORE PUSH13 0x27A7262CAFA7A822A920AA27A9 PUSH1 0x99 SHL PUSH1 0x40 DUP3 ADD MSTORE PUSH1 0x60 ADD SWAP1 JUMP JUMPDEST PUSH1 0x20 DUP1 DUP3 MSTORE PUSH1 0x12 SWAP1 DUP3 ADD MSTORE PUSH18 0x1095549397D493D555115497D4105554D151 PUSH1 0x72 SHL PUSH1 0x40 DUP3 ADD MSTORE PUSH1 0x60 ADD SWAP1 JUMP JUMPDEST PUSH1 0x1 DUP2 DUP2 SHR SWAP1 DUP3 AND DUP1 PUSH2 0x1012 JUMPI PUSH1 0x7F DUP3 AND SWAP2 POP JUMPDEST PUSH1 0x20 DUP3 LT DUP2 SUB PUSH2 0x1032 JUMPI PUSH4 0x4E487B71 PUSH1 0xE0 SHL PUSH1 0x0 MSTORE PUSH1 0x22 PUSH1 0x4 MSTORE PUSH1 0x24 PUSH1 0x0 REVERT JUMPDEST POP SWAP2 SWAP1 POP JUMP JUMPDEST PUSH4 0x4E487B71 PUSH1 0xE0 SHL PUSH1 0x0 MSTORE PUSH1 0x41 PUSH1 0x4 MSTORE PUSH1 0x24 PUSH1 0x0 REVERT JUMPDEST PUSH1 0x1F DUP3 GT ISZERO PUSH2 0x1096 JUMPI PUSH1 0x0 DUP2 PUSH1 0x0 MSTORE PUSH1 0x20 PUSH1 0x0 KECCAK256 PUSH1 0x1F DUP6 ADD PUSH1 0x5 SHR DUP2 ADD PUSH1 0x20 DUP7 LT ISZERO PUSH2 0x1077 JUMPI POP DUP1 JUMPDEST PUSH1 0x1F DUP6 ADD PUSH1 0x5 SHR DUP3 ADD SWAP2 POP JUMPDEST DUP2 DUP2 LT ISZERO PUSH2 0x4ED JUMPI DUP3 DUP2 SSTORE PUSH1 0x1 ADD PUSH2 0x1083 JUMP JUMPDEST POP POP POP JUMP JUMPDEST DUP2 MLOAD PUSH8 0xFFFFFFFFFFFFFFFF DUP2 GT ISZERO PUSH2 0x10B5 JUMPI PUSH2 0x10B5 PUSH2 0x1038 JUMP JUMPDEST PUSH2 0x10C9 DUP2 PUSH2 0x10C3 DUP5 SLOAD PUSH2 0xFFE JUMP JUMPDEST DUP5 PUSH2 0x104E JUMP JUMPDEST PUSH1 0x20 DUP1 PUSH1 0x1F DUP4 GT PUSH1 0x1 DUP2 EQ PUSH2 0x10FE JUMPI PUSH1 0x0 DUP5 ISZERO PUSH2 0x10E6 JUMPI POP DUP6 DUP4 ADD MLOAD JUMPDEST PUSH1 0x0 NOT PUSH1 0x3 DUP7 SWAP1 SHL SHR NOT AND PUSH1 0x1 DUP6 SWAP1 SHL OR DUP6 SSTORE PUSH2 0x4ED JUMP JUMPDEST PUSH1 0x0 DUP6 DUP2 MSTORE PUSH1 0x20 DUP2 KECCAK256 PUSH1 0x1F NOT DUP7 AND SWAP2 JUMPDEST DUP3 DUP2 LT ISZERO PUSH2 0x112D JUMPI DUP9 DUP7 ADD MLOAD DUP3 SSTORE SWAP5 DUP5 ADD SWAP5 PUSH1 0x1 SWAP1 SWAP2 ADD SWAP1 DUP5 ADD PUSH2 0x110E JUMP JUMPDEST POP DUP6 DUP3 LT ISZERO PUSH2 0x114B JUMPI DUP8 DUP6 ADD MLOAD PUSH1 0x0 NOT PUSH1 0x3 DUP9 SWAP1 SHL PUSH1 0xF8 AND SHR NOT AND DUP2 SSTORE JUMPDEST POP POP POP POP POP PUSH1 0x1 SWAP1 DUP2 SHL ADD SWAP1 SSTORE POP JUMP JUMPDEST PUSH1 0x1 PUSH1 0x1 PUSH1 0xA0 SHL SUB DUP7 AND DUP2 MSTORE PUSH1 0x20 DUP2 ADD DUP6 SWAP1 MSTORE PUSH1 0x80 PUSH1 0x40 DUP3 ADD DUP2 SWAP1 MSTORE DUP2 ADD DUP4 SWAP1 MSTORE DUP3 DUP5 PUSH1 0xA0 DUP4 ADD CALLDATACOPY PUSH1 0x0 PUSH1 0xA0 DUP5 DUP4 ADD ADD MSTORE PUSH1 0x0 PUSH1 0xA0 PUSH1 0x1F NOT PUSH1 0x1F DUP7 ADD AND DUP4 ADD ADD SWAP1 POP DUP3 PUSH1 0x60 DUP4 ADD MSTORE SWAP7 SWAP6 POP POP POP POP POP POP JUMP INVALID LOG2 PUSH5 0x6970667358 0x22 SLT KECCAK256 0x24 SMOD SHL SWAP3 0xFC 0xB7 BYTE PUSH15 0x48E631BD223D9AAB0183A9A6FDF967 0x24 DUP13 0x21 0xF8 POP SWAP16 SHR 0x23 0xC4 PUSH5 0x736F6C6343 STOP ADDMOD XOR STOP CALLER "},"methodIdentifiers":{"burnActions(uint256)":"b1f279e6","burnForCashGameRake(bytes32,address,uint256,string,bytes32)":"c3e9964e","burnForRoomCreation(bytes32,address,uint256,string,bytes32)":"bd7b60f8","burnForTournament(bytes32,address,uint256,string,bytes32)":"5dedb22d","burnManual(bytes32,address,uint256,string,bytes32)":"441964d1","getBurnActionCount()":"b9161d5c","operators(address)":"13e7c9d8","owner()":"8da5cb5b","pause()":"8456cb59","paused()":"5c975abb","pausers(address)":"80f51c12","processedActionIds(bytes32)":"560f225c","setOperator(address,bool)":"558a7297","setOwner(address)":"13af4035","setPauser(address,bool)":"7180c8ca","setTreasuryAccount(address)":"d886f8a2","token()":"fc0c546a","treasuryAccount()":"339b2cff","unpause()":"3f4ba83a"}}}}}