{
  "_format": "hh-sol-artifact-1",
  "contractName": "TaxForwarder",
  "sourceName": "contracts/TaxForwarder.sol",
  "abi": [
    {
      "inputs": [
        {
          "internalType": "address",
          "name": "initialOwner",
          "type": "address"
        },
        {
          "internalType": "address",
          "name": "initialMarketingWallet",
          "type": "address"
        }
      ],
      "stateMutability": "nonpayable",
      "type": "constructor"
    },
    {
      "anonymous": false,
      "inputs": [
        {
          "indexed": true,
          "internalType": "address",
          "name": "recipient",
          "type": "address"
        },
        {
          "indexed": false,
          "internalType": "uint256",
          "name": "amount",
          "type": "uint256"
        }
      ],
      "name": "EmergencyNativeWithdrawn",
      "type": "event"
    },
    {
      "anonymous": false,
      "inputs": [
        {
          "indexed": true,
          "internalType": "address",
          "name": "token",
          "type": "address"
        },
        {
          "indexed": true,
          "internalType": "address",
          "name": "recipient",
          "type": "address"
        },
        {
          "indexed": false,
          "internalType": "uint256",
          "name": "amount",
          "type": "uint256"
        }
      ],
      "name": "EmergencyTokenWithdrawn",
      "type": "event"
    },
    {
      "anonymous": false,
      "inputs": [
        {
          "indexed": true,
          "internalType": "address",
          "name": "previousWallet",
          "type": "address"
        },
        {
          "indexed": true,
          "internalType": "address",
          "name": "newWallet",
          "type": "address"
        }
      ],
      "name": "MarketingWalletUpdated",
      "type": "event"
    },
    {
      "anonymous": false,
      "inputs": [
        {
          "indexed": true,
          "internalType": "address",
          "name": "previousOwner",
          "type": "address"
        },
        {
          "indexed": true,
          "internalType": "address",
          "name": "newOwner",
          "type": "address"
        }
      ],
      "name": "OwnerUpdated",
      "type": "event"
    },
    {
      "anonymous": false,
      "inputs": [
        {
          "indexed": true,
          "internalType": "address",
          "name": "account",
          "type": "address"
        }
      ],
      "name": "Paused",
      "type": "event"
    },
    {
      "anonymous": false,
      "inputs": [
        {
          "indexed": true,
          "internalType": "address",
          "name": "account",
          "type": "address"
        },
        {
          "indexed": false,
          "internalType": "bool",
          "name": "allowed",
          "type": "bool"
        }
      ],
      "name": "PauserUpdated",
      "type": "event"
    },
    {
      "anonymous": false,
      "inputs": [
        {
          "indexed": true,
          "internalType": "address",
          "name": "previousPrizePool",
          "type": "address"
        },
        {
          "indexed": true,
          "internalType": "address",
          "name": "newPrizePool",
          "type": "address"
        }
      ],
      "name": "PrizePoolUpdated",
      "type": "event"
    },
    {
      "anonymous": false,
      "inputs": [
        {
          "indexed": true,
          "internalType": "address",
          "name": "triggeredBy",
          "type": "address"
        },
        {
          "indexed": false,
          "internalType": "uint256",
          "name": "totalAmount",
          "type": "uint256"
        },
        {
          "indexed": false,
          "internalType": "uint256",
          "name": "prizePoolAmount",
          "type": "uint256"
        },
        {
          "indexed": false,
          "internalType": "uint256",
          "name": "marketingAmount",
          "type": "uint256"
        }
      ],
      "name": "TaxForwarded",
      "type": "event"
    },
    {
      "anonymous": false,
      "inputs": [
        {
          "indexed": true,
          "internalType": "address",
          "name": "sender",
          "type": "address"
        },
        {
          "indexed": false,
          "internalType": "uint256",
          "name": "amount",
          "type": "uint256"
        },
        {
          "indexed": false,
          "internalType": "uint256",
          "name": "balanceAfter",
          "type": "uint256"
        }
      ],
      "name": "TaxReceived",
      "type": "event"
    },
    {
      "anonymous": false,
      "inputs": [
        {
          "indexed": true,
          "internalType": "address",
          "name": "account",
          "type": "address"
        }
      ],
      "name": "Unpaused",
      "type": "event"
    },
    {
      "inputs": [],
      "name": "PRIZE_POOL_SHARE_DENOMINATOR",
      "outputs": [
        {
          "internalType": "uint256",
          "name": "",
          "type": "uint256"
        }
      ],
      "stateMutability": "view",
      "type": "function"
    },
    {
      "inputs": [],
      "name": "PRIZE_POOL_SHARE_NUMERATOR",
      "outputs": [
        {
          "internalType": "uint256",
          "name": "",
          "type": "uint256"
        }
      ],
      "stateMutability": "view",
      "type": "function"
    },
    {
      "inputs": [
        {
          "internalType": "address payable",
          "name": "recipient",
          "type": "address"
        },
        {
          "internalType": "uint256",
          "name": "amount",
          "type": "uint256"
        }
      ],
      "name": "emergencyWithdrawNative",
      "outputs": [],
      "stateMutability": "nonpayable",
      "type": "function"
    },
    {
      "inputs": [
        {
          "internalType": "address",
          "name": "token",
          "type": "address"
        },
        {
          "internalType": "address",
          "name": "recipient",
          "type": "address"
        },
        {
          "internalType": "uint256",
          "name": "amount",
          "type": "uint256"
        }
      ],
      "name": "emergencyWithdrawUnexpectedToken",
      "outputs": [],
      "stateMutability": "nonpayable",
      "type": "function"
    },
    {
      "inputs": [],
      "name": "forward",
      "outputs": [],
      "stateMutability": "nonpayable",
      "type": "function"
    },
    {
      "inputs": [],
      "name": "forwardableBalance",
      "outputs": [
        {
          "internalType": "uint256",
          "name": "",
          "type": "uint256"
        }
      ],
      "stateMutability": "view",
      "type": "function"
    },
    {
      "inputs": [],
      "name": "marketingWallet",
      "outputs": [
        {
          "internalType": "address",
          "name": "",
          "type": "address"
        }
      ],
      "stateMutability": "view",
      "type": "function"
    },
    {
      "inputs": [],
      "name": "owner",
      "outputs": [
        {
          "internalType": "address",
          "name": "",
          "type": "address"
        }
      ],
      "stateMutability": "view",
      "type": "function"
    },
    {
      "inputs": [],
      "name": "pause",
      "outputs": [],
      "stateMutability": "nonpayable",
      "type": "function"
    },
    {
      "inputs": [],
      "name": "paused",
      "outputs": [
        {
          "internalType": "bool",
          "name": "",
          "type": "bool"
        }
      ],
      "stateMutability": "view",
      "type": "function"
    },
    {
      "inputs": [
        {
          "internalType": "address",
          "name": "",
          "type": "address"
        }
      ],
      "name": "pausers",
      "outputs": [
        {
          "internalType": "bool",
          "name": "",
          "type": "bool"
        }
      ],
      "stateMutability": "view",
      "type": "function"
    },
    {
      "inputs": [],
      "name": "previewForwardAmounts",
      "outputs": [
        {
          "internalType": "uint256",
          "name": "prizePoolAmount",
          "type": "uint256"
        },
        {
          "internalType": "uint256",
          "name": "marketingAmount",
          "type": "uint256"
        }
      ],
      "stateMutability": "view",
      "type": "function"
    },
    {
      "inputs": [],
      "name": "prizePool",
      "outputs": [
        {
          "internalType": "address",
          "name": "",
          "type": "address"
        }
      ],
      "stateMutability": "view",
      "type": "function"
    },
    {
      "inputs": [
        {
          "internalType": "address",
          "name": "newMarketingWallet",
          "type": "address"
        }
      ],
      "name": "setMarketingWallet",
      "outputs": [],
      "stateMutability": "nonpayable",
      "type": "function"
    },
    {
      "inputs": [
        {
          "internalType": "address",
          "name": "newOwner",
          "type": "address"
        }
      ],
      "name": "setOwner",
      "outputs": [],
      "stateMutability": "nonpayable",
      "type": "function"
    },
    {
      "inputs": [
        {
          "internalType": "address",
          "name": "account",
          "type": "address"
        },
        {
          "internalType": "bool",
          "name": "allowed",
          "type": "bool"
        }
      ],
      "name": "setPauser",
      "outputs": [],
      "stateMutability": "nonpayable",
      "type": "function"
    },
    {
      "inputs": [
        {
          "internalType": "address",
          "name": "newPrizePool",
          "type": "address"
        }
      ],
      "name": "setPrizePool",
      "outputs": [],
      "stateMutability": "nonpayable",
      "type": "function"
    },
    {
      "inputs": [],
      "name": "unpause",
      "outputs": [],
      "stateMutability": "nonpayable",
      "type": "function"
    },
    {
      "stateMutability": "payable",
      "type": "receive"
    }
  ],
  "bytecode": "0x608060405234801561001057600080fd5b5060405162001420380380620014208339810160408190526100319161016d565b6001600160a01b03821661007c5760405162461bcd60e51b815260206004820152600d60248201526c24a72b20a624a22fa7aba722a960991b60448201526064015b60405180910390fd5b6001600160a01b0381166100d25760405162461bcd60e51b815260206004820152601860248201527f494e56414c49445f4d41524b4554494e475f57414c4c455400000000000000006044820152606401610073565b600080546001600160a01b03199081166001600160a01b0385811691821784556001805490931690851617825580835260046020908152604093849020805460ff1916841790559251918252917f902923dcd4814f6cef7005a70e01d5cf2035ab02d4523ef3b865f1d7bab885af910160405180910390a250506101a0565b80516001600160a01b038116811461016857600080fd5b919050565b6000806040838503121561018057600080fd5b61018983610151565b915061019760208401610151565b90509250929050565b61127080620001b06000396000f3fe60806040526004361061010d5760003560e01c806375f0a874116100955780639b788504116100645780639b788504146103b2578063bbc78afb146103d2578063d1f90376146103fc578063d264e05e1461041c578063e268a69c1461043157600080fd5b806375f0a8741461032d57806380f51c121461034d5780638456cb591461037d5780638da5cb5b1461039257600080fd5b806341f311ae116100dc57806341f311ae1461026f5780635c975abb146102845780635d098b38146102b55780637180c8ca146102d5578063719ce73e146102f557600080fd5b806313af4035146101f6578063336c6d39146102185780633f4ba83a14610238578063416056c01461024d57600080fd5b366101f157600254600160a01b900460ff16156101645760405162461bcd60e51b815260206004820152601060248201526f1193d495d05491115497d4105554d15160821b60448201526064015b60405180910390fd5b600354156101a15760405162461bcd60e51b815260206004820152600a6024820152695245454e5452414e435960b01b604482015260640161015b565b60016003556040805134815247602082015233917fa56255cb8180d083d476d9ff450f3e41af63ac27bed66dfdc544fafa8bd1025a910160405180910390a26101e8610446565b60006003819055005b600080fd5b34801561020257600080fd5b506102166102113660046110b9565b6106e9565b005b34801561022457600080fd5b506102166102333660046110b9565b6107b4565b34801561024457600080fd5b50610216610885565b34801561025957600080fd5b50475b6040519081526020015b60405180910390f35b34801561027b57600080fd5b5061025c600681565b34801561029057600080fd5b506002546102a590600160a01b900460ff1681565b6040519015158152602001610266565b3480156102c157600080fd5b506102166102d03660046110b9565b610921565b3480156102e157600080fd5b506102166102f03660046110eb565b6109fd565b34801561030157600080fd5b50600254610315906001600160a01b031681565b6040516001600160a01b039091168152602001610266565b34801561033957600080fd5b50600154610315906001600160a01b031681565b34801561035957600080fd5b506102a56103683660046110b9565b60046020526000908152604090205460ff1681565b34801561038957600080fd5b50610216610a86565b34801561039e57600080fd5b50600054610315906001600160a01b031681565b3480156103be57600080fd5b506102166103cd366004611124565b610b28565b3480156103de57600080fd5b506103e7610d4d565b60408051928352602083019190915201610266565b34801561040857600080fd5b50610216610417366004611150565b610d80565b34801561042857600080fd5b50610216610fd6565b34801561043d57600080fd5b5061025c600581565b478061048a5760405162461bcd60e51b81526020600482015260136024820152721393d7d195539114d7d513d7d193d495d05491606a1b604482015260640161015b565b60025460009081906001600160a01b031661054a575050600154604051600091839183916001600160a01b03169083908381818185875af1925050503d80600081146104f2576040519150601f19603f3d011682016040523d82523d6000602084013e6104f7565b606091505b50509050806105445760405162461bcd60e51b815260206004820152601960248201527813505492d155125391d7d514905394d1915497d19052531151603a1b604482015260640161015b565b506106a0565b61055383611074565b6002546040519294509092506000916001600160a01b039091169084908381818185875af1925050503d80600081146105a8576040519150601f19603f3d011682016040523d82523d6000602084013e6105ad565b606091505b50509050806105fe5760405162461bcd60e51b815260206004820152601a60248201527f5052495a455f504f4f4c5f5452414e534645525f4641494c4544000000000000604482015260640161015b565b6001546040516000916001600160a01b03169084908381818185875af1925050503d806000811461064b576040519150601f19603f3d011682016040523d82523d6000602084013e610650565b606091505b505090508061069d5760405162461bcd60e51b815260206004820152601960248201527813505492d155125391d7d514905394d1915497d19052531151603a1b604482015260640161015b565b50505b604080518481526020810184905290810182905233907fe2799112988696f6ed88bd87a7b945f769c10a43a92e890999982443784b8f17906060015b60405180910390a2505050565b6000546001600160a01b031633146107135760405162461bcd60e51b815260040161015b90611191565b6001600160a01b0381166107595760405162461bcd60e51b815260206004820152600d60248201526c24a72b20a624a22fa7aba722a960991b604482015260640161015b565b600080546040516001600160a01b03808516939216917f8292fce18fa69edf4db7b94ea2e58241df0ae57f97e0a6c9b29067028bf92d7691a3600080546001600160a01b0319166001600160a01b0392909216919091179055565b6000546001600160a01b031633146107de5760405162461bcd60e51b815260040161015b90611191565b6001600160a01b0381166108295760405162461bcd60e51b81526020600482015260126024820152711253959053125117d41492569157d413d3d360721b604482015260640161015b565b6002546040516001600160a01b038084169216907feb5dc9c1a346ed3e3bae2d1b244cf3b5b54010020ad16c8d7c63d96a19729ae390600090a3600280546001600160a01b0319166001600160a01b0392909216919091179055565b6000546001600160a01b03163314806108ad57503360009081526004602052604090205460ff165b6108e75760405162461bcd60e51b815260206004820152600b60248201526a27a7262cafa820aaa9a2a960a91b604482015260640161015b565b6002805460ff60a01b1916905560405133907f5db9ee0a495bf2e6ff9c91a7834c1ba4fdd244a5e8aa4e537bd38aeae4b073aa90600090a2565b6000546001600160a01b0316331461094b5760405162461bcd60e51b815260040161015b90611191565b6001600160a01b0381166109a15760405162461bcd60e51b815260206004820152601860248201527f494e56414c49445f4d41524b4554494e475f57414c4c45540000000000000000604482015260640161015b565b6001546040516001600160a01b038084169216907f8616c7a330e3cf61290821331585511f1e2778171e2b005fb5ec60cfe874dc6790600090a3600180546001600160a01b0319166001600160a01b0392909216919091179055565b6000546001600160a01b03163314610a275760405162461bcd60e51b815260040161015b90611191565b6001600160a01b038216600081815260046020908152604091829020805460ff191685151590811790915591519182527f902923dcd4814f6cef7005a70e01d5cf2035ab02d4523ef3b865f1d7bab885af910160405180910390a25050565b6000546001600160a01b0316331480610aae57503360009081526004602052604090205460ff165b610ae85760405162461bcd60e51b815260206004820152600b60248201526a27a7262cafa820aaa9a2a960a91b604482015260640161015b565b6002805460ff60a01b1916600160a01b17905560405133907f62e78cea01bee320cd4e420270b5ea74000d11b0c9f74754ebdbfc544b05a25890600090a2565b6000546001600160a01b03163314610b525760405162461bcd60e51b815260040161015b90611191565b600254600160a01b900460ff16610ba25760405162461bcd60e51b81526020600482015260146024820152731193d495d05491115497d393d517d4105554d15160621b604482015260640161015b565b6001600160a01b038216610bec5760405162461bcd60e51b81526020600482015260116024820152701253959053125117d49150d25412515395607a1b604482015260640161015b565b60008111610c2d5760405162461bcd60e51b815260206004820152600e60248201526d1253959053125117d05353d5539560921b604482015260640161015b565b80471015610c7d5760405162461bcd60e51b815260206004820152601b60248201527f494e53554646494349454e545f4e41544956455f42414c414e43450000000000604482015260640161015b565b6000826001600160a01b03168260405160006040518083038185875af1925050503d8060008114610cca576040519150601f19603f3d011682016040523d82523d6000602084013e610ccf565b606091505b5050905080610d125760405162461bcd60e51b815260206004820152600f60248201526e1514905394d1915497d19052531151608a1b604482015260640161015b565b826001600160a01b03167f667063edc301be4bbbe0123ca445e0ded1511a46a4cba624ae39dfcda8eddbc1836040516106dc91815260200190565b600254600090819047906001600160a01b0316610d6e576000939092509050565b610d7781611074565b92509250509091565b6000546001600160a01b03163314610daa5760405162461bcd60e51b815260040161015b90611191565b600254600160a01b900460ff16610dfa5760405162461bcd60e51b81526020600482015260146024820152731193d495d05491115497d393d517d4105554d15160621b604482015260640161015b565b6001600160a01b038316610e405760405162461bcd60e51b815260206004820152600d60248201526c24a72b20a624a22faa27a5a2a760991b604482015260640161015b565b6001600160a01b038216610e8a5760405162461bcd60e51b81526020600482015260116024820152701253959053125117d49150d25412515395607a1b604482015260640161015b565b60008111610ecb5760405162461bcd60e51b815260206004820152600e60248201526d1253959053125117d05353d5539560921b604482015260640161015b565b60405163a9059cbb60e01b81526001600160a01b038381166004830152602482018390526000919085169063a9059cbb906044016020604051808303816000875af1158015610f1e573d6000803e3d6000fd5b505050506040513d601f19601f82011682018060405250810190610f4291906111b5565b905080610f835760405162461bcd60e51b815260206004820152600f60248201526e1514905394d1915497d19052531151608a1b604482015260640161015b565b826001600160a01b0316846001600160a01b03167f8be7b37fba2e02786d661f3fa9ae0e02d548a6a5f7f47ecddefc5c9cb620606b84604051610fc891815260200190565b60405180910390a350505050565b600254600160a01b900460ff16156110235760405162461bcd60e51b815260206004820152601060248201526f1193d495d05491115497d4105554d15160821b604482015260640161015b565b600354156110605760405162461bcd60e51b815260206004820152600a6024820152695245454e5452414e435960b01b604482015260640161015b565b600160035561106d610446565b6000600355565b60008060066110846005856111e8565b61108e9190611205565b915061109a8284611227565b9050915091565b6001600160a01b03811681146110b657600080fd5b50565b6000602082840312156110cb57600080fd5b81356110d6816110a1565b9392505050565b80151581146110b657600080fd5b600080604083850312156110fe57600080fd5b8235611109816110a1565b91506020830135611119816110dd565b809150509250929050565b6000806040838503121561113757600080fd5b8235611142816110a1565b946020939093013593505050565b60008060006060848603121561116557600080fd5b8335611170816110a1565b92506020840135611180816110a1565b929592945050506040919091013590565b6020808252600a908201526927a7262cafa7aba722a960b11b604082015260600190565b6000602082840312156111c757600080fd5b81516110d6816110dd565b634e487b7160e01b600052601160045260246000fd5b80820281158282048414176111ff576111ff6111d2565b92915050565b60008261122257634e487b7160e01b600052601260045260246000fd5b500490565b818103818111156111ff576111ff6111d256fea26469706673582212206a11adb9f18547f1ec3d13435a2e2d324e5537d7c710f7fdfa1712060d7abcd264736f6c63430008180033",
  "linkReferences": {},
  "deployedLinkReferences": {}
}