{
  "_format": "hh-sol-artifact-1",
  "contractName": "GameTreasuryVault",
  "sourceName": "contracts/GameTreasuryVault.sol",
  "abi": [
    {
      "inputs": [
        {
          "internalType": "address",
          "name": "initialOwner",
          "type": "address"
        },
        {
          "internalType": "address",
          "name": "tokenAddress",
          "type": "address"
        }
      ],
      "stateMutability": "nonpayable",
      "type": "constructor"
    },
    {
      "anonymous": false,
      "inputs": [
        {
          "indexed": true,
          "internalType": "address",
          "name": "depositor",
          "type": "address"
        },
        {
          "indexed": false,
          "internalType": "uint256",
          "name": "amount",
          "type": "uint256"
        },
        {
          "indexed": true,
          "internalType": "bytes32",
          "name": "depositId",
          "type": "bytes32"
        },
        {
          "indexed": false,
          "internalType": "uint256",
          "name": "vaultBalanceAfter",
          "type": "uint256"
        }
      ],
      "name": "Deposited",
      "type": "event"
    },
    {
      "anonymous": false,
      "inputs": [
        {
          "indexed": true,
          "internalType": "address",
          "name": "recipient",
          "type": "address"
        },
        {
          "indexed": false,
          "internalType": "uint256",
          "name": "amount",
          "type": "uint256"
        }
      ],
      "name": "EmergencyNativeWithdrawn",
      "type": "event"
    },
    {
      "anonymous": false,
      "inputs": [
        {
          "indexed": true,
          "internalType": "address",
          "name": "token",
          "type": "address"
        },
        {
          "indexed": true,
          "internalType": "address",
          "name": "recipient",
          "type": "address"
        },
        {
          "indexed": false,
          "internalType": "uint256",
          "name": "amount",
          "type": "uint256"
        }
      ],
      "name": "EmergencyTokenWithdrawn",
      "type": "event"
    },
    {
      "anonymous": false,
      "inputs": [
        {
          "indexed": true,
          "internalType": "address",
          "name": "account",
          "type": "address"
        },
        {
          "indexed": false,
          "internalType": "bool",
          "name": "allowed",
          "type": "bool"
        }
      ],
      "name": "OperatorUpdated",
      "type": "event"
    },
    {
      "anonymous": false,
      "inputs": [
        {
          "indexed": true,
          "internalType": "address",
          "name": "previousOwner",
          "type": "address"
        },
        {
          "indexed": true,
          "internalType": "address",
          "name": "newOwner",
          "type": "address"
        }
      ],
      "name": "OwnerUpdated",
      "type": "event"
    },
    {
      "anonymous": false,
      "inputs": [
        {
          "indexed": true,
          "internalType": "address",
          "name": "account",
          "type": "address"
        }
      ],
      "name": "Paused",
      "type": "event"
    },
    {
      "anonymous": false,
      "inputs": [
        {
          "indexed": true,
          "internalType": "address",
          "name": "account",
          "type": "address"
        },
        {
          "indexed": false,
          "internalType": "bool",
          "name": "allowed",
          "type": "bool"
        }
      ],
      "name": "PauserUpdated",
      "type": "event"
    },
    {
      "anonymous": false,
      "inputs": [
        {
          "indexed": true,
          "internalType": "address",
          "name": "account",
          "type": "address"
        }
      ],
      "name": "Unpaused",
      "type": "event"
    },
    {
      "anonymous": false,
      "inputs": [
        {
          "indexed": true,
          "internalType": "address",
          "name": "recipient",
          "type": "address"
        },
        {
          "indexed": false,
          "internalType": "uint256",
          "name": "amount",
          "type": "uint256"
        },
        {
          "indexed": true,
          "internalType": "bytes32",
          "name": "withdrawalId",
          "type": "bytes32"
        },
        {
          "indexed": false,
          "internalType": "uint256",
          "name": "vaultBalanceAfter",
          "type": "uint256"
        }
      ],
      "name": "Withdrawn",
      "type": "event"
    },
    {
      "inputs": [
        {
          "internalType": "uint256",
          "name": "amount",
          "type": "uint256"
        },
        {
          "internalType": "bytes32",
          "name": "depositId",
          "type": "bytes32"
        }
      ],
      "name": "deposit",
      "outputs": [],
      "stateMutability": "nonpayable",
      "type": "function"
    },
    {
      "inputs": [
        {
          "internalType": "address",
          "name": "",
          "type": "address"
        }
      ],
      "name": "depositedByAccount",
      "outputs": [
        {
          "internalType": "uint256",
          "name": "",
          "type": "uint256"
        }
      ],
      "stateMutability": "view",
      "type": "function"
    },
    {
      "inputs": [
        {
          "internalType": "address payable",
          "name": "recipient",
          "type": "address"
        },
        {
          "internalType": "uint256",
          "name": "amount",
          "type": "uint256"
        }
      ],
      "name": "emergencyWithdrawNative",
      "outputs": [],
      "stateMutability": "nonpayable",
      "type": "function"
    },
    {
      "inputs": [
        {
          "internalType": "address",
          "name": "recipient",
          "type": "address"
        },
        {
          "internalType": "uint256",
          "name": "amount",
          "type": "uint256"
        }
      ],
      "name": "emergencyWithdrawPrincipalToken",
      "outputs": [],
      "stateMutability": "nonpayable",
      "type": "function"
    },
    {
      "inputs": [
        {
          "internalType": "address",
          "name": "tokenAddress",
          "type": "address"
        },
        {
          "internalType": "address",
          "name": "recipient",
          "type": "address"
        },
        {
          "internalType": "uint256",
          "name": "amount",
          "type": "uint256"
        }
      ],
      "name": "emergencyWithdrawUnexpectedToken",
      "outputs": [],
      "stateMutability": "nonpayable",
      "type": "function"
    },
    {
      "inputs": [
        {
          "internalType": "address",
          "name": "",
          "type": "address"
        }
      ],
      "name": "operators",
      "outputs": [
        {
          "internalType": "bool",
          "name": "",
          "type": "bool"
        }
      ],
      "stateMutability": "view",
      "type": "function"
    },
    {
      "inputs": [],
      "name": "owner",
      "outputs": [
        {
          "internalType": "address",
          "name": "",
          "type": "address"
        }
      ],
      "stateMutability": "view",
      "type": "function"
    },
    {
      "inputs": [],
      "name": "pause",
      "outputs": [],
      "stateMutability": "nonpayable",
      "type": "function"
    },
    {
      "inputs": [],
      "name": "paused",
      "outputs": [
        {
          "internalType": "bool",
          "name": "",
          "type": "bool"
        }
      ],
      "stateMutability": "view",
      "type": "function"
    },
    {
      "inputs": [
        {
          "internalType": "address",
          "name": "",
          "type": "address"
        }
      ],
      "name": "pausers",
      "outputs": [
        {
          "internalType": "bool",
          "name": "",
          "type": "bool"
        }
      ],
      "stateMutability": "view",
      "type": "function"
    },
    {
      "inputs": [
        {
          "internalType": "address",
          "name": "account",
          "type": "address"
        },
        {
          "internalType": "bool",
          "name": "allowed",
          "type": "bool"
        }
      ],
      "name": "setOperator",
      "outputs": [],
      "stateMutability": "nonpayable",
      "type": "function"
    },
    {
      "inputs": [
        {
          "internalType": "address",
          "name": "newOwner",
          "type": "address"
        }
      ],
      "name": "setOwner",
      "outputs": [],
      "stateMutability": "nonpayable",
      "type": "function"
    },
    {
      "inputs": [
        {
          "internalType": "address",
          "name": "account",
          "type": "address"
        },
        {
          "internalType": "bool",
          "name": "allowed",
          "type": "bool"
        }
      ],
      "name": "setPauser",
      "outputs": [],
      "stateMutability": "nonpayable",
      "type": "function"
    },
    {
      "inputs": [],
      "name": "token",
      "outputs": [
        {
          "internalType": "contract IGameTreasuryToken",
          "name": "",
          "type": "address"
        }
      ],
      "stateMutability": "view",
      "type": "function"
    },
    {
      "inputs": [],
      "name": "totalDeposited",
      "outputs": [
        {
          "internalType": "uint256",
          "name": "",
          "type": "uint256"
        }
      ],
      "stateMutability": "view",
      "type": "function"
    },
    {
      "inputs": [],
      "name": "totalWithdrawn",
      "outputs": [
        {
          "internalType": "uint256",
          "name": "",
          "type": "uint256"
        }
      ],
      "stateMutability": "view",
      "type": "function"
    },
    {
      "inputs": [],
      "name": "unpause",
      "outputs": [],
      "stateMutability": "nonpayable",
      "type": "function"
    },
    {
      "inputs": [
        {
          "internalType": "bytes32",
          "name": "",
          "type": "bytes32"
        }
      ],
      "name": "usedDepositIds",
      "outputs": [
        {
          "internalType": "bool",
          "name": "",
          "type": "bool"
        }
      ],
      "stateMutability": "view",
      "type": "function"
    },
    {
      "inputs": [
        {
          "internalType": "bytes32",
          "name": "",
          "type": "bytes32"
        }
      ],
      "name": "usedWithdrawalIds",
      "outputs": [
        {
          "internalType": "bool",
          "name": "",
          "type": "bool"
        }
      ],
      "stateMutability": "view",
      "type": "function"
    },
    {
      "inputs": [],
      "name": "vaultBalance",
      "outputs": [
        {
          "internalType": "uint256",
          "name": "",
          "type": "uint256"
        }
      ],
      "stateMutability": "view",
      "type": "function"
    },
    {
      "inputs": [
        {
          "internalType": "address",
          "name": "recipient",
          "type": "address"
        },
        {
          "internalType": "uint256",
          "name": "amount",
          "type": "uint256"
        },
        {
          "internalType": "bytes32",
          "name": "withdrawalId",
          "type": "bytes32"
        }
      ],
      "name": "withdraw",
      "outputs": [],
      "stateMutability": "nonpayable",
      "type": "function"
    },
    {
      "inputs": [
        {
          "internalType": "address",
          "name": "",
          "type": "address"
        }
      ],
      "name": "withdrawnByAccount",
      "outputs": [
        {
          "internalType": "uint256",
          "name": "",
          "type": "uint256"
        }
      ],
      "stateMutability": "view",
      "type": "function"
    },
    {
      "stateMutability": "payable",
      "type": "receive"
    }
  ],
  "bytecode": "0x60a06040523480156200001157600080fd5b506040516200194b3803806200194b8339810160408190526200003491620001b1565b6001600160a01b038216620000805760405162461bcd60e51b815260206004820152600d60248201526c24a72b20a624a22fa7aba722a960991b60448201526064015b60405180910390fd5b6001600160a01b038116620000c85760405162461bcd60e51b815260206004820152600d60248201526c24a72b20a624a22faa27a5a2a760991b604482015260640162000077565b600080546001600160a01b0319166001600160a01b0384811691821783558316608052808252600360209081526040808420805460ff1990811660019081179092556004845294829020805490951681179094555192835290917f966c160e1c4dbc7df8d69af4ace01e9297c3cf016397b7914971f2fbfa32672d910160405180910390a2604051600181526001600160a01b038316907f902923dcd4814f6cef7005a70e01d5cf2035ab02d4523ef3b865f1d7bab885af9060200160405180910390a25050620001e9565b80516001600160a01b0381168114620001ac57600080fd5b919050565b60008060408385031215620001c557600080fd5b620001d08362000194565b9150620001e06020840162000194565b90509250929050565b60805161170e6200023d6000396000818161044401528181610494015281816106e6015281816107fd01528181610e2701528181610ec10152818161106a0152818161119d01526112b8015261170e6000f3fe6080604052600436106101395760003560e01c80638456cb59116100ab578063c9630cb01161006f578063c9630cb014610392578063cde4aae0146103b2578063d1f90376146103e2578063d41b125e14610402578063fc0c546a14610432578063ff50abdc1461046657600080fd5b80638456cb59146102d85780638da5cb5b146102ed5780638fee4780146103255780639b78850414610352578063b5269c301461037257600080fd5b80633f4ba83a116100fd5780633f4ba83a1461021c5780634b31971314610231578063558a7297146102475780635c975abb146102675780637180c8ca1461028857806380f51c12146102a857600080fd5b80630bf6cc0814610145578063106e62901461016d57806313af40351461018f57806313e7c9d8146101af578063369e11ee146101ef57600080fd5b3661014057005b600080fd5b34801561015157600080fd5b5061015a61047c565b6040519081526020015b60405180910390f35b34801561017957600080fd5b5061018d610188366004611469565b61050c565b005b34801561019b57600080fd5b5061018d6101aa36600461149e565b610889565b3480156101bb57600080fd5b506101df6101ca36600461149e565b60036020526000908152604090205460ff1681565b6040519015158152602001610164565b3480156101fb57600080fd5b5061015a61020a36600461149e565b60076020526000908152604090205481565b34801561022857600080fd5b5061018d610954565b34801561023d57600080fd5b5061015a60025481565b34801561025357600080fd5b5061018d6102623660046114d0565b6109ed565b34801561027357600080fd5b506000546101df90600160a01b900460ff1681565b34801561029457600080fd5b5061018d6102a33660046114d0565b610a77565b3480156102b457600080fd5b506101df6102c336600461149e565b60046020526000908152604090205460ff1681565b3480156102e457600080fd5b5061018d610af9565b3480156102f957600080fd5b5060005461030d906001600160a01b031681565b6040516001600160a01b039091168152602001610164565b34801561033157600080fd5b5061015a61034036600461149e565b60086020526000908152604090205481565b34801561035e57600080fd5b5061018d61036d366004611509565b610b98565b34801561037e57600080fd5b5061018d61038d366004611509565b610d65565b34801561039e57600080fd5b5061018d6103ad366004611535565b610f27565b3480156103be57600080fd5b506101df6103cd366004611557565b60066020526000908152604090205460ff1681565b3480156103ee57600080fd5b5061018d6103fd366004611570565b61121d565b34801561040e57600080fd5b506101df61041d366004611557565b60056020526000908152604090205460ff1681565b34801561043e57600080fd5b5061030d7f000000000000000000000000000000000000000000000000000000000000000081565b34801561047257600080fd5b5061015a60015481565b6040516370a0823160e01b81523060048201526000907f00000000000000000000000000000000000000000000000000000000000000006001600160a01b0316906370a0823190602401602060405180830381865afa1580156104e3573d6000803e3d6000fd5b505050506040513d601f19601f8201168201806040525081019061050791906115b1565b905090565b6000546001600160a01b031633148061053457503360009081526003602052604090205460ff165b6105755760405162461bcd60e51b815260206004820152600d60248201526c27a7262cafa7a822a920aa27a960991b60448201526064015b60405180910390fd5b600054600160a01b900460ff16156105be5760405162461bcd60e51b815260206004820152600c60248201526b159055531517d4105554d15160a21b604482015260640161056c565b6001600160a01b0383166105e45760405162461bcd60e51b815260040161056c906115ca565b600082116106045760405162461bcd60e51b815260040161056c906115f5565b806106495760405162461bcd60e51b81526020600482015260156024820152741253959053125117d5d2551211149055d05317d251605a1b604482015260640161056c565b60008181526006602052604090205460ff16156106a85760405162461bcd60e51b815260206004820152601760248201527f5749544844524157414c5f414c52454144595f55534544000000000000000000604482015260640161056c565b600081815260066020526040808220805460ff191660011790555163a9059cbb60e01b81526001600160a01b038581166004830152602482018590527f0000000000000000000000000000000000000000000000000000000000000000169063a9059cbb906044016020604051808303816000875af115801561072f573d6000803e3d6000fd5b505050506040513d601f19601f82011682018060405250810190610753919061161d565b9050806107725760405162461bcd60e51b815260040161056c9061163a565b82600260008282546107849190611663565b90915550506001600160a01b038416600090815260086020526040812080548592906107b1908490611663565b90915550506040516370a0823160e01b815230600482015282906001600160a01b03808716917f0d3986831d48903c70c1d9ad61250716c7dd4eeab20adf08bb1365d046263fea9187917f0000000000000000000000000000000000000000000000000000000000000000909116906370a0823190602401602060405180830381865afa158015610846573d6000803e3d6000fd5b505050506040513d601f19601f8201168201806040525081019061086a91906115b1565b604080519283526020830191909152015b60405180910390a350505050565b6000546001600160a01b031633146108b35760405162461bcd60e51b815260040161056c9061168a565b6001600160a01b0381166108f95760405162461bcd60e51b815260206004820152600d60248201526c24a72b20a624a22fa7aba722a960991b604482015260640161056c565b600080546040516001600160a01b03808516939216917f8292fce18fa69edf4db7b94ea2e58241df0ae57f97e0a6c9b29067028bf92d7691a3600080546001600160a01b0319166001600160a01b0392909216919091179055565b6000546001600160a01b031633148061097c57503360009081526004602052604090205460ff165b6109b65760405162461bcd60e51b815260206004820152600b60248201526a27a7262cafa820aaa9a2a960a91b604482015260640161056c565b6000805460ff60a01b1916815560405133917f5db9ee0a495bf2e6ff9c91a7834c1ba4fdd244a5e8aa4e537bd38aeae4b073aa91a2565b6000546001600160a01b03163314610a175760405162461bcd60e51b815260040161056c9061168a565b6001600160a01b038216600081815260036020908152604091829020805460ff191685151590811790915591519182527f966c160e1c4dbc7df8d69af4ace01e9297c3cf016397b7914971f2fbfa32672d91015b60405180910390a25050565b6000546001600160a01b03163314610aa15760405162461bcd60e51b815260040161056c9061168a565b6001600160a01b038216600081815260046020908152604091829020805460ff191685151590811790915591519182527f902923dcd4814f6cef7005a70e01d5cf2035ab02d4523ef3b865f1d7bab885af9101610a6b565b6000546001600160a01b0316331480610b2157503360009081526004602052604090205460ff165b610b5b5760405162461bcd60e51b815260206004820152600b60248201526a27a7262cafa820aaa9a2a960a91b604482015260640161056c565b6000805460ff60a01b1916600160a01b17815560405133917f62e78cea01bee320cd4e420270b5ea74000d11b0c9f74754ebdbfc544b05a25891a2565b6000546001600160a01b03163314610bc25760405162461bcd60e51b815260040161056c9061168a565b600054600160a01b900460ff16610beb5760405162461bcd60e51b815260040161056c906116ae565b6001600160a01b038216610c115760405162461bcd60e51b815260040161056c906115ca565b60008111610c315760405162461bcd60e51b815260040161056c906115f5565b80471015610c815760405162461bcd60e51b815260206004820152601b60248201527f494e53554646494349454e545f4e41544956455f42414c414e43450000000000604482015260640161056c565b6000826001600160a01b03168260405160006040518083038185875af1925050503d8060008114610cce576040519150601f19603f3d011682016040523d82523d6000602084013e610cd3565b606091505b5050905080610d1d5760405162461bcd60e51b815260206004820152601660248201527513905512559157d514905394d1915497d1905253115160521b604482015260640161056c565b826001600160a01b03167f667063edc301be4bbbe0123ca445e0ded1511a46a4cba624ae39dfcda8eddbc183604051610d5891815260200190565b60405180910390a2505050565b6000546001600160a01b03163314610d8f5760405162461bcd60e51b815260040161056c9061168a565b600054600160a01b900460ff16610db85760405162461bcd60e51b815260040161056c906116ae565b6001600160a01b038216610dde5760405162461bcd60e51b815260040161056c906115ca565b60008111610dfe5760405162461bcd60e51b815260040161056c906115f5565b60405163a9059cbb60e01b81526001600160a01b038381166004830152602482018390526000917f00000000000000000000000000000000000000000000000000000000000000009091169063a9059cbb906044016020604051808303816000875af1158015610e72573d6000803e3d6000fd5b505050506040513d601f19601f82011682018060405250810190610e96919061161d565b905080610eb55760405162461bcd60e51b815260040161056c9061163a565b826001600160a01b03167f00000000000000000000000000000000000000000000000000000000000000006001600160a01b03167f8be7b37fba2e02786d661f3fa9ae0e02d548a6a5f7f47ecddefc5c9cb620606b84604051610f1a91815260200190565b60405180910390a3505050565b600054600160a01b900460ff1615610f705760405162461bcd60e51b815260206004820152600c60248201526b159055531517d4105554d15160a21b604482015260640161056c565b60008211610f905760405162461bcd60e51b815260040161056c906115f5565b80610fd25760405162461bcd60e51b81526020600482015260126024820152711253959053125117d1115413d4d25517d25160721b604482015260640161056c565b60008181526005602052604090205460ff16156110285760405162461bcd60e51b815260206004820152601460248201527311115413d4d25517d053149150511657d554d15160621b604482015260640161056c565b600081815260056020526040808220805460ff19166001179055516323b872dd60e01b8152336004820152306024820152604481018490526001600160a01b037f000000000000000000000000000000000000000000000000000000000000000016906323b872dd906064016020604051808303816000875af11580156110b3573d6000803e3d6000fd5b505050506040513d601f19601f820116820180604052508101906110d7919061161d565b90508061111d5760405162461bcd60e51b81526020600482015260146024820152731514905394d1915497d19493d357d1905253115160621b604482015260640161056c565b826001600082825461112f9190611663565b90915550503360009081526007602052604081208054859290611153908490611663565b90915550506040516370a0823160e01b8152306004820152829033907f4eef3d1efb11f00508d9b7bb632ddcfa6da9d7105bd39f404bdd7362e6c59dbc9086906001600160a01b037f000000000000000000000000000000000000000000000000000000000000000016906370a0823190602401602060405180830381865afa1580156111e4573d6000803e3d6000fd5b505050506040513d601f19601f8201168201806040525081019061120891906115b1565b60408051928352602083019190915201610f1a565b6000546001600160a01b031633146112475760405162461bcd60e51b815260040161056c9061168a565b600054600160a01b900460ff166112705760405162461bcd60e51b815260040161056c906116ae565b6001600160a01b0383166112b65760405162461bcd60e51b815260206004820152600d60248201526c24a72b20a624a22faa27a5a2a760991b604482015260640161056c565b7f00000000000000000000000000000000000000000000000000000000000000006001600160a01b0316836001600160a01b0316036113305760405162461bcd60e51b81526020600482015260166024820152755553455f5052494e434950414c5f574954484452415760501b604482015260640161056c565b6001600160a01b0382166113565760405162461bcd60e51b815260040161056c906115ca565b600081116113765760405162461bcd60e51b815260040161056c906115f5565b60405163a9059cbb60e01b81526001600160a01b038381166004830152602482018390526000919085169063a9059cbb906044016020604051808303816000875af11580156113c9573d6000803e3d6000fd5b505050506040513d601f19601f820116820180604052508101906113ed919061161d565b90508061140c5760405162461bcd60e51b815260040161056c9061163a565b826001600160a01b0316846001600160a01b03167f8be7b37fba2e02786d661f3fa9ae0e02d548a6a5f7f47ecddefc5c9cb620606b8460405161087b91815260200190565b6001600160a01b038116811461146657600080fd5b50565b60008060006060848603121561147e57600080fd5b833561148981611451565b95602085013595506040909401359392505050565b6000602082840312156114b057600080fd5b81356114bb81611451565b9392505050565b801515811461146657600080fd5b600080604083850312156114e357600080fd5b82356114ee81611451565b915060208301356114fe816114c2565b809150509250929050565b6000806040838503121561151c57600080fd5b823561152781611451565b946020939093013593505050565b6000806040838503121561154857600080fd5b50508035926020909101359150565b60006020828403121561156957600080fd5b5035919050565b60008060006060848603121561158557600080fd5b833561159081611451565b925060208401356115a081611451565b929592945050506040919091013590565b6000602082840312156115c357600080fd5b5051919050565b6020808252601190820152701253959053125117d49150d25412515395607a1b604082015260600190565b6020808252600e908201526d1253959053125117d05353d5539560921b604082015260600190565b60006020828403121561162f57600080fd5b81516114bb816114c2565b6020808252600f908201526e1514905394d1915497d19052531151608a1b604082015260600190565b8082018082111561168457634e487b7160e01b600052601160045260246000fd5b92915050565b6020808252600a908201526927a7262cafa7aba722a960b11b604082015260600190565b60208082526010908201526f159055531517d393d517d4105554d15160821b60408201526060019056fea2646970667358221220a631557385522ada14550eb241cd17336a378877f9a6037e44018737fff281a264736f6c63430008180033",
  "linkReferences": {},
  "deployedLinkReferences": {}
}