{
  "_format": "hh-sol-artifact-1",
  "contractName": "PrizePoolVault",
  "sourceName": "contracts/PrizePoolVault.sol",
  "abi": [
    {
      "inputs": [
        {
          "internalType": "address",
          "name": "initialOwner",
          "type": "address"
        }
      ],
      "stateMutability": "nonpayable",
      "type": "constructor"
    },
    {
      "anonymous": false,
      "inputs": [
        {
          "indexed": true,
          "internalType": "address",
          "name": "recipient",
          "type": "address"
        },
        {
          "indexed": false,
          "internalType": "uint256",
          "name": "amount",
          "type": "uint256"
        }
      ],
      "name": "EmergencyNativeWithdrawn",
      "type": "event"
    },
    {
      "anonymous": false,
      "inputs": [
        {
          "indexed": true,
          "internalType": "address",
          "name": "token",
          "type": "address"
        },
        {
          "indexed": true,
          "internalType": "address",
          "name": "recipient",
          "type": "address"
        },
        {
          "indexed": false,
          "internalType": "uint256",
          "name": "amount",
          "type": "uint256"
        }
      ],
      "name": "EmergencyTokenWithdrawn",
      "type": "event"
    },
    {
      "anonymous": false,
      "inputs": [
        {
          "indexed": true,
          "internalType": "address",
          "name": "previousOwner",
          "type": "address"
        },
        {
          "indexed": true,
          "internalType": "address",
          "name": "newOwner",
          "type": "address"
        }
      ],
      "name": "OwnerUpdated",
      "type": "event"
    },
    {
      "anonymous": false,
      "inputs": [
        {
          "indexed": true,
          "internalType": "address",
          "name": "account",
          "type": "address"
        }
      ],
      "name": "Paused",
      "type": "event"
    },
    {
      "anonymous": false,
      "inputs": [
        {
          "indexed": true,
          "internalType": "address",
          "name": "account",
          "type": "address"
        },
        {
          "indexed": false,
          "internalType": "bool",
          "name": "allowed",
          "type": "bool"
        }
      ],
      "name": "PauserUpdated",
      "type": "event"
    },
    {
      "anonymous": false,
      "inputs": [
        {
          "indexed": true,
          "internalType": "address",
          "name": "account",
          "type": "address"
        },
        {
          "indexed": false,
          "internalType": "bool",
          "name": "allowed",
          "type": "bool"
        }
      ],
      "name": "PayoutOperatorUpdated",
      "type": "event"
    },
    {
      "anonymous": false,
      "inputs": [
        {
          "indexed": true,
          "internalType": "address",
          "name": "sender",
          "type": "address"
        },
        {
          "indexed": false,
          "internalType": "uint256",
          "name": "amount",
          "type": "uint256"
        },
        {
          "indexed": false,
          "internalType": "uint256",
          "name": "balanceAfter",
          "type": "uint256"
        }
      ],
      "name": "PrizeDeposited",
      "type": "event"
    },
    {
      "anonymous": false,
      "inputs": [
        {
          "indexed": true,
          "internalType": "bytes32",
          "name": "tournamentId",
          "type": "bytes32"
        },
        {
          "indexed": true,
          "internalType": "bytes32",
          "name": "payoutId",
          "type": "bytes32"
        },
        {
          "indexed": true,
          "internalType": "address",
          "name": "winner",
          "type": "address"
        },
        {
          "indexed": false,
          "internalType": "uint256",
          "name": "amount",
          "type": "uint256"
        }
      ],
      "name": "PrizePaid",
      "type": "event"
    },
    {
      "anonymous": false,
      "inputs": [
        {
          "indexed": true,
          "internalType": "address",
          "name": "account",
          "type": "address"
        }
      ],
      "name": "Unpaused",
      "type": "event"
    },
    {
      "inputs": [
        {
          "internalType": "address payable",
          "name": "recipient",
          "type": "address"
        },
        {
          "internalType": "uint256",
          "name": "amount",
          "type": "uint256"
        }
      ],
      "name": "emergencyWithdrawNative",
      "outputs": [],
      "stateMutability": "nonpayable",
      "type": "function"
    },
    {
      "inputs": [
        {
          "internalType": "address",
          "name": "token",
          "type": "address"
        },
        {
          "internalType": "address",
          "name": "recipient",
          "type": "address"
        },
        {
          "internalType": "uint256",
          "name": "amount",
          "type": "uint256"
        }
      ],
      "name": "emergencyWithdrawUnexpectedToken",
      "outputs": [],
      "stateMutability": "nonpayable",
      "type": "function"
    },
    {
      "inputs": [],
      "name": "getPayoutCount",
      "outputs": [
        {
          "internalType": "uint256",
          "name": "",
          "type": "uint256"
        }
      ],
      "stateMutability": "view",
      "type": "function"
    },
    {
      "inputs": [],
      "name": "owner",
      "outputs": [
        {
          "internalType": "address",
          "name": "",
          "type": "address"
        }
      ],
      "stateMutability": "view",
      "type": "function"
    },
    {
      "inputs": [],
      "name": "pause",
      "outputs": [],
      "stateMutability": "nonpayable",
      "type": "function"
    },
    {
      "inputs": [],
      "name": "paused",
      "outputs": [
        {
          "internalType": "bool",
          "name": "",
          "type": "bool"
        }
      ],
      "stateMutability": "view",
      "type": "function"
    },
    {
      "inputs": [
        {
          "internalType": "address",
          "name": "",
          "type": "address"
        }
      ],
      "name": "pausers",
      "outputs": [
        {
          "internalType": "bool",
          "name": "",
          "type": "bool"
        }
      ],
      "stateMutability": "view",
      "type": "function"
    },
    {
      "inputs": [
        {
          "internalType": "bytes32",
          "name": "tournamentId",
          "type": "bytes32"
        },
        {
          "internalType": "bytes32",
          "name": "payoutId",
          "type": "bytes32"
        },
        {
          "internalType": "address payable",
          "name": "winner",
          "type": "address"
        },
        {
          "internalType": "uint256",
          "name": "amount",
          "type": "uint256"
        }
      ],
      "name": "payTournamentPrize",
      "outputs": [],
      "stateMutability": "nonpayable",
      "type": "function"
    },
    {
      "inputs": [
        {
          "internalType": "bytes32",
          "name": "tournamentId",
          "type": "bytes32"
        },
        {
          "internalType": "bytes32[]",
          "name": "payoutIds",
          "type": "bytes32[]"
        },
        {
          "internalType": "address payable[]",
          "name": "winners",
          "type": "address[]"
        },
        {
          "internalType": "uint256[]",
          "name": "amounts",
          "type": "uint256[]"
        }
      ],
      "name": "payTournamentPrizes",
      "outputs": [],
      "stateMutability": "nonpayable",
      "type": "function"
    },
    {
      "inputs": [
        {
          "internalType": "address",
          "name": "",
          "type": "address"
        }
      ],
      "name": "payoutOperators",
      "outputs": [
        {
          "internalType": "bool",
          "name": "",
          "type": "bool"
        }
      ],
      "stateMutability": "view",
      "type": "function"
    },
    {
      "inputs": [
        {
          "internalType": "uint256",
          "name": "",
          "type": "uint256"
        }
      ],
      "name": "payouts",
      "outputs": [
        {
          "internalType": "bytes32",
          "name": "payoutId",
          "type": "bytes32"
        },
        {
          "internalType": "bytes32",
          "name": "tournamentId",
          "type": "bytes32"
        },
        {
          "internalType": "address",
          "name": "winner",
          "type": "address"
        },
        {
          "internalType": "uint256",
          "name": "amount",
          "type": "uint256"
        },
        {
          "internalType": "uint256",
          "name": "paidAt",
          "type": "uint256"
        }
      ],
      "stateMutability": "view",
      "type": "function"
    },
    {
      "inputs": [
        {
          "internalType": "address",
          "name": "newOwner",
          "type": "address"
        }
      ],
      "name": "setOwner",
      "outputs": [],
      "stateMutability": "nonpayable",
      "type": "function"
    },
    {
      "inputs": [
        {
          "internalType": "address",
          "name": "account",
          "type": "address"
        },
        {
          "internalType": "bool",
          "name": "allowed",
          "type": "bool"
        }
      ],
      "name": "setPauser",
      "outputs": [],
      "stateMutability": "nonpayable",
      "type": "function"
    },
    {
      "inputs": [
        {
          "internalType": "address",
          "name": "account",
          "type": "address"
        },
        {
          "internalType": "bool",
          "name": "allowed",
          "type": "bool"
        }
      ],
      "name": "setPayoutOperator",
      "outputs": [],
      "stateMutability": "nonpayable",
      "type": "function"
    },
    {
      "inputs": [],
      "name": "totalPaid",
      "outputs": [
        {
          "internalType": "uint256",
          "name": "",
          "type": "uint256"
        }
      ],
      "stateMutability": "view",
      "type": "function"
    },
    {
      "inputs": [],
      "name": "unpause",
      "outputs": [],
      "stateMutability": "nonpayable",
      "type": "function"
    },
    {
      "inputs": [
        {
          "internalType": "bytes32",
          "name": "",
          "type": "bytes32"
        }
      ],
      "name": "usedPayoutIds",
      "outputs": [
        {
          "internalType": "bool",
          "name": "",
          "type": "bool"
        }
      ],
      "stateMutability": "view",
      "type": "function"
    },
    {
      "stateMutability": "payable",
      "type": "receive"
    }
  ],
  "bytecode": "0x608060405234801561001057600080fd5b506040516115dd3803806115dd83398101604081905261002f9161013d565b6001600160a01b0381166100795760405162461bcd60e51b815260206004820152600d60248201526c24a72b20a624a22fa7aba722a960991b604482015260640160405180910390fd5b600080546001600160a01b0319166001600160a01b0383169081178255808252600360209081526040808420805460ff1990811660019081179092556004845294829020805490951681179094555192835290917f6f2cc06809482098e447156ab8d04276f74bc1ebe3215cddd548151ca0f8eba6910160405180910390a2604051600181526001600160a01b038216907f902923dcd4814f6cef7005a70e01d5cf2035ab02d4523ef3b865f1d7bab885af9060200160405180910390a25061016d565b60006020828403121561014f57600080fd5b81516001600160a01b038116811461016657600080fd5b9392505050565b6114618061017c6000396000f3fe6080604052600436106101025760003560e01c80637180c8ca116100955780638da5cb5b116100645780638da5cb5b1461031f5780639b78850414610357578063b980494314610377578063d1f90376146103a7578063e7b0f666146103c757600080fd5b80637180c8ca1461029a57806380f51c12146102ba5780638456cb59146102ea5780638823c3f6146102ff57600080fd5b80633d06711d116100d15780633d06711d146102255780633f4ba83a146102455780634083c32a1461025a5780635c975abb1461027957600080fd5b806313af4035146101485780631849d2a11461016a57806329652e86146101af578063341027141461020557600080fd5b36610143576040805134815247602082015233917f93e71a765d9dbd78bb81630ff384cea4889a4dd193703dd81f51584e20e71508910160405180910390a2005b600080fd5b34801561015457600080fd5b5061016861016336600461113c565b6103dd565b005b34801561017657600080fd5b5061019a610185366004611160565b60056020526000908152604090205460ff1681565b60405190151581526020015b60405180910390f35b3480156101bb57600080fd5b506101cf6101ca366004611160565b6104b1565b6040805195865260208601949094526001600160a01b03909216928401929092526060830191909152608082015260a0016101a6565b34801561021157600080fd5b506101686102203660046111c5565b6104fc565b34801561023157600080fd5b50610168610240366004611269565b610688565b34801561025157600080fd5b50610168610753565b34801561026657600080fd5b506002545b6040519081526020016101a6565b34801561028557600080fd5b5060005461019a90600160a01b900460ff1681565b3480156102a657600080fd5b506101686102b53660046112b6565b6107ec565b3480156102c657600080fd5b5061019a6102d536600461113c565b60046020526000908152604090205460ff1681565b3480156102f657600080fd5b50610168610876565b34801561030b57600080fd5b5061016861031a3660046112b6565b610915565b34801561032b57600080fd5b5060005461033f906001600160a01b031681565b6040516001600160a01b0390911681526020016101a6565b34801561036357600080fd5b506101686103723660046112ef565b610997565b34801561038357600080fd5b5061019a61039236600461113c565b60036020526000908152604090205460ff1681565b3480156103b357600080fd5b506101686103c236600461131b565b610b83565b3480156103d357600080fd5b5061026b60015481565b6000546001600160a01b031633146104105760405162461bcd60e51b81526004016104079061135c565b60405180910390fd5b6001600160a01b0381166104565760405162461bcd60e51b815260206004820152600d60248201526c24a72b20a624a22fa7aba722a960991b6044820152606401610407565b600080546040516001600160a01b03808516939216917f8292fce18fa69edf4db7b94ea2e58241df0ae57f97e0a6c9b29067028bf92d7691a3600080546001600160a01b0319166001600160a01b0392909216919091179055565b600281815481106104c157600080fd5b60009182526020909120600590910201805460018201546002830154600384015460049094015492945090926001600160a01b039091169185565b6000546001600160a01b031633148061052457503360009081526003602052604090205460ff165b6105675760405162461bcd60e51b815260206004820152601460248201527327a7262cafa820aca7aaaa2fa7a822a920aa27a960611b6044820152606401610407565b600054600160a01b900460ff16156105b55760405162461bcd60e51b8152602060048201526011602482015270141492569157d413d3d317d4105554d151607a1b6044820152606401610407565b8483811480156105c457508082145b6106085760405162461bcd60e51b8152602060048201526015602482015274082a4a482b2be988a9c8ea890be9a92a69a82a8869605b1b6044820152606401610407565b60005b8181101561067d576106758989898481811061062957610629611380565b9050602002013588888581811061064257610642611380565b9050602002016020810190610657919061113c565b87878681811061066957610669611380565b90506020020135610d97565b60010161060b565b505050505050505050565b6000546001600160a01b03163314806106b057503360009081526003602052604090205460ff165b6106f35760405162461bcd60e51b815260206004820152601460248201527327a7262cafa820aca7aaaa2fa7a822a920aa27a960611b6044820152606401610407565b600054600160a01b900460ff16156107415760405162461bcd60e51b8152602060048201526011602482015270141492569157d413d3d317d4105554d151607a1b6044820152606401610407565b61074d84848484610d97565b50505050565b6000546001600160a01b031633148061077b57503360009081526004602052604090205460ff165b6107b55760405162461bcd60e51b815260206004820152600b60248201526a27a7262cafa820aaa9a2a960a91b6044820152606401610407565b6000805460ff60a01b1916815560405133917f5db9ee0a495bf2e6ff9c91a7834c1ba4fdd244a5e8aa4e537bd38aeae4b073aa91a2565b6000546001600160a01b031633146108165760405162461bcd60e51b81526004016104079061135c565b6001600160a01b038216600081815260046020908152604091829020805460ff191685151590811790915591519182527f902923dcd4814f6cef7005a70e01d5cf2035ab02d4523ef3b865f1d7bab885af91015b60405180910390a25050565b6000546001600160a01b031633148061089e57503360009081526004602052604090205460ff165b6108d85760405162461bcd60e51b815260206004820152600b60248201526a27a7262cafa820aaa9a2a960a91b6044820152606401610407565b6000805460ff60a01b1916600160a01b17815560405133917f62e78cea01bee320cd4e420270b5ea74000d11b0c9f74754ebdbfc544b05a25891a2565b6000546001600160a01b0316331461093f5760405162461bcd60e51b81526004016104079061135c565b6001600160a01b038216600081815260036020908152604091829020805460ff191685151590811790915591519182527f6f2cc06809482098e447156ab8d04276f74bc1ebe3215cddd548151ca0f8eba6910161086a565b6000546001600160a01b031633146109c15760405162461bcd60e51b81526004016104079061135c565b600054600160a01b900460ff16610a125760405162461bcd60e51b8152602060048201526015602482015274141492569157d413d3d317d393d517d4105554d151605a1b6044820152606401610407565b6001600160a01b038216610a5c5760405162461bcd60e51b81526020600482015260116024820152701253959053125117d49150d25412515395607a1b6044820152606401610407565b60008111610a7c5760405162461bcd60e51b815260040161040790611396565b80471015610ac85760405162461bcd60e51b8152602060048201526019602482015278494e53554646494349454e545f504f4f4c5f42414c414e434560381b6044820152606401610407565b6000826001600160a01b03168260405160006040518083038185875af1925050503d8060008114610b15576040519150601f19603f3d011682016040523d82523d6000602084013e610b1a565b606091505b5050905080610b3b5760405162461bcd60e51b8152600401610407906113be565b826001600160a01b03167f667063edc301be4bbbe0123ca445e0ded1511a46a4cba624ae39dfcda8eddbc183604051610b7691815260200190565b60405180910390a2505050565b6000546001600160a01b03163314610bad5760405162461bcd60e51b81526004016104079061135c565b600054600160a01b900460ff16610bfe5760405162461bcd60e51b8152602060048201526015602482015274141492569157d413d3d317d393d517d4105554d151605a1b6044820152606401610407565b6001600160a01b038316610c445760405162461bcd60e51b815260206004820152600d60248201526c24a72b20a624a22faa27a5a2a760991b6044820152606401610407565b6001600160a01b038216610c8e5760405162461bcd60e51b81526020600482015260116024820152701253959053125117d49150d25412515395607a1b6044820152606401610407565b60008111610cae5760405162461bcd60e51b815260040161040790611396565b60405163a9059cbb60e01b81526001600160a01b038381166004830152602482018390526000919085169063a9059cbb906044016020604051808303816000875af1158015610d01573d6000803e3d6000fd5b505050506040513d601f19601f82011682018060405250810190610d2591906113e7565b905080610d445760405162461bcd60e51b8152600401610407906113be565b826001600160a01b0316846001600160a01b03167f8be7b37fba2e02786d661f3fa9ae0e02d548a6a5f7f47ecddefc5c9cb620606b84604051610d8991815260200190565b60405180910390a350505050565b83610dd95760405162461bcd60e51b81526020600482015260126024820152711253959053125117d513d55493905351539560721b6044820152606401610407565b82610e1a5760405162461bcd60e51b81526020600482015260116024820152701253959053125117d4105653d55517d251607a1b6044820152606401610407565b60008381526005602052604090205460ff1615610e6f5760405162461bcd60e51b815260206004820152601360248201527214105653d55517d053149150511657d554d151606a1b6044820152606401610407565b6001600160a01b038216610eb65760405162461bcd60e51b815260206004820152600e60248201526d24a72b20a624a22faba4a72722a960911b6044820152606401610407565b60008111610ed65760405162461bcd60e51b815260040161040790611396565b80471015610f225760405162461bcd60e51b8152602060048201526019602482015278494e53554646494349454e545f504f4f4c5f42414c414e434560381b6044820152606401610407565b6000838152600560205260408120805460ff191660019081179091558054839290610f4e908490611404565b90915550506040805160a081018252848152602081018681526001600160a01b0385811683850181815260608501878152426080870190815260028054600181018255600091825297517f405787fa12a823e0f2b7631cc41b3ba8828b3321ca811111fa75cd3aa3bb5ace60059099029889015595517f405787fa12a823e0f2b7631cc41b3ba8828b3321ca811111fa75cd3aa3bb5acf88015591517f405787fa12a823e0f2b7631cc41b3ba8828b3321ca811111fa75cd3aa3bb5ad0870180546001600160a01b031916919095161790935591517f405787fa12a823e0f2b7631cc41b3ba8828b3321ca811111fa75cd3aa3bb5ad185015590517f405787fa12a823e0f2b7631cc41b3ba8828b3321ca811111fa75cd3aa3bb5ad2909301929092559151839060006040518083038185875af1925050503d80600081146110b2576040519150601f19603f3d011682016040523d82523d6000602084013e6110b7565b606091505b50509050806110d85760405162461bcd60e51b8152600401610407906113be565b826001600160a01b031684867fd5fde774edacda90de4dd019267ea22db532d23128b5458311063666f1972def8560405161111591815260200190565b60405180910390a45050505050565b6001600160a01b038116811461113957600080fd5b50565b60006020828403121561114e57600080fd5b813561115981611124565b9392505050565b60006020828403121561117257600080fd5b5035919050565b60008083601f84011261118b57600080fd5b50813567ffffffffffffffff8111156111a357600080fd5b6020830191508360208260051b85010111156111be57600080fd5b9250929050565b60008060008060008060006080888a0312156111e057600080fd5b87359650602088013567ffffffffffffffff808211156111ff57600080fd5b61120b8b838c01611179565b909850965060408a013591508082111561122457600080fd5b6112308b838c01611179565b909650945060608a013591508082111561124957600080fd5b506112568a828b01611179565b989b979a50959850939692959293505050565b6000806000806080858703121561127f57600080fd5b8435935060208501359250604085013561129881611124565b9396929550929360600135925050565b801515811461113957600080fd5b600080604083850312156112c957600080fd5b82356112d481611124565b915060208301356112e4816112a8565b809150509250929050565b6000806040838503121561130257600080fd5b823561130d81611124565b946020939093013593505050565b60008060006060848603121561133057600080fd5b833561133b81611124565b9250602084013561134b81611124565b929592945050506040919091013590565b6020808252600a908201526927a7262cafa7aba722a960b11b604082015260600190565b634e487b7160e01b600052603260045260246000fd5b6020808252600e908201526d1253959053125117d05353d5539560921b604082015260600190565b6020808252600f908201526e1514905394d1915497d19052531151608a1b604082015260600190565b6000602082840312156113f957600080fd5b8151611159816112a8565b8082018082111561142557634e487b7160e01b600052601160045260246000fd5b9291505056fea26469706673582212208c1df9ff70e326216bba0b160cdfa8076b666360c0be15e63787087cfe941ecf64736f6c63430008180033",
  "linkReferences": {},
  "deployedLinkReferences": {}
}