{
  "_format": "hh-sol-artifact-1",
  "contractName": "AllinGame",
  "sourceName": "contracts/AllinGame.sol",
  "abi": [
    {
      "inputs": [
        {
          "internalType": "address",
          "name": "tokenAddress",
          "type": "address"
        }
      ],
      "stateMutability": "nonpayable",
      "type": "constructor"
    },
    {
      "anonymous": false,
      "inputs": [
        {
          "indexed": true,
          "internalType": "address",
          "name": "user",
          "type": "address"
        },
        {
          "indexed": false,
          "internalType": "uint256",
          "name": "fee",
          "type": "uint256"
        }
      ],
      "name": "RoomCreated",
      "type": "event"
    },
    {
      "anonymous": false,
      "inputs": [
        {
          "indexed": true,
          "internalType": "address",
          "name": "user",
          "type": "address"
        },
        {
          "indexed": false,
          "internalType": "uint256",
          "name": "fee",
          "type": "uint256"
        }
      ],
      "name": "TournamentRegistered",
      "type": "event"
    },
    {
      "inputs": [],
      "name": "DEAD",
      "outputs": [
        {
          "internalType": "address",
          "name": "",
          "type": "address"
        }
      ],
      "stateMutability": "view",
      "type": "function"
    },
    {
      "inputs": [],
      "name": "createRoom",
      "outputs": [],
      "stateMutability": "nonpayable",
      "type": "function"
    },
    {
      "inputs": [],
      "name": "owner",
      "outputs": [
        {
          "internalType": "address",
          "name": "",
          "type": "address"
        }
      ],
      "stateMutability": "view",
      "type": "function"
    },
    {
      "inputs": [],
      "name": "registerTournament",
      "outputs": [],
      "stateMutability": "nonpayable",
      "type": "function"
    },
    {
      "inputs": [],
      "name": "roomCreationFee",
      "outputs": [
        {
          "internalType": "uint256",
          "name": "",
          "type": "uint256"
        }
      ],
      "stateMutability": "view",
      "type": "function"
    },
    {
      "inputs": [
        {
          "internalType": "uint256",
          "name": "_tournamentFee",
          "type": "uint256"
        },
        {
          "internalType": "uint256",
          "name": "_roomFee",
          "type": "uint256"
        }
      ],
      "name": "setFees",
      "outputs": [],
      "stateMutability": "nonpayable",
      "type": "function"
    },
    {
      "inputs": [],
      "name": "token",
      "outputs": [
        {
          "internalType": "contract IERC20",
          "name": "",
          "type": "address"
        }
      ],
      "stateMutability": "view",
      "type": "function"
    },
    {
      "inputs": [],
      "name": "tournamentFee",
      "outputs": [
        {
          "internalType": "uint256",
          "name": "",
          "type": "uint256"
        }
      ],
      "stateMutability": "view",
      "type": "function"
    }
  ],
  "bytecode": "0x60a060405269152d02c7e14af680000060015569021e19e0c9bab240000060025534801561002c57600080fd5b506040516104f73803806104f783398101604081905261004b9161006e565b6001600160a01b0316608052600080546001600160a01b0319163317905561009e565b60006020828403121561008057600080fd5b81516001600160a01b038116811461009757600080fd5b9392505050565b6080516104306100c760003960008181610110015281816101b101526102c701526104306000f3fe608060405234801561001057600080fd5b50600436106100885760003560e01c80633dabf8a91161005b5780633dabf8a9146100e75780638da5cb5b146100ef578063c6dcaf6c14610102578063fc0c546a1461010b57600080fd5b8063027754101461008d57806303fd2a45146100a95780630b78f9c0146100ca5780633be272aa146100df575b600080fd5b61009660015481565b6040519081526020015b60405180910390f35b6100b261dead81565b6040516001600160a01b0390911681526020016100a0565b6100dd6100d83660046103af565b610132565b005b6100dd610189565b6100dd61029f565b6000546100b2906001600160a01b031681565b61009660025481565b6100b27f000000000000000000000000000000000000000000000000000000000000000081565b6000546001600160a01b0316331461017e5760405162461bcd60e51b815260206004820152600a60248201526927a7262cafa7aba722a960b11b60448201526064015b60405180910390fd5b600191909155600255565b6002546040516323b872dd60e01b815233600482015261dead602482015260448101919091527f00000000000000000000000000000000000000000000000000000000000000006001600160a01b0316906323b872dd906064016020604051808303816000875af1158015610202573d6000803e3d6000fd5b505050506040513d601f19601f8201168201806040525081019061022691906103d1565b6102645760405162461bcd60e51b815260206004820152600f60248201526e1514905394d1915497d19052531151608a1b6044820152606401610175565b60025460405190815233907fd4251f96960ef23cc7267d225bad5ba7d14d57d93564ea196fbb79dcab6501a4906020015b60405180910390a2565b6001546040516323b872dd60e01b815233600482015261dead602482015260448101919091527f00000000000000000000000000000000000000000000000000000000000000006001600160a01b0316906323b872dd906064016020604051808303816000875af1158015610318573d6000803e3d6000fd5b505050506040513d601f19601f8201168201806040525081019061033c91906103d1565b61037a5760405162461bcd60e51b815260206004820152600f60248201526e1514905394d1915497d19052531151608a1b6044820152606401610175565b60015460405190815233907f502bba9578f76f1ec85a4230a6448563b32de616723dee65f25634b22de0299b90602001610295565b600080604083850312156103c257600080fd5b50508035926020909101359150565b6000602082840312156103e357600080fd5b815180151581146103f357600080fd5b939250505056fea26469706673582212209f966e4093056246636ac9459c7ba1ad0690e24613d54ec0a12cd1cf7b3495c964736f6c63430008180033",
  "linkReferences": {},
  "deployedLinkReferences": {}
}